:020000040000FA
:10000000021F4E022003FFFFFFFFFF02200BFFFF36
:10001000FFFFFF022013FFFFFFFFFF02201BFFFF78
:10002000FFFFFF022023FFFFFFFFFF02202BFFFF48
:10003000FFFFFF022033FFFFFFFFFF02203BFFFF18
:10004000FFFFFF022043FFFFFFFFFF02204BFFFFE8
:10005000FFFFFF022053FFFFFFFFFF02205BFFFFB8
:10006000FFFFFF022063FFFFFFFFFF02206BFFFF88
:10007000FFFFFF022073FFFFFFFFFF02207BFFFF58
:10008000FFFFFF022083FFFFFFFFFF02208BFFFF28
:10009000FFFF70DFFFFF040000000002000000C847
:1000A000030002030369A5020269A532730000017F
:1000B00000000000000400FFFFFFFFFFFFFFFF0440
:1000C00003090424035400650078006100730020D4
:1000D0000049006E0073007400720075006D0065C9
:1000E000006E007400730024035400490020004394
:1000F000004300320035003300310020005500532A
:10010000004200200043004400430000035F005F02
:100110000030005800000000000000000000000057
:1001200000000000000000000000000000000000CF
:100130000000000000303132333435363738394171
:1001400042434445463C1C911C911C911C911C99B6
:100150001C74F8121BD6900391E060159003027492
:10016000FEF0900304744DF0A37405F07A011207B9
:100170000C7F01021D7B74F8121BD674FF121EC582
:100180007E00801F851882851983E064FE700690CA
:1001900003877401F0851882851983E0F890038441
:1001A000E068F07901AA18AB191210DFE9700302B8
:1001B000027E851882851983E064EF70027E07E075
:1001C000C0E0900387E0F8900385E0FAE82AF8E4BD
:1001D000340012075BD0E0F0900387E060A6146063
:1001E0000E14602A14603A14605014606680A69061
:1001F0000384E4F0851882851983E0900386F0C3B8
:1002000094809003874003E4808A74028086851876
:1002100082851983E0900382F090038774030201C2
:1002200094851882851983E0900383F0900386E01B
:1002300060199003877404020194900385E004F030
:10024000F8900386E06860030201959003877405C7
:10025000020194900385E4F0900387F0900384E01A
:10026000F8851882851983E0686003020195900380
:1002700082E0644D60030201951203B68002EEF93C
:100280007401121E4602017174F7121BD674FB1220
:100290001EC5EAFEEBFF7508047509007808121EFA
:1002A000DF7402121F467A907B0079041218F274F0
:1002B00002121E461206FE121F97E0687003A3E0AA
:1002C000697012851882851983E0F47003A3E0F445
:1002D00060030203917404121F3E1207678A088BA1
:1002E00009A808A9097402121F97E8F0A3E9F0749D
:1002F00004121F97E0600879011201510203AA85D8
:100300001882851983E0687003A3E0697076851808
:1003100082851983E0F47003A3E0F470197402126B
:100320001F977410F0A37420F085188285198374C8
:1003300010F0A37420F07508017509007808121EEA
:10034000DF7402121F467A247B0812197774021296
:100350001E467508047808121EDF7402121F467AC2
:10036000907B0079041218F27402121E461206FEE7
:10037000121F97E0687003A3E06970047902800699
:100380007904800279031201518E828F83741E805A
:10039000058E828F83E4F01206FE121F97E06870CC
:1003A00003A3E06970047901800279007405121ECC
:1003B000467F02021D7B74ED121BD674F8121EC517
:1003C000900307E0FA900306E0FB8B08EAF8E4C824
:1003D000F9EB28FEE93408FF751001880C750D064D
:1003E0008F0974027808121F2BC39508F8E4950949
:1003F000F9740228F50E740339F50F8E088F09740D
:10040000097808121F5DE508F511EE2410F508E4DF
:100410003FF509EEF50AEF5401F50B900383E01464
:1004200060541470030204EB147003020566146038
:100430001024FE70030206211470030206D1020686
:10044000E1750D03794E1213B29003071206F4748E
:1004500002F0A374401206F274081206F2F0A3F040
:10046000751012AA10A90C12070CA90D7408121EFF
:10047000467F0C021D7B750D04794E1213B2EE45BA
:100480000B7005A9111219DDC3EE9425EF940850E5
:100490003CC3E5089424E50994084031E50E249610
:1004A000F8E50F3420F988828983E0701BA3AA82C3
:1004B000AB83E070139003887401F08882898374A1
:1004C000A5F08A828B838004900388E4F07508107D
:1004D0007509007808121EDF7C087D03EEFAEFFB39
:1004E0001219777402121E46020463750D05E51198
:1004F000C394794006750C010204637512407513AC
:10050000007812121EDF7C097D037402780A121F24
:100510002BAA0AAB0BA9111218F27402121E4690F4
:100520000307E0A3F0900306E0A3F0751043C3EEC9
:100530009425EF94084003020463C3E5089424E57E
:100540000994085003020463900388E070030204D6
:1005500063E50E2497F8E50F3420F988828983E457
:10056000F0A3F00204637508047509007808121EF0
:10057000DF7402121F467A907B0079041218F2741D
:1005800002121E467402121F97E0F8A3E0F98518C4
:1005900082851983E0687003A3E069851882851954
:1005A00083700BE0F47003A3E0F470578009E0F46B
:1005B0007003A3E0F4700D8518828519837410F020
:1005C000A37420F01206FE121F97E8F0A3E9F0755D
:1005D00008017808121EDF7402121F467A247B0875
:1005E0001219777402121E467508047808121EDF6D
:1005F0007402121F467A907B0079041218F274027A
:10060000121E461206FE121F97E0687003A3E069EF
:100610007006750D01020463750D02750C07020466
:10062000639003D6E0600764026003020463EAFF9C
:100630007A01790012070CE060030206C5800312FC
:10064000117B121162E970F77404121F971206E60B
:100650007404121F977808121F7B85080C85090DFA
:10066000850A0E850B0F9003C2780C121F057404C7
:10067000121F97780C121F6CE5084509450A450BB7
:1006800070CE8EC2E5C554E04FF5C57404121F97B5
:100690001206E67404121F977808121F7B85080C57
:1006A00085090D850A0E850B0F9003C2780C121F69
:1006B000057404121F97780C121F6CE50845094554
:1006C0000A450B70CE7A01790012070C79080204F2
:1006D0006CEB900391F07003020463750D09020442
:1006E00063790602046CE4F0A37426F0A3E4F0A39B
:1006F000F022F0A3E4F0A3F0A3F0A3F0A322851866
:1007000082851983E0F8A3E0F974022274F6121BC3
:10071000D6EAFE900305E0D2E7F0E9A3F0EE9003FD
:1007200003F08E0A74042AFE7A028004E0620A0A48
:10073000EAF83395E012075B8E08C3E89508E99460
:1007400000A2D265D03340E4E50AF0740128F97ABA
:10075000027B0312111D7F03021D7BF9740228F531
:1007600082740339F5832274E9121BD675820075F1
:1007700083FE121E288A168B177514007515008AC1
:10078000828B83E4F09003D6E07006D2AAD2AF80C9
:1007900004640270057900120151750C00750D207A
:1007A000750E00750F009003D6E0600464027015AA
:1007B00012117B120176E9F874096860030208A33C
:1007C0007900120151E064027007A292400302080E
:1007D0007E7508007509027808121EDF7402121F68
:1007E00046850C08850D09AA08E5095407FB850E06
:1007F0000A850F0B740B7808121E96A9081218F2BE
:100800007402121E467E007F009003CAC0828E10C2
:10081000EFF5113395E0F512F513850C08850D09F8
:10082000850E0A850F0B78087910121F189003C6E1
:100830007808121F05758303D0827808121E0950AC
:100840001D851882851983E5822EF582E5833FF5A3
:1008500083E0F9AA14AB151208D28A148B150EEE98
:1008600070010FC3EF940240A09003CE780C121FCA
:10087000059003D2780C121E0940030207A67900E6
:10088000AA14AB151208D279001208D28B15900366
:10089000D6E07004C2AFC2AAEA451570277AA57BDC
:1008A000A58021E870030207C5740668700302077B
:1008B000C574076870030207C5851682851783749F
:1008C00001F080BA758200758302121E287F100223
:1008D0001D7BC008C0097C088A088B09740F780842
:1008E000121F5DEA25E0FAEB33FBE9A2E75004743E
:1008F000014AFAE508A2E0500874216AFA74106B04
:10090000FBE9C333F91CEC70CFD009D0082274F78F
:10091000121BD6120F2860030209E9A3E0F8A3E036
:1009200060030209E9A3E064027002A3E06003022D
:1009300009E99003B8E02480600914604F14605CFA
:100940000209E9E860030209E99003B2E060047873
:1009500001800278009003C0E8F0A3E4F09003B1B6
:10096000E0600A9003C0E04402F0A3E4F09003A624
:10097000E0640460149003B374C0F0A37403F0A3A4
:10098000E4F0A37402120F8AF002100A90039FE0B1
:10099000640470559003C0E4F0A380D0E8547FF560
:1009A0000890039FE064047040E508C39406503942
:1009B000749F2508F582E43403F583E854806018B9
:1009C000A3A3A3A3A3A3A3E06403700478018002FC
:1009D00078009003C0E88091E582240CF5825002F3
:1009E0000583E0640370E980E39003A674048098B3
:1009F00074F7121BD6E9FE9003BE120F2B600302A0
:100A00000AD190039FE06404600B9003BC120F2B8B
:100A10006003020AD19003B8E0541F6009146030EB
:100A2000146020020AD19003BAE064017022EE90B3
:100A300003B1F060047905800279067A00121BD4B4
:100A4000020AD79003BCE0547FFA9003BAE0600535
:100A50007900020AD9EAC394065076EA90620EF051
:100A6000749F2AF8E43403F99003BCE05480602CAE
:100A7000EE6004741080027440906211F0EE600425
:100A800074038001E488828983A3A3A3A3A3A3A3FF
:100A9000F0EE6004790880307907802CEE600474F1
:100AA0002080027480906214F0EE60047403800170
:100AB000E4C0E0E8240CF582E439F583D0E0F0EE00
:100AC0006004790A80027909121BD490620EE480D6
:100AD000059003A67404F0790102100A7900120946
:100AE000F0E97003121BC32279011209F0E97003C7
:100AF000121BD222C082C0839003BC120F2B701530
:100B0000A3120F2B700F9003BA120CD05480FAE985
:100B1000FBEA4B60079003A67404801AE890620019
:100B2000F090039F6009E06402700C74038007E09A
:100B3000640370037402F0D083D0822274F3121B1A
:100B4000D69003BAE0FAA3E01460081460101460B1
:100B500039805712175F120CADA37B80804179005A
:100B6000121781120CAD7B80E92402F9E43AFA12E3
:100B70001E7CFC1919E0FAA3E92403F9E43AFA12FD
:100B80001E7CF9ECA3F0A3E9801CEAF91217EF90A0
:100B900003B3EAF0A3EBF0A3E4120CBCA37B0012B6
:100BA0001E7CA3F0A3E4F0020C679003B3E4F0A36F
:100BB000F0A3F0F50B90047DE0FAA3E0FB020C42F9
:100BC00075090074037808121F2BEA2508F8EB3525
:100BD00009F99003BA120CC6E493C0E0EFFCD0E030
:100BE0006C705DA3E4936E70579003BC120CC6A3A7
:100BF000A3E493C0E0EFFCD0E06C7044888289836A
:100C0000A3A3A3E4936E703888828983A3A3A3A3CC
:100C1000E493F508740193F5099003B3E508F0A394
:100C2000E509F0A37480F088828983A3A3A3A3A31A
:100C3000A3E493F8740193F99003B6E8F0A3E9F004
:100C4000050B850B0890047F120CD0C39AF50CE9B4
:100C50009BF50D7403780C121F5DC3E508950CE439
:100C6000950D5003020BC09003B3E0FCA3E0FDA37D
:100C7000E0FEEC4D4E9003A6700474048029E064FD
:100C80000460259003BEE0FAA3E0FB9003B6E0F811
:100C9000A3E0F9C3EA98EB9950089003B6EAF0A3F1
:100CA000EBF09003A67401F07F06021D7B9003B366
:100CB000EAF0A3EBF0A37480120CBC22F09003B313
:100CC000E0F9A3E0FA22E0FEA3E0FF888289832214
:100CD000E0F8A3E0F9E82274EE121BD6EA2404F847
:100CE000E43BF9880889098882F583E493602590BC
:100CF0000481120CD0FEE9FF8007EE2404FE5001AF
:100D00000F8E828F83E493F8740193F9EA6870027E
:100D1000EB6970E6750C00803F9062147490F0747B
:100D200010120E2A7003750D408E828F83A3A3A329
:100D3000E49355106006E50DD2E0F50DE50D9062E7
:100D400015F0EA906213F0EC240CF582E43DF58393
:100D5000E4F090620EF0050C850882850983E49327
:100D6000F8E50CC3984003020E257A0079051216A7
:100D7000F28A0E8B0FEA450F60DCEA2402F8E435B4
:100D80000FF9880A890B8882F583E493540FF512D2
:100D900090620EF0750D008A828B83A3A3A3A3E457
:100DA000932407F510A3E4933400F511740378102D
:100DB000121F5DAA10851210749F2510F8E43403E9
:100DC000F9E8FCE9FD751001751100E512781012C3
:100DD0001F2BE50E2403F8E4350FF9850A82850BF5
:100DE00083E493A2E74003020D199062117448F066
:100DF0007408120E2A7003750D408E828F83A3A390
:100E0000E49355106006E50DD2E0F50DE50D906216
:100E100012F0EA906210F08C828D83A3A3A3A3A3A7
:100E2000A3A3020D507F0B021D7BF088828983E40F
:100E3000935403640122C082C083120F287010A350
:100E4000120F2B700AA3E064017002A3E060079008
:100E500003A67404800C9003B374A0F0A37403126F
:100E60000F80F0020B3774F4121BD690039FE064DE
:100E70000260149003BC120F2B700CA3120F2B7086
:100E8000069003BBE060099003A67404F0020F23F0
:100E90007A007901121BD49003BAE060717A00F9EC
:100EA0001217818A088B09EA4509605A90039F74DA
:100EB00004F09003BAE09003A0F0750C008508825E
:100EC000850983A3A3A3A3E493F8E50CC398504C2E
:100ED000850C0A74A1250AF8E43403F9E8FEE9FF59
:100EE0008E828F83E4F07A0079041216F28A828B64
:100EF00083A3A3A3E493F88E828F83E06870E71244
:100F00000CD7050C80B79003A67404F0800E9003F4
:100F1000A0F090039F7403F0F91216587A0079023A
:100F2000121BD47F05021D7B9003BAE0F8A3E0F901
:100F3000E8492274F6121BD690039FE064047019EE
:100F40009003B8E064817011120F28700C9003BEFA
:100F5000E064017002A3E060079003A67404801AA5
:100F60009003BCE024A1F508A3E03403F509900345
:100F7000B3E508F0A3E509120F80F07F03021D7BA3
:100F8000F0A3E4F0A304120F8A22F0A3E4F090038C
:100F9000A6042274F7121BD690039FE064047064C9
:100FA0009003B8E06401705C9003BE120F2B705484
:100FB0009003BAE0FB9003BCE0FA9003A0E0F912C2
:100FC00017B98A088B09AE08AF09EE4F6036900357
:100FD000BCE0FA7903121BD49003BAE0C0E090039E
:100FE000BCE024A1F8A3E03403F988828983D0E02F
:100FF000F0EEFAEFFB120CD79003BCE0FA79041282
:101000001BD480069003A67404F07F02021D7BC0EF
:1010100082C0838003121A39A2E840F9A823E85459
:101020000460097823E654FBF6121402A823E8545E
:101030001060097823E654EFF6121420A823E8A2E2
:10104000E05005782354FCF690620EE0FA7404F048
:10105000906214E0A2E0503AE5A8F8C2AF906216A0
:10106000E0F9A3E0E9FBE8A2E792AF8017906228DD
:10107000E0C0E0900393E0F8121112D0E0F090038A
:1010800093E004F0EBFC74FF2C1B0470E0906214FE
:10109000E4F0EA90620EF0E0FD7404F0906211E07A
:1010A000A2E04031900395E0F8900394E068602559
:1010B0007A40900394121155E0906228F0900394C6
:1010C000E004F008900395E06860041AEA70E39089
:1010D00062117401F0ED90620EF0D083D082227420
:1010E000F8121BD6E9FE79008012121112E08A82F2
:1010F0008B83F0900392E00412114A09900392E06E
:10110000F8900393E0686005E9C39E40DD7F01022B
:101110001D7B748528F582E43404F58322C082C0E7
:1011200083E9FC80188A828B83E0C0E090039512EB
:101130001155D0E012114A900395E004F0ECF874D8
:10114000FF281C0470DF79018090F08A828B83A3D2
:10115000AA82AB8322E0F8748528F582E43405F591
:101160008322C082C083900395E0F8900394E068E6
:1011700060047901800279000210DA02100F74FB1A
:10118000121EC57E009006857808121F7B794A12D0
:1011900013B29006857401F0A3F0A37469F0A374F0
:1011A000A5F09003D77808121EF070030E801590FA
:1011B00003DB7808121EF06008E59D541864107077
:1011C00003022000EEF9121329C280D291EEA2E0B0
:1011D00050030212DCAA18AB19120288E97003024C
:1011E00012DCC291851882851983E0C3943C500EAD
:1011F000E0F8743CC398F50895E0F5098006750899
:1012000000750900E4F50AF50B9003DF780C121F56
:101210007B7808790C121ADA790612015112100F34
:10122000120176E9F8740968700779061201518095
:10123000277407686016A2935012E8600874066865
:1012400060030212DCA292400F0212DC75080075E6
:101250000900750A00750B0085080C85090D850AC3
:101260000E850B0F9003C27808121F05E50C450D83
:10127000450E450F70A7D2807907120151800312E5
:10128000100F121162E970F77E007F007401121FC7
:1012900097E4F0A37426F0A3E4F0A3F07401121F06
:1012A000977808121F7B85080C85090D850A0E8525
:1012B0000B0F9003C2780C121F057401121F977850
:1012C0000C121F6CE5084509450A450B70CEA29229
:1012D00050FCA29350F81213AD022000D280D2919C
:1012E000794E1213B2750800750900750A00750B66
:1012F00000790512015112100F120176E9F87409F4
:101300006860EE74016870EE12100F9003E37808C5
:10131000121F059003E77808121E0950EB1213AD57
:101320000220007405121E462274F8121BD6E9FE34
:1013300053BEFBE59DA2E650FA0078F8790100E87B
:1013400024FF18E934FFF9E84970F375C68074800A
:10135000659E70FA43BE049062707408F01213A286
:10136000EE700853F4FEC29043FE017403F5D57588
:10137000D489900396E4F0A374C2F0A37401F0A39F
:10138000E4F0A3F0A3F0A37408F01213C87AFF7B73
:10139000FF1219F453F4FED29043FE011213A2027D
:1013A000110DD28043FD01C29143FE0222D280C2C0
:1013B0009122781075B60FE5B4A2E750FAE5BBC3E9
:1013C0009940F118E870ED22C082C0837A0079015B
:1013D0001217818A828B83A3A3A3A3A3A3A3E4935D
:1013E000A2E69003B2500474018001E4F09003B1CE
:1013F000E4F090620F7403F0E0A2E750FBD083D0DA
:101400008222C082C08390039F7402F0A3E4F09014
:1014100003A6F0790312165875210075220080DDAD
:1014200074F6121BD690620EE0FEE4F0906211E0BA
:10143000FFA2E4501D7480F09003A67407F0E5212C
:1014400045226009852182852283121FA69003A66A
:10145000E4F0EFA2E2500B906211E4F09003A6F0EA
:1014600080669003A6E0F87402687045906216E00A
:10147000FF9003B3121DBBEFF97A207B6212168C2A
:101480007403121E468F089003B612163C121634CF
:101490002F121647E0F8A3E0F9E849600474408091
:1014A000027448906211F0E849600302162A02169D
:1014B000067406687009852182852283121FA69012
:1014C00003A6E060030215B1EFA2E0400302162A72
:1014D0007508B8750903750A007808121EDB7908CB
:1014E0007A207B6212168C7403121E4675210075D9
:1014F00022009003B8E054E0601D24E07003021560
:101500008D24E0607224C0604824E07003021598C6
:1015100024E0606E0215A3A3E014602624FE601D83
:1015200024FE600A24FC601F24FE60208075120ADD
:10153000F49003A6E06404707274608070120AE88C
:1015400080EF120ADC80EA120E6680E5120F9380AB
:10155000E0A3E0600E24FA600F24FE601024FE6019
:1015600011804012090E80C9120B3C80C4120E3645
:1015700080BF120F3380BA7521BF75221B121BBFAB
:1015800080AF7521C175221B121BC180A475215A21
:1015900075221B121B5A809975218A75221B121BFA
:1015A0008A808E9003A67404F0808E74409062113D
:1015B000F09003A6E0F874016870617F029003B6B2
:1015C000E0F8A3E0F9C3E89420E994005007E8F5B7
:1015D0000A7F0A8003750A209003B3121DBBA90A73
:1015E0007A207B621216B77403121E46850A08120F
:1015F0001634250812164712163CEF906211F0E5DA
:101600000AC394205024E521452260098521828562
:101610002283121FA69003A6E4F0800E7405687062
:1016200009852182852283121FA6EE90620EF07F2B
:1016300003021D7B9003B31216E4E922C3E0950870
:10164000F0A3E09400F022F9E43AFA9003B3E9F051
:10165000A3EAF0A3EBF0A32274F7121BD678007470
:10166000A728F582E43403F583E9F008E8C394057C
:1016700040ED780074AC28F582E43403F583E9F09A
:1016800008E8C3940540ED7F02021D7B74F8121B2D
:10169000D6EAFCEBFDE9F87408121F971216DF601A
:1016A000118C828D83E0121EAFE9240109E43AFA1D
:1016B000D8EF7F01021D7B74F8121BD6EAFCEBFD0C
:1016C000E9F87408121F971216DF6011121E7C8C45
:1016D000828D83F0E9240109E43AFAD8EF80D3122D
:1016E00016E4E822E0F9A3E0FAA3E0FB22D083D0DD
:1016F0008222C082C083E9FCEAFD7A007B0080037D
:1017000012173D90039DE0F8A3E0F990047BE06898
:101710007003A3E069602490039EE0F5838882A3B0
:10172000E493F8EC68700D90039DE0FAA3E0FB12DF
:10173000173D8007ED6870C8ED60C580B090039DCF
:10174000E0F8A3E0F5838882E493F890039DE02815
:10175000F8A3E03400F990039DE8F0A3E9F022C07B
:1017600082C0831217707A0079011216F20216ED08
:10177000900479E0F8A3E0F990039DE8F0A3E9F084
:101780002274F7121BD6E9FEEAFF1217707A00796D
:10179000021216F2EA4B601CEE60108A828B83A361
:1017A000A3A3A3A3E4936E70E48009EFF874FF2869
:1017B0001F0470D97F02021D7B74F5121BD6EAFF4D
:1017C0008B087A001217817A0279041216F2EA4B1A
:1017D00060188A828B83A3A3E4936F70EA8A828B5A
:1017E00083A3A3A3E493650870DD7F04021D7B74CB
:1017F000F7121BD674F0121EC5E97A007B00600C4C
:101800001460101460141460180218DB7AF37B0360
:101810000218DB7AF77B030218DB7A1B7B040218C1
:10182000DB90043FE060030218D79003EB740812CA
:101830001F467408121DE8750808F5097808121E7D
:10184000DF7402121F467AE87B07797F1218F27460
:1018500002121E467808121EDF740A121F46740216
:10186000121F3E121C997402121E468B09EA45098A
:1018700070197509007808121EDF7C0C7D787402DF
:10188000121F3E121D357402121E467C287D0085F3
:101890001882851983E5822DF582E43583F583E08E
:1018A000FF743F2CF8E43404F9EF1218E3888289BE
:1018B00083F0EFC41218E3C0E0E824FEF582E934B7
:1018C000FFF583D0E0F00D74FC2CFCEDC3940840D0
:1018D000BE90043F742AF07A3F7B047410121E46B7
:1018E0000217B4540FFA74692AF582E43404F583BC
:1018F000E02274F5121BD68908740F5508F50A7595
:101900000B00740B780A121F2BEA2400F8EB3480CA
:10191000F9E82400E9350BF9E5C7F509A2AFE4338E
:10192000F50AC2AFE508C4540FFAE5C754F84AF502
:10193000C7740B121F97E0FAA3E0FB801C88828912
:1019400083E08C828D83F088828983A3A882A98317
:101950008C828D83A3AC82AD83EAFEEBFFEE24FF85
:101960001AEF34FFFBEE4F70D48509C7E50AA2E0F9
:1019700092AF7F04021D7B74F7121BD6ED90038992
:10198000F0ECA3F0A37462F0A37473F0A3E0541F0F
:10199000F07409121F97E0F508A3E0F509E5083394
:1019A0003354FC90038EF074067808121F5DE5082E
:1019B00090038DF090038F7412F0A37442F075D1F0
:1019C000FE75D601EA906271F0EBA3F0906270E0D0
:1019D000D2E1F0E0A2E740FB7F02021D7BC082C0A3
:1019E00083E9C333906272F0906270E0D2E0F0D08D
:1019F00083D0822274F7121BD675230075240075DC
:101A000025008A268B27EA90620BF08A088B0974DE
:101A1000047808121F5DE508906207F08A088B09B8
:101A200074097808121F5DE508543E906209F0754C
:101A30008B00C2E87F02021D7B74F7121BD6E59D66
:101A4000A2E650FA906206E0FAA2E25035A826E833
:101A500090620BF0F50885270974047808121F5D61
:101A6000E508906207F0852608852709740978083B
:101A7000121F5DE508543E906209F0906201E0D2C9
:101A8000E0F07823EA46F6906202E0F50875090076
:101A900074047808121F2B7823E50846F608E50938
:101AA00046F6906204E0F50875090074097808129A
:101AB0001F2B7824E50946F6EAA2E05003752501BC
:101AC00074065A6003752500E58BA2E55006758BF8
:101AD000DF752500121BD5021A2F080808EAC0E09E
:101AE000EBC0E086F0E7A4FA180986F0E7A42AFA2A
:101AF000180986F0E7A42AFA180986F0E7A42AFA5A
:101B00001986F0E7A4FBE5F02AFA190886F0E7A4A5
:101B10002BFBE5F03AFA190886F0E7A42BFBE5F079
:101B20003AFA18180986F0E7A4C5F02BFBE43AFA54
:101B30001908E7C5F0C6A426F6E5F03BFBE43AFA3F
:101B40001886F0E7A4F6E5F00826F6E43B08F6E48C
:101B50003A08F6D0E0FBD0E0FA22C082C0839003BE
:101B6000B9E0F874226870089003A6E0701A80113A
:101B70007420689003A6700DE0700D121BB19003E5
:101B8000A6740280027404F08043C082C083900374
:101B9000B9E064219003A67013E07013121BB1A387
:101BA0007407F0A3E4F09003A60480027404F080AC
:101BB0001C9003B37496F0A37403F0A3E4F02280A6
:101BC000028000C082C0839003A67404F0D083D04A
:101BD000822280EF22222518C582C0E0E51934FF59
:101BE000C583C0E0E518C3958224F910AF0885834A
:101BF000198582188008858319858218D2AFCEF0A6
:101C0000A3E520F0A37808E608F0A3DEFAEFF0A33E
:101C1000E58124FBF8E608F0A3E608F0A30808E64F
:101C200008F0A3E608F0A315811581D0E0FED0E00E
:101C3000F815811581E8C0E0EEC0E0221201000233
:101C4000020000205104A816090001020301090244
:101C50004300020100801909040000010202010092
:101C600005240010010424020205240600010524B5
:101C70000100010705820340004009040100020A37
:101C80000000000705840240000007050402400030
:101C900000571C00007A1C000074F5121BD6740B50
:101CA000121F97E0F8A3E08015A3AA82AB838C8271
:101CB0008D83A3AC82AD83E824FF18E934FFF9E8F3
:101CC00049601F8C828D83E0F5088A828B83E0F562
:101CD0000AE508650A60D2E50AC39508FA95E0FBB3
:101CE00080047A007B007F04021D7BE47921780761
:101CF000B800028004F709D8FCE490030278C179A7
:101D0000018002F0A3D8FCD9FA7AC27B0390008E3E
:101D100078C479018015E493A3AD82AE838A828B67
:101D200083F0A3AA82AB838D828E83D8E9D9E71290
:101D3000117E121FA174F7121BD6EAF8EBF9740991
:101D4000121F97E0FEA3E0FF80188C828D83E0884D
:101D5000828983F0A3A882A9838C828D83A3AC821D
:101D6000AD838E088F09E50824FF1EE50934FFFFC7
:101D7000E508450970D47F02021D7B85198385180B
:101D800082E0A3FEE0A3F5207808E0A3F608DFFADE
:101D9000E0A3FFE0A3C0E0E0A3C0E0E0A3C0E0E078
:101DA000A3C0E010AF08858218858319800885825A
:101DB00018858319D2AFD083D0822274038000CCDF
:101DC000C0E0EDC0E0E518C39CCCAD1950011D107A
:101DD000AF068C188D1980068C188D19D2AF121D84
:101DE000E8D0E0FDD0E0FC22CAC0E0E0A3C582CC90
:101DF000C582C583CDC583F0A3C582CCC582C5830A
:101E0000CDC583DAE6D0E0CA22C008C3E096F50863
:101E100008A3E096420808A3E096420808A3E096CB
:101E200045087001D3D00822C5822518C582C58314
:101E3000351910AF07F5198582188007F5198582C5
:101E400018D2AFC5832200C0D0251810AF08F518EE
:101E5000500C05198008F51850020519D2AFD0D0E2
:101E6000222518F58210AF08F518400C15198008C6
:101E7000F51840021519D2AF85198322BB0102E77C
:101E800022C082C08389828A83BB0003E08002E48F
:101E900093D083D082226016080808C6C313C618E0
:101EA000C613C618C613C618C613C6D5E0EA22BBA9
:101EB000000EC082C0838A838982F0D083D08222C0
:101EC000BB0101F722251810AF08F518400C1519B1
:101ED0008008F51840021519D2AF227403800474EB
:101EE000028000C0E0F404121E61D0E0121F8A22BA
:101EF000E066701008A3E066700A08A3E06670044C
:101F000008A3E06622E026F608A3E036F608A3E080
:101F100036F608A3E036F622E627F60809E637F695
:101F20000809E637F60809E637F622700422600D44
:101F300018C6C333C608C633C6D5E0F41822251820
:101F4000FAE43519FB222518FCE43519FD2275D079
:101F50000075813F751802751903021CEB600C08AF
:101F6000C6C313C618C613C6D5E0F422E6F008A30C
:101F7000E6F008A3E6F008A3E6F022E0F608A3E006
:101F8000F608A3E0F608A3E0F622CAC0E0E6F0A354
:101F900008DAFAD0E0FA222518F582E43519F5833B
:101FA0002200000080FBE473FFFFFFFFFFFFFFFF45
:101FB000FFFFFFFFFFFFFFFFFFFFFFFFFFFFFFFF31
:101FC000FFFFFFFFFFFFFFFFFFFFFFFFFFFFFFFF21
:101FD000FFFFFFFFFFFFFFFFFFFFFFFFFFFFFFFF11
:101FE000FFFFFFFFFFFFFFFFFFFFFFFFFFFFFFFF01
:0A1FF600850609433886000000004C
:020000040003F7
:01FFF000F020
:0400000500001F4E8A
:00000001FF
