:020000040000FA
:100000000212FC022003FFFFFFFFFF02200BFFFF95
:10001000FFFFFF020E5DFFFFFFFFFF02201BFFFF40
:10002000FFFFFF022023FFFFFFFFFF02202BFFFF48
:10003000FFFFFF022033FFFFFFFFFF020EA0FFFFC5
:10004000FFFFFF022043FFFFFFFFFF02204BFFFFE8
:10005000FFFFFF022053FFFFFFFFFF02205BFFFFB8
:10006000FFFFFF022063FFFFFFFFFF02206BFFFF88
:10007000FFFFFF022073FFFFFFFFFF02207BFFFF58
:10008000FFFFFF022083FFFFFFFFFF02208BFFFF28
:10009000FFFF70DFFFFF040000000002000000C847
:1000A0000300030369A5020269A501000000000026
:1000B00004003273000074F8121043900393E06060
:1000C0001590030274FEF0900304744DF0A37405C0
:1000D000F07A011206747F0102116074F712104366
:1000E00074FF1212687E00801F851882851983E0D4
:1000F00064FE70069003877401F085188285198369
:10010000E0F8900384E068F07C017D00AA18AB1948
:10011000120E188B09EA450970030201E98518825D
:10012000851983E064EF70027E07E0C0E0900387EA
:10013000E0F8900385E0FAE82AF8E434001206C7F4
:10014000D0E0F0900387E060A014600E14602A14E1
:10015000603A14605014606680A0900384E4F085D7
:100160001882851983E0900386F0C39480900387FA
:100170004003E4808474028080851882851983E0BE
:10018000900382F090038774030200F9851882853A
:100190001983E0900383F0900386E0601990038751
:1001A00074040200F9900385E004F0F8900386E0FF
:1001B0006860030200FA90038774050200F9900357
:1001C00085E4F0900387F0900384E0F88518828539
:1001D0001983E06860030200FA900382E0644D60D6
:1001E000030200FA12031E8002EEF97401121234A7
:1001F0007F0202116074F712104374FB121268EA56
:10020000FEEBFF75080475090078081212CC740221
:100210001212E57A907B007904120EC17402121258
:1002200034120666121336E0687003A3E069701298
:10023000851882851983E0F47003A3E0F46003025B
:1002400002FE74041212DD1206D38A088B09A80874
:10025000A9097402121336E8F0A3E9F0740412132A
:1002600036E0600879011200B6020317851882850E
:100270001983E0687003A3E0697076851882851998
:1002800083E0F47003A3E0F470197402121336745F
:1002900010F0A37420F08518828519837410F0A3E0
:1002A0007420F075080175090078081212CC7402E8
:1002B0001212E57A247B08120F467402121234756A
:1002C000080478081212CC74021212E57A907B00AE
:1002D0007904120EC1740212123412066612133619
:1002E000E0687003A3E069700479028006790480F5
:1002F0000279031200B68E828F83741E80058E826F
:100300008F83E4F0120666121336E0687003A3E0F0
:1003100069700479018002790074050201ED74EDC1
:1003200012104374F8121268900307E0FA90030663
:10033000E0FB8B08EAF8E4C8F9EB28FEE93408FF93
:10034000751001880C750D068F0974027808121259
:1003500093C39508F8E49509F9740228F50E74031F
:1003600039F50F8E088F09740978081212EDE50827
:10037000F511EE2410F508E43FF509EEF50AEF5407
:1003800001F50B900383E0146054147003020453CE
:100390001470030204CE14601024FE700302058959
:1003A000147003020639020649750D03794E120CCA
:1003B0005890030712065C7402F0A3744012065AA8
:1003C000740812065AF0A3F0751012AA10A90C12A4
:1003D0000674A90D74081212347F0C021160750D99
:1003E00004794E120C58EE450B7005A911120FAC92
:1003F000C3EE9425EF9408503CC3E5089424E50926
:1004000094084031E50E2496F8E50F3420F98882EF
:100410008983E0701BA3AA82AB83E07013900388EA
:100420007401F08882898374A5F08A828B838004AA
:10043000900388E4F075081075090078081212CC52
:100440007C087D03EEFAEFFB120F467402121234A1
:100450000203CB750D05E511C394794006750C01B7
:100460000203CB75124075130078121212CC7C096E
:100470007D037402780A121293AA0AAB0BA9111217
:100480000EC17402121234900307E0A3F090030629
:10049000E0A3F0751043C3EE9425EF9408400302E7
:1004A00003CBC3E5089424E509940850030203CB69
:1004B000900388E070030203CBE50E2497F8E50F64
:1004C0003420F988828983E4F0A3F00203CB750815
:1004D0000475090078081212CC74021212E57A90A1
:1004E0007B007904120EC1740212123474021213CA
:1004F00036E0F8A3E0F9851882851983E068700377
:10050000A3E069851882851983700BE0F47003A35A
:10051000E0F470578009E0F47003A3E0F4700D85F7
:1005200018828519837410F0A37420F012066612E5
:100530001336E8F0A3E9F075080178081212CC74BC
:10054000021212E57A247B08120F4674021212344A
:1005500075080478081212CC74021212E57A907BA6
:10056000007904120EC174021212341206661213BC
:1005700036E0687003A3E0697006750D010203CBD5
:10058000750D02750C070203CB900391E0600764C0
:100590000260030203CBEAFF7A017900120674E0DD
:1005A000600302062D8003120D19120D23E970F766
:1005B000740412133612064E74041213367808129D
:1005C000131A85080C85090D850A0E850B0F9005F9
:1005D000A2780C1212B97404121336780C12130B91
:1005E000E5084509450A450B70CE8EC2E5C554E0C5
:1005F0004FF5C5740412133612064E7404121336E6
:10060000780812131A85080C85090D850A0E850BCA
:100610000F9005A2780C1212B97404121336780CDC
:1006200012130BE5084509450A450B70CE7A01798E
:100630000012067479080203D4EB900393F0700360
:100640000203CB750D090203CB79060203D4E4F053
:10065000A37426F0A3E4F0A3F022F0A3E4F0A3F047
:10066000A3F0A3F0A322851882851983E0F8A3E004
:10067000F974022274F6121043EAFE900305E0D2E8
:10068000E7F0E9A3F0EE900303F08E0A74042AFE6B
:100690007A028004E0620A0AEAF83395E01206C79B
:1006A0008E08C3E89508E99400A2D265D03340E4EF
:1006B000E50AF0740128FC3395E0FD7A027B031211
:1006C0000E487F03021160F9740228F58274033921
:1006D000F5832274E91210437582007583FE1211AE
:1006E000FB8A168B177514007515008A828B83E4BC
:1006F000F0900391E07006D2AAD2AF800464027039
:100700000579001200B6750C00750D20750E007588
:100710000F00900391E0600464027015120D19122D
:1007200000DBE9F87409686003020803790012002D
:10073000B675080075090278081212CC74021212FC
:10074000E5850C08850D09AA08E5095407FB850E07
:100750000A850F0B740B780812124FA908120EC1EC
:1007600074021212347E007F009005AAC0828E109F
:10077000EFF5113395E0F512F513850C08850D0999
:10078000850E0A850F0B780879101212A69005A61F
:1007900078081212B9758305D08278081211DC50DE
:1007A0001D851882851983E5822EF582E5833FF544
:1007B00083E0F9AA14AB151208328A148B150EEED9
:1007C00070010FC3EF940240A09005AE780C121296
:1007D000B99005B2780C1211DC40030207127900BF
:1007E000AA14AB1512083279001208328B15900347
:1007F00091E07004C2AFC2AAEA451570277AA57BC2
:10080000A58021E8700302073174066870030207AF
:100810003174076870030207318516828517837467
:1008200001F080BA7582007583021211FB7F1002FD
:100830001160C008C0097C088A088B09740F780809
:100840001212EDEA25E0FAEB33FBE9A2E75004745B
:10085000014AFAE508A2E0500874216AFA74106BA4
:10086000FBE9C333F91CEC70CFD009D0082274F730
:1008700012104378007900802374942508F582E4EF
:100880003403F583E08A828B83F09004141209F319
:100890004005900414E4F008E87001099004141273
:1008A000095D6007C3E89CE99D40CEE8FAE9FB7F5B
:1008B0000202116074F5121043900498E0FEA3E068
:1008C000FF8F08EEC39508F895E0F9EFC39EE85056
:1008D0000B120ADA701178007900801B247F500116
:1008E00009C39CE99D50EF7A007B008041E004F051
:1008F000D2E908E8700109C3E89CE99D502C8A827E
:100900008B83E0C0E0900499E0FE74182EF582E439
:100910003404F583D0E0120ACA90049AE4F09004FB
:1009200099E0C3947F40C6E480C5E8FAE9FB7F0400
:1009300002116074F7121043C2E990049812095D25
:10094000601874182508F582E43404F583E0F5C1D5
:10095000900498120AF14002E4F00208AFE0F508B2
:10096000A3E065082274F71210437800790090051F
:100970001DE07063A3E0705F75F900C28FC284A2AE
:100980008340FCA28F4004A28350F8E5F9C28FA2F5
:10099000835004D2848040C0E0E0FE749D2EF58236
:1009A000E43404F583D0E0F090051E120AF140D340
:1009B000E4F080CF749D2508F582E43404F583E0EB
:1009C0008A828B83F090051D1209F3400590051D66
:1009D000E4F008E870010990051D12095D6007C385
:1009E000E89CE99D40CEE8497006E4F090051DF0D2
:1009F0000208ABE004120ACEC394802274F81210ED
:100A0000439005A0E0FF8F82A88290059FE0FEEF53
:100A1000C39EE0500DC398F895E0F9120AD97018FA
:100A20008012C398F895E0F9E8247F500109C39C2F
:100A3000E99D4004EC4D70077A007B00020AC58AEC
:100A4000828B83E0F5F9A3AA82AB837801790080D9
:100A500008E004F008E8700109C3E89CE99D50270C
:100A60008A828B83E0C0E09005A0E0FE741F2EF523
:100A700082E43405F583D0E0120ACA9005A0E0C3F1
:100A8000947F40CDE480CCC28FA28340FCC284A27C
:100A90008F4004A28350F890059F120AE4E0F5F914
:100AA000C28F90059FE0FAA3E06A90059F7005123F
:100AB0000AE48005120AF14002E4F0A28350D0D289
:100AC00084E8FAE9FB7F01021160120ACE22F08A63
:100AD000828B83A3AA82AB8322E824FF18E934FF28
:100AE000F9E84922E0FA741F2AF582E43405F58317
:100AF00022E004F0C394802274FB1212687E0090FE
:100B000005CA780812131A9005CA7401F0A3F0A35D
:100B10007469F0A374A5F09005B6780812127E707F
:100B2000030E80159005BA780812127E6008E59DC4
:100B3000541864107003022000120C7EEEA2E050E4
:100B400003020BFBAA18AB191201F5E97003020BA3
:100B5000FB851882851983E0C3943C500CE0F8743F
:100B60003CC398FA95E0FB80047A007B00120D3CB0
:100B7000E97003020BFB900391E06401700C75F8BF
:100B800000C2AB539AF7D2EA805E79071200B680B2
:100B900003120D19120D23E970F77401121336E4D4
:100BA000F0A37426F0A3E4F0A3F0740112133678D6
:100BB0000812131A85080C85090D850A0E850B0F7E
:100BC0009005A2780C1212B97401121336780C1227
:100BD000130BE5084509450A450B70CE758600C222
:100BE000AAC28B539AFBC2E990000174CDF0022097
:100BF00000C2AF75C9AB75C95B80FE750800750989
:100C000000750A00750B00900391E0701BD2AAD208
:100C1000AF79051200B6E07003120D191200DBE97E
:100C2000F8740968700980E9794E120C5880ED74E7
:100C3000016870E2E07017120D199005BE78081275
:100C400012B99005C278081211DC50EBC2AAC2AFEB
:100C500075C9AB75C95B80FEC082C08378109005F2
:100C6000A1E0C399501575B60FE5B4A2E750FAE5B7
:100C7000BBC39940F118E870EDE9F0020D37C0826E
:100C8000C08353BEFBE59DA2E650FA0078F87901D7
:100C900000120AD970FA75C6807480659E70FA4396
:100CA000BE049062707408F0794A120C58900001EA
:100CB00074F5F07403F5D575D489A2A0E4339003DC
:100CC00091F0A2E05029D28453F3F753F3EF53FD90
:100CD000F743FD10538FF753F7DF43FC2043F10236
:100CE00053F5DF75F82043F4F0D2FED2AB802853E1
:100CF000FF3F85FFFF53F1FE43F30C53F2F375867C
:100D00008075C48090049BE4F0A3F075C2D875C5CB
:100D10000B75C402438640801E8003120933A2E98A
:100D200040F922C082C083900498E0F8A3E0686094
:100D300004790180027900D083D0822274F11210EC
:100D40004374FF1212687E00900391E06401706B9F
:100D5000C2849003927401F07508388E098E0A8E51
:100D60000B7C017D00AA18AB19120E188B0DEA45F9
:100D70000D6018851882851983E06410602CE0648A
:100D8000EF70088E088E098E0A8E0B85080C850977
:100D90000D850A0E850B0F9005A278081212B9E591
:100DA0000C450D450E450F70330E900391E0640124
:100DB0007056D284900392E4F08051D2AAD2AF8AC6
:100DC000088B09E4F50AF50B9005C6780C12131A86
:100DD0007808790C120FC379061200B6900391E0DF
:100DE0006003020D61120D191200DBE9F874096845
:100DF000700779061200B680927407686085E86013
:100E00008A74066870A48083C2AFC2AAEEF9740126
:100E10001212347F08021160C082C083900391E0F7
:100E2000700512086E801E900392E06015A28F502C
:100E30000BE5F98A828B83F07A0180027A007B00CD
:100E40008003120965020D37C082C083900391E0D0
:100E500070051208B480031209FC020D37C0E0745B
:100E6000F21210A9900001E064CD700512201380E9
:100E70002AE064F57024E5C1C28BC0E0900415E05F
:100E8000F8749428F582E43403F583D0E0F09004FC
:100E900015120AF14005E4F08001007F01021108FB
:100EA000C0E074F21210A9900001E064CD70051248
:100EB000203B800BE064F57005120933800100804F
:100EC000DA74F51210438908740F5508F50A750B8A
:100ED00000740B780A121293EA2400F8EB3480F9BC
:100EE000E82400E9350BF9E5C7F509A2AFE433F5CD
:100EF0000AC2AFE508C4540FFAE5C754F84AF5C76B
:100F0000740B121336E0FAA3E0FB801C88828983FD
:100F1000E08C828D83F088828983A3A882A9838C48
:100F2000828D83A3AC82AD83EAFEEBFFEE24FF1A31
:100F3000EF34FFFBEE4F70D48509C7E50AA2E092BB
:100F4000AF7F0402116074F7121043ED900389F033
:100F5000ECA3F0A37462F0A37473F0A3E0541FF049
:100F60007409121336E0F508A3E0F509E5083333F8
:100F700054FC90038EF0740678081212EDE5089088
:100F8000038DF090038F7412F0A37442F075D1FEBC
:100F900075D601EA906271F0EBA3F0906270E0D236
:100FA000E1F0E0A2E740FB7F02021160C082C08353
:100FB000E9C333906272F0906270E0D2E0F0D083C7
:100FC000D08222080808EAC0E0EBC0E086F0E7A47F
:100FD000FA180986F0E7A42AFA180986F0E7A42A85
:100FE000FA180986F0E7A42AFA1986F0E7A4FBE5C7
:100FF000F02AFA190886F0E7A42BFBE5F03AFA1973
:101000000886F0E7A42BFBE5F03AFA18180986F0F9
:10101000E7A4C5F02BFBE43AFA1908E7C5F0C6A42B
:1010200026F6E5F03BFBE43AFA1886F0E7A4F6E58D
:10103000F00826F6E43B08F6E43A08F6D0E0FBD0E8
:10104000E0FA222518C582C0E0E51934FFC583C047
:10105000E0E518C3958224F910AF088583198582CD
:10106000188008858319858218D2AFCEF0A3E520B9
:10107000F0A37808E608F0A3DEFAEFF0A3E58124F8
:10108000FBF8E608F0A3E608F0A30808E608F0A3DA
:10109000E608F0A315811581D0E0FED0E0F81581B7
:1010A0001581E8C0E0EEC0E022C0D02518C582C09E
:1010B000E0E51934FFC583C0E0E518C3958224F349
:1010C00010AF088583198582188008858319858269
:1010D00018D2AFC8F0A3E9F0A3EAF0A3EBF0A3792C
:1010E00008E709F0A3D8FAECF0A3EDF0A3EEF0A323
:1010F000EFF0A3D0E0F0A3D0E0F0A3D0E0F0A3E5C0
:1011000020F0A3E5F0F0A322851983851882E0C0C2
:10111000E0A3E0F9A3E0FAA3E0FBA37808E0F60877
:10112000A3DFFAE0FCA3E0FDA3E0FEA3E0FFA3E061
:10113000C0E0A3E0C0E0A3E0F5D0A3E0F520A3E089
:10114000A3F5F010AF088583198582188008858380
:1011500019858218D2AFD082D083D0E0F8D0E032A7
:10116000851983851882E0A3FEE0A3F5207808E0C6
:10117000A3F608DFFAE0A3FFE0A3C0E0E0A3C0E02D
:10118000E0A3C0E0E0A3C0E010AF0885821885832B
:10119000198008858218858319D2AFD083D0822226
:1011A000E490030278A179038002F0A3D8FCD9FA75
:1011B0007AA27B0590008E782979018015E493A3AB
:1011C000AD82AE838A828B83F0A3AA82AB838D82A9
:1011D0008E83D8E9D9E7120AF8121340C008C3E099
:1011E00096F50808A3E096420808A3E0964208088E
:1011F000A3E09645087001D3D00822C5822518C502
:1012000082C583351910AF07F5198582188007F557
:1012100019858218D2AFC583222518F58210AF0830
:10122000F518400C15198008F51840021519D2AFB1
:101230008519832200C0D0251810AF08F518500C6E
:1012400005198008F51850020519D2AFD0D02260D8
:1012500016080808C6C313C618C613C618C613C690
:1012600018C613C6D5E0EA22251810AF08F51840B5
:101270000C15198008F51840021519D2AF22E06646
:10128000701008A3E066700A08A3E066700408A363
:10129000E06622700422600D18C6C333C608C63348
:1012A000C6D5E0F41822E627F60809E637F608095D
:1012B000E637F60809E637F622E026F608A3E03618
:1012C000F608A3E036F608A3E036F62274028000A2
:1012D000C0E0F404121219D0E0121329222518FAE2
:1012E000E43519FB222518FCE43519FD22600C08B1
:1012F000C6C313C618C613C6D5E0F42275D0007550
:10130000813F7518027519030211A0E6F008A3E6E3
:10131000F008A3E6F008A3E6F022E0F608A3E0F662
:1013200008A3E0F608A3E0F622CAC0E0E6F0A308AE
:10133000DAFAD0E0FA222518F582E43519F583228D
:1013400000000080FBFFFFFFFFFFFFFFFFFFFFFF2D
:10135000FFFFFFFFFFFFFFFFFFFFFFFFFFFFFFFF9D
:10136000FFFFFFFFFFFFFFFFFFFFFFFFFFFFFFFF8D
:10137000FFFFFFFFFFFFFFFFFFFFFFFFFFFFFFFF7D
:10138000FFFFFFFFFFFFFFFFFFFFFFFFFFFFFFFF6D
:0A1FF600CA05094338860000000008
:020000040003F7
:01FFF000F020
:04000005000012FCE9
:00000001FF
