:020000040000FA
:100000000212FC022003FFFFFFFFFF02200BFFFF95
:10001000FFFFFF020E5DFFFFFFFFFF02201BFFFF40
:10002000FFFFFF022023FFFFFFFFFF02202BFFFF48
:10003000FFFFFF022033FFFFFFFFFF020EA0FFFFC5
:10004000FFFFFF022043FFFFFFFFFF02204BFFFFE8
:10005000FFFFFF022053FFFFFFFFFF02205BFFFFB8
:10006000FFFFFF022063FFFFFFFFFF02206BFFFF88
:10007000FFFFFF022073FFFFFFFFFF02207BFFFF58
:10008000FFFFFF022083FFFFFFFFFF02208BFFFF28
:10009000FFFF70DFFFFF040000000002000000C847
:1000A0000300030369A5020269A501000000000026
:1000B00004003273000074F8121043900393E06060
:1000C0001590030274FEF0900304744DF0A37405C0
:1000D000F07A011206747F0102116074F712104366
:1000E00074FF1212687E00801F851882851983E0D4
:1000F00064FE70069003877401F085188285198369
:10010000E0F8900384E068F07C017D00AA18AB1948
:10011000120E188B09EA450970030201E98518825D
:10012000851983E064EF70027E07E0C0E0900387EA
:10013000E0F8900385E0FAE82AF8E434001206C7F4
:10014000D0E0F0900387E060A014600E14602A14E1
:10015000603A14605014606680A0900384E4F085D7
:100160001882851983E0900386F0C39480900387FA
:100170004003E4808474028080851882851983E0BE
:10018000900382F090038774030200F9851882853A
:100190001983E0900383F0900386E0601990038751
:1001A00074040200F9900385E004F0F8900386E0FF
:1001B0006860030200FA90038774050200F9900357
:1001C00085E4F0900387F0900384E0F88518828539
:1001D0001983E06860030200FA900382E0644D60D6
:1001E000030200FA12031E8002EEF97401121234A7
:1001F0007F0202116074F712104374FB121268EA56
:10020000FEEBFF75080475090078081212CC740221
:100210001212E57A907B007904120EC17402121258
:1002200034120666121336E0687003A3E069701298
:10023000851882851983E0F47003A3E0F46003025B
:1002400002FE74041212DD1206D38A088B09A80874
:10025000A9097402121336E8F0A3E9F0740412132A
:1002600036E0600879011200B6020317851882850E
:100270001983E0687003A3E0697076851882851998
:1002800083E0F47003A3E0F470197402121336745F
:1002900010F0A37420F08518828519837410F0A3E0
:1002A0007420F075080175090078081212CC7402E8
:1002B0001212E57A247B08120F467402121234756A
:1002C000080478081212CC74021212E57A907B00AE
:1002D0007904120EC1740212123412066612133619
:1002E000E0687003A3E069700479028006790480F5
:1002F0000279031200B68E828F83741E80058E826F
:100300008F83E4F0120666121336E0687003A3E0F0
:1003100069700479018002790074050201ED74EDC1
:1003200012104374F8121268900307E0FA90030663
:10033000E0FB8B08EAF8E4C8F9EB28FEE93408FF93
:10034000751001880C750D068F0974027808121259
:1003500093C39508F8E49509F9740228F50E74031F
:1003600039F50F8E088F09740978081212EDE50827
:10037000F511EE2410F508E43FF509EEF50AEF5407
:1003800001F50B900383E0146054147003020453CE
:100390001470030204CE14601024FE700302058959
:1003A000147003020639020649750D03794E120CCA
:1003B0005890030712065C7402F0A3744012065AA8
:1003C000740812065AF0A3F0751012AA10A90C12A4
:1003D0000674A90D74081212347F0C021160750D99
:1003E00004794E120C58EE450B7005A911120FAC92
:1003F000C3EE9425EF9408503CC3E5089424E50926
:1004000094084031E50E2496F8E50F3420F98882EF
:100410008983E0701BA3AA82AB83E07013900388EA
:100420007401F08882898374A5F08A828B838004AA
:10043000900388E4F075081075090078081212CC52
:100440007C087D03EEFAEFFB120F467402121234A1
:100450000203CB750D05E511C394794006750C01B7
:100460000203CB75124075130078121212CC7C096E
:100470007D037402780A121293AA0AAB0BA9111217
:100480000EC17402121234900307E0A3F090030629
:10049000E0A3F0751043C3EE9425EF9408400302E7
:1004A00003CBC3E5089424E509940850030203CB69
:1004B000900388E070030203CBE50E2497F8E50F64
:1004C0003420F988828983E4F0A3F00203CB750815
:1004D0000475090078081212CC74021212E57A90A1
:1004E0007B007904120EC1740212123474021213CA
:1004F00036E0F8A3E0F9851882851983E068700377
:10050000A3E069851882851983700BE0F47003A35A
:10051000E0F470578009E0F47003A3E0F4700D85F7
:1005200018828519837410F0A37420F012066612E5
:100530001336E8F0A3E9F075080178081212CC74BC
:10054000021212E57A247B08120F4674021212344A
:1005500075080478081212CC74021212E57A907BA6
:10056000007904120EC174021212341206661213BC
:1005700036E0687003A3E0697006750D010203CBD5
:10058000750D02750C070203CB900391E0600764C0
:100590000260030203CBEAFF7A017900120674E0DD
:1005A000600302062D8003120D19120D23E970F766
:1005B000740412133612064E74041213367808129D
:1005C000131A85080C85090D850A0E850B0F9005F9
:1005D000A2780C1212B97404121336780C12130B91
:1005E000E5084509450A450B70CE8EC2E5C554E0C5
:1005F0004FF5C5740412133612064E7404121336E6
:10060000780812131A85080C85090D850A0E850BCA
:100610000F9005A2780C1212B97404121336780CDC
:1006200012130BE5084509450A450B70CE7A01798E
:100630000012067479080203D4EB900393F0700360
:100640000203CB750D090203CB79060203D4E4F053
:10065000A37426F0A3E4F0A3F022F0A3E4F0A3F047
:10066000A3F0A3F0A322851882851983E0F8A3E004
:10067000F974022274F6121043EAFE900305E0D2E8
:10068000E7F0E9A3F0EE900303F08E0A74042AFE6B
:100690007A028004E0620A0AEAF83395E01206C79B
:1006A0008E08C3E89508E99400A2D265D03340E4EF
:1006B000E50AF0740128FC3395E0FD7A027B031211
:1006C0000E487F03021160F9740228F58274033921
:1006D000F5832274E91210437582007583FE1211AE
:1006E000FB8A168B177514007515008A828B83E4BC
:1006F000F0900391E07006D2AAD2AF800464027039
:100700000579001200B6750C00750D20750E007588
:100710000F00900391E0600464027015120D19122D
:1007200000DBE9F87409686003020803790012002D
:10073000B675080075090278081212CC74021212FC
:10074000E5850C08850D09AA08E5095407FB850E07
:100750000A850F0B740B780812124FA908120EC1EC
:1007600074021212347E007F009005AAC0828E109F
:10077000EFF5113395E0F512F513850C08850D0999
:10078000850E0A850F0B780879101212A69005A61F
:1007900078081212B9758305D08278081211DC50DE
:1007A0001D851882851983E5822EF582E5833FF544
:1007B00083E0F9AA14AB151208328A148B150EEED9
:1007C00070010FC3EF940240A09005AE780C121296
:1007D000B99005B2780C1211DC40030207127900BF
:1007E000AA14AB1512083279001208328B15900347
:1007F00091E07004C2AFC2AAEA451570277AA57BC2
:10080000A58021E8700302073174066870030207AF
:100810003174076870030207318516828517837467
:1008200001F080BA7582007583021211FB7F1002FD
:100830001160C008C0097C088A088B09740F780809
:100840001212EDEA25E0FAEB33FBE9A2E75004745B
:10085000014AFAE508A2E0500874216AFA74106BA4
:10086000FBE9C333F91CEC70CFD009D0082274F730
:1008700012104378007900802374942508F582E4EF
:100880003403F583E08A828B83F09004141209F319
:100890004005900414E4F008E87001099004141273
:1008A000095D6007C3E89CE99D40CEE8FAE9FB7F5B
:1008B0000202116074F5121043900498E0FEA3E068
:1008C000FF8F08EEC39508F895E0F9EFC39EE85056
:1008D0000B120ADA701178007900801B247F500116
:1008E00009C39CE99D50EF7A007B008041E004F051
:1008F000D2E908E8700109C3E89CE99D502C8A827E
:100900008B83E0C0E0900499E0FE74182EF582E439
:100910003404F583D0E0120ACA90049AE4F09004FB
:1009200099E0C3947F40C6E480C5E8FAE9FB7F0400
:1009300002116074F7121043C2E990049812095D25
:10094000601874182508F582E43404F583E0F5C1D5
:10095000900498120AF14002E4F00208AFE0F508B2
:10096000A3E065082274F71210437800790090051F
:100970001DE07063A3E0705F75F900C28FC284A2AE
:100980008340FCA28F4004A28350F8E5F9C28FA2F5
:10099000835004D2848040C0E0E0FE749D2EF58236
:1009A000E43404F583D0E0F090051E120AF140D340
:1009B000E4F080CF749D2508F582E43404F583E0EB
:1009C0008A828B83F090051D1209F3400590051D66
:1009D000E4F008E870010990051D12095D6007C385
:1009E000E89CE99D40CEE8497006E4F090051DF0D2
:1009F0000208ABE004120ACEC394802274F81210ED
:100A0000439005A0E0FF8F82A88290059FE0FEEF53
:100A1000C39EE0500DC398F895E0F9120AD97018FA
:100A20008012C398F895E0F9E8247F500109C39C2F
:100A3000E99D4004EC4D70077A007B00020AC58AEC
:100A4000828B83E0F5F9A3AA82AB837801790080D9
:100A500008E004F008E8700109C3E89CE99D50270C
:100A60008A828B83E0C0E09005A0E0FE741F2EF523
:100A700082E43405F583D0E0120ACA9005A0E0C3F1
:100A8000947F40CDE480CCC28FA28340FCC284A27C
:100A90008F4004A28350F890059F120AE4E0F5F914
:100AA000C28F90059FE0FAA3E06A90059F7005123F
:100AB0000AE48005120AF14002E4F0A28350D0D289
:100AC00084E8FAE9FB7F01021160120ACE22F08A63
:100AD000828B83A3AA82AB8322E824FF18E934FF28
:100AE000F9E84922E0FA741F2AF582E43405F58317
:100AF00022E004F0C394802274FB1212687E0090FE
:100B000005CA780812131A9005CA7401F0A3F0A35D
:100B10007469F0A374A5F09005B6780812127E707F
:100B2000030E80159005BA780812127E6008E59DC4
:100B3000541864107003022000120C7EEEA2E050E4
:100B400003020BFBAA18AB191201F5E97003020BA3
:100B5000FB851882851983E0C3943C500CE0F8743F
:100B60003CC398FA95E0FB80047A007B00120D3CB0
:100B7000E97003020BFB900391E06401700C75F8BF
:100B800000C2AB539AF7D2EA805E79071200B680B2
:100B900003120D19120D23E970F77401121336E4D4
:100BA000F0A37426F0A3E4F0A3F0740112133678D6
:100BB0000812131A85080C85090D850A0E850B0F7E
:100BC0009005A2780C1212B97401121336780C1227
:100BD000130BE5084509450A450B70CE758600C222
:100BE000AAC28B539AFBC2E990000174CDF0022097
:100BF00000C2AF75C9AB75C95B80FE750800750989
:100C000000750A00750B00900391E0701BD2AAD208
:100C1000AF79051200B6E07003120D191200DBE97E
:100C2000F8740968700980E9794E120C5880ED74E7
:100C3000016870E2E07017120D199005BE78081275
:100C400012B99005C278081211DC50EBC2AAC2AFEB
:100C500075C9AB75C95B80FEC082C08378109005F2
:100C6000A1E0C399501575B60FE5B4A2E750FAE5B7
:100C7000BBC39940F118E870EDE9F0020D37C0826E
:100C8000C08353BEFBE59DA2E650FA0078F87901D7
:100C900000120AD970FA75C6807480659E70FA4396
:100CA000BE049062707408F0794A120C58900001EA
:100CB00074F5F07403F5D575D489A2A0E4339003DC
:100CC00091F0A2E05029D28453F3F753F3EF53FD90
:100CD000F743FD10538FF753F7DF43FC2043F10236
:100CE00053F5DF75F82043F4F0D2FED2AB802853E1
:100CF000FF3F85FFFF53F1FE43F30C53F2F375867C
:100D00008075C48090049BE4F0A3F075C2D875C5CB
:100D10000B75C402438640801E8003120933A2E98A
:100D200040F922C082C083900498E0F8A3E0686094
:100D300004790180027900D083D0822274F11210EC
:100D40004374FF1212687E00900391E06401706B9F
:100D5000C2849003927401F07508388E098E0A8E51
:100D60000B7C017D00AA18AB19120E188B0DEA45F9
:100D70000D6018851882851983E06410602CE0648A
:100D8000EF70088E088E098E0A8E0B85080C850977
:100D90000D850A0E850B0F9005A278081212B9E591
:100DA0000C450D450E450F70330E900391E0640124
:100DB0007056D284900392E4F08051D2AAD2AF8AC6
:100DC000088B09E4F50AF50B9005C6780C12131A86
:100DD0007808790C120FC379061200B6900391E0DF
:100DE0006003020D61120D191200DBE9F874096845
:100DF000700779061200B680927407686085E86013
:100E00008A74066870A48083C2AFC2AAEEF9740126
:100E10001212347F08021160C082C083900391E0F7
:100E2000700512086E801E900392E06015A28F502C
:100E30000BE5F98A828B83F07A0180027A007B00CD
:100E40008003120965020D37C082C083900391E0D0
:100E500070051208B480031209FC020D37C0E0745B
:100E6000F21210A9900001E064CD700512201380E9
:100E70002AE064F57024E5C1C28BC0E0900415E05F
:100E8000F8749428F582E43403F583D0E0F09004FC
:100E900015120AF14005E4F08001007F01021108FB
:100EA000C0E074F21210A9900001E064CD70051248
:100EB000203B800BE064F57005120933800100804F
:100EC000DA74F51210438908740F5508F50A750B8A
:100ED00000740B780A121293EA2400F8EB3480F9BC
:100EE000E82400E9350BF9E5C7F509A2AFE433F5CD
:100EF0000AC2AFE508C4540FFAE5C754F84AF5C76B
:100F0000740B121336E0FAA3E0FB801C88828983FD
:100F1000E08C828D83F088828983A3A882A9838C48
:100F2000828D83A3AC82AD83EAFEEBFFEE24FF1A31
:100F3000EF34FFFBEE4F70D48509C7E50AA2E092BB
:100F4000AF7F0402116074F7121043ED900389F033
:100F5000ECA3F0A37462F0A37473F0A3E0541FF049
:100F60007409121336E0F508A3E0F509E5083333F8
:100F700054FC90038EF0740678081212EDE5089088
:100F8000038DF090038F7412F0A37442F075D1FEBC
:100F900075D601EA906271F0EBA3F0906270E0D236
:100FA000E1F0E0A2E740FB7F02021160C082C08353
:100FB000E9C333906272F0906270E0D2E0F0D083C7
:100FC000D08222080808EAC0E0EBC0E086F0E7A47F
:100FD000FA180986F0E7A42AFA180986F0E7A42A85
:100FE000FA180986F0E7A42AFA1986F0E7A4FBE5C7
:100FF000F02AFA190886F0E7A42BFBE5F03AFA1973
:101000000886F0E7A42BFBE5F03AFA18180986F0F9
:10101000E7A4C5F02BFBE43AFA1908E7C5F0C6A42B
:1010200026F6E5F03BFBE43AFA1886F0E7A4F6E58D
:10103000F00826F6E43B08F6E43A08F6D0E0FBD0E8
:10104000E0FA222518C582C0E0E51934FFC583C047
:10105000E0E518C3958224F910AF088583198582CD
:10106000188008858319858218D2AFCEF0A3E520B9
:10107000F0A37808E608F0A3DEFAEFF0A3E58124F8
:10108000FBF8E608F0A3E608F0A30808E608F0A3DA
:10109000E608F0A315811581D0E0FED0E0F81581B7
:1010A0001581E8C0E0EEC0E022C0D02518C582C09E
:1010B000E0E51934FFC583C0E0E518C3958224F349
:1010C00010AF088583198582188008858319858269
:1010D00018D2AFC8F0A3E9F0A3EAF0A3EBF0A3792C
:1010E00008E709F0A3D8FAECF0A3EDF0A3EEF0A323
:1010F000EFF0A3D0E0F0A3D0E0F0A3D0E0F0A3E5C0
:1011000020F0A3E5F0F0A322851983851882E0C0C2
:10111000E0A3E0F9A3E0FAA3E0FBA37808E0F60877
:10112000A3DFFAE0FCA3E0FDA3E0FEA3E0FFA3E061
:10113000C0E0A3E0C0E0A3E0F5D0A3E0F520A3E089
:10114000A3F5F010AF088583198582188008858380
:1011500019858218D2AFD082D083D0E0F8D0E032A7
:10116000851983851882E0A3FEE0A3F5207808E0C6
:10117000A3F608DFFAE0A3FFE0A3C0E0E0A3C0E02D
:10118000E0A3C0E0E0A3C0E010AF0885821885832B
:10119000198008858218858319D2AFD083D0822226
:1011A000E490030278A179038002F0A3D8FCD9FA75
:1011B0007AA27B0590008E782979018015E493A3AB
:1011C000AD82AE838A828B83F0A3AA82AB838D82A9
:1011D0008E83D8E9D9E7120AF8121340C008C3E099
:1011E00096F50808A3E096420808A3E0964208088E
:1011F000A3E09645087001D3D00822C5822518C502
:1012000082C583351910AF07F5198582188007F557
:1012100019858218D2AFC583222518F58210AF0830
:10122000F518400C15198008F51840021519D2AFB1
:101230008519832200C0D0251810AF08F518500C6E
:1012400005198008F51850020519D2AFD0D02260D8
:1012500016080808C6C313C618C613C618C613C690
:1012600018C613C6D5E0EA22251810AF08F51840B5
:101270000C15198008F51840021519D2AF22E06646
:10128000701008A3E066700A08A3E066700408A363
:10129000E06622700422600D18C6C333C608C63348
:1012A000C6D5E0F41822E627F60809E637F608095D
:1012B000E637F60809E637F622E026F608A3E03618
:1012C000F608A3E036F608A3E036F62274028000A2
:1012D000C0E0F404121219D0E0121329222518FAE2
:1012E000E43519FB222518FCE43519FD22600C08B1
:1012F000C6C313C618C613C6D5E0F42275D0007550
:10130000813F7518027519030211A0E6F008A3E6E3
:10131000F008A3E6F008A3E6F022E0F608A3E0F662
:1013200008A3E0F608A3E0F622CAC0E0E6F0A308AE
:10133000DAFAD0E0FA222518F582E43519F583228D
:1013400000000080FBFFFFFFFFFFFFFFFFFFFFFF2D
:10135000FFFFFFFFFFFFFFFFFFFFFFFFFFFFFFFF9D
:10136000FFFFFFFFFFFFFFFFFFFFFFFFFFFFFFFF8D
:10137000FFFFFFFFFFFFFFFFFFFFFFFFFFFFFFFF7D
:10138000FFFFFFFFFFFFFFFFFFFFFFFFFFFFFFFF6D
:0A1FF600CA05094338860000000008
:020000040003F7
:01FFF000F020
:020000040000FA
:10200000022C2A0221E7FFFFFFFFFFFFFFFFFFFF78
:10201000FFFFFFFFFFFFFFFFFFFFFFFFFFFFFFFFD0
:10202000FFFFFFFFFFFFFFFFFFFFFF022918FFFF7A
:10203000FFFFFFFFFFFFFFFFFFFFFFFFFFFFFFFFB0
:10204000FFFFFF022745FFFFFFFFFFFFFFFFFFFF2F
:10205000FFFFFF022123FFFFFFFFFFFFFFFFFFFF47
:10206000FFFFFFFFFFFFFFFFFFFFFF0228F0FFFF63
:10207000FFFFFFFFFFFFFFFFFFFFFFFFFFFFFFFF70
:10208000FFFFFF02218301FFFFFFFFFFFFFFFFFFB5
:102090001020102001FF01010503010F10FEFF4475
:1020A0004B00000000DC4A00000000FF000000FFC1
:1020B00000010000D1380000000023380F3A6B38CF
:1020C00085390000593800000000000000000000C1
:1020D0000000000000000000000000000000FF0100
:1020E0000100A507000000FFFF1E08E8036400646C
:1020F00000B80102020008000005020701051E02E7
:10210000051E020A0A0103B80B02803E0102FEFF0F
:10211000E8030A050001FFFF0A01E09651180002DA
:1021200006FFFFC0E074F2122564A2AFE433FED2D2
:10213000AFE5A7FFE5A1F5085F5410600612429DC8
:1021400075A1EFE5085F540860081242A375A1F776
:102150008024E508A2E092F0EFA2E082F050179010
:102160006198E0F8900D4BE0C398A2D265D033504F
:1021700002E8F075A1FE751A00EEA2E092AF7F01B1
:102180000225C3C0E074F2122564A2AFE433FED28C
:10219000AF9061A4E0F8759B00E591585408600881
:1021A0007591F71242EB8023E59158541060087541
:1021B00091EF1242F18014E591A2E092F0E8A2E0E2
:1021C00082F05007E0C2E0F01244479061A3E0F8CB
:1021D000E5E9585404600E12441D75E9FB906193C3
:1021E000E0A2E640F2808FC0E074F2122564A2AF54
:1021F000E433FED2AF9061A5E0F8E5BF5854046027
:102200000675BFFB12445F022176C3E498F8E49997
:10221000F912224B8026C3E49AFAE49BFBE920E7FB
:10222000E912224BE498F8E499F922C3E498F8E41F
:1022300099F912224BE498F8E499F9C3E49AFAE484
:102240009BFB22EB20E7CFE920E7E0B90010BB00C1
:1022500008E88AF084F8AAF022E4FBC8FA22EB70BE
:10226000227B10C833C8C933C9335007C39AC3DBB4
:10227000F280069A50012ADBEAC833F4C8C933F465
:10228000C9FA2275F008E4C833C8C933C933C99AFA
:10229000C99B5004C92AC93BD5F0ECFBC833F4C82C
:1022A000E4C9FA2274F51224FE74FA122AC47508DD
:1022B000047509007808122A027404122A8E7AF82A
:1022C0007B0779031241777402122A309080AC7830
:1022D00008122C587402122CAF7808122AEF704999
:1022E0007508027509007808122A027402122A8EF3
:1022F0007AF67B0779031241777402122A30851827
:1023000082851983E0F47003A3E0F4601C851882D1
:10231000851983E0F8A3E0F9888289837402F0A329
:10232000F0A37469F0A374A5F0C2AF75D69F020044
:10233000007406122A307F04022788080808EAC0C1
:10234000E0EBC0E086F0E7A4FA180986F0E7A42ADB
:10235000FA180986F0E7A42AFA180986F0E7A42AF1
:10236000FA1986F0E7A4FBE5F02AFA190886F0E7E7
:10237000A42BFBE5F03AFA190886F0E7A42BFBE55D
:10238000F03AFA18180986F0E7A4C5F02BFBE43AF6
:10239000FA1908E7C5F0C6A426F6E5F03BFBE43AD7
:1023A000FA1886F0E7A4F6E5F00826F6E43B08F60E
:1023B000E43A08F6D0E0FBD0E0FA22E4CFC0E0E453
:1023C000CEC0E0E4CDC0E0E4CCC0E075F020E6266D
:1023D000F608E633F608E633F608E633F61818187A
:1023E000EC33FCED33FDEE33FEEF33FFC3EC970926
:1023F000ED9709EE9709EF97191919400FFFEC9720
:10240000FC09ED97FD09EE97FE191906D5F0BFEC12
:10241000F709EDF709EEF709EFF7191919D0E0FC04
:10242000D0E0FDD0E0FED0E0FF222518C582C0E05C
:10243000E51934FFC583C0E0E518C3958224F81080
:10244000AF088583198582188008858319858218CD
:10245000D2AFCEF0A3E520F0A37808E608F0A3DE23
:10246000FAEFF0A3E58124FAF8E608F0A3E608F015
:10247000A3E608F0A30808E608F0A3E608F0A31511
:10248000811581D0E0FED0E0F8158115811581E835
:10249000C0E0EEC0E022122CA4B900030224E8E45C
:1024A0009004D1780379118002F0A3D8FCD9FA788E
:1024B0001A9020867A01BA00028007E493A3F608F6
:1024C000DAF97AD37B14902094789079018015E41E
:1024D00093A3AD82AE838A828B83F0A3AA82AB835F
:1024E0008D828E83D8E9D9E77582CA7583E3740536
:1024F0001229DC75826D75834874001229DC251859
:10250000C582C0E0E51934FFC583C0E0E518C39576
:102510008224F910AF088583198582188008858385
:1025200019858218D2AFCEF0A3E520F0A37808E693
:1025300008F0A3DEFAEFF0A3E58124FBF8E608F04B
:10254000A3E608F0A30808E608F0A3E608F0A31540
:10255000811581D0E0FED0E0F815811581E8C0E05A
:10256000EEC0E022C0D02518C582C0E0E51934FFD6
:10257000C583C0E0E518C3958224F310AF088583B6
:10258000198582188008858319858218D2AFC8F012
:10259000A3E9F0A3EAF0A3EBF0A37908E709F0A31D
:1025A000D8FAECF0A3EDF0A3EEF0A3EFF0A3D0E0A7
:1025B000F0A3D0E0F0A3D0E0F0A3E520F0A3E5F095
:1025C000F0A322851983851882E0C0E0A3E0F9A377
:1025D000E0FAA3E0FBA37808E0F608A3DFFAE0FC4A
:1025E000A3E0FDA3E0FEA3E0FFA3E0C0E0A3E0C002
:1025F000E0A3E0F5D0A3E0F520A3E0A3F5F010AF51
:10260000088583198582188008858319858218D2E8
:10261000AFD082D083D0E0F8D0E0320975F0108ED0
:10262000218F22858226858325851882851983E05E
:10263000CEA3E0CF852682852583EBC9EAC8EDCB02
:10264000ECCAC3E833C8E933C9EA33CAEB33CBC3B6
:10265000EA9EF524EB9FF523B35004AB23AA24ECA8
:1026600033CCED33CDD5F0DAAE21AF2222D083D0FA
:1026700082ECC0E0EDC0E0E493A3FCE493A3FDEDA5
:102680004C600D1227C8EC24FFFCED34FFFD80EFF9
:10269000E493A3FCE493A3FDED4C600D12289BECA6
:1026A00024FFFCED34FFFD80EFD0E0FDD0E0FCE442
:1026B00093A3C0E0E493C0E022851983851882E0EB
:1026C000A3FEE0A3F5207808E0A3F608DFFAE0A374
:1026D000FFE0A3C0E0E0A3C0E0E0A3C0E0E0A3C04F
:1026E000E0E0A3C0E010AF08858218858319800858
:1026F000858218858319D2AFD083D0820229E2D097
:1027000083D082E9C0E0E493A3C386F0C5F095F0DE
:10271000F908E493A386F0C5F095F0700BE493A359
:10272000C3994005E9048002A3E475F002A4258260
:10273000F582E5F03583F583D0E0F9E493A3C0E0BA
:10274000E493C0E022C0E074F2122564A2AFE43347
:10275000FED2AFC2C09013CBE0700BE5D1A2E45023
:102760001D1241FB8018E5D1A2E3500675D1F71286
:1027700041D1E5D1A2E4500675D1EF1241D7EEA2C6
:10278000E092AF7F010225C3851983851882E0A3FB
:10279000FEE0A3F5207808E0A3F608DFFAE0A3FF47
:1027A000E0A3C0E0E0A3C0E0E0A3C0E0E0A3C0E09D
:1027B00010AF088582188583198008858218858363
:1027C00019D2AFD083D08222C0E0C3E493960874BC
:1027D00001939618400FE49366700808740193669D
:1027E0001870007019A3A3C3E4939608740193961C
:1027F00018A3A3400DD0E0D0E0D0E00226A9A3A307
:10280000A3A3A3A3D0E022D083D082C5F0E493A3F6
:10281000C5F0C395F0F5F0E493A3C395F04005E54A
:10282000F0048001E475F002A42582F582E5F0351C
:1028300083F583E493A3C0E0E493C0E022740480B2
:102840000474028000CCC0E0EDC0E0E518C39CCC6D
:10285000AD1950011D10AF068C188D1980068C180B
:102860008D19D2AF12295ED0E0FDD0E0FC227402B7
:102870008000CCC0E0EDC0E0E518C39CCCAD1950A1
:10288000011D10AF068C188D1980068C188D19D279
:10289000AF12293CD0E0FDD0E0FC22C0E0C0F088BF
:1028A000F0E4936670080874019366187000A8F04D
:1028B000A3A3700BD0F0D0E0D0E0D0E00226A9A313
:1028C000A3D0F0D0E022D083D082CCC0E0E493A3A8
:1028D000600612297F1470FAE493A36006122AAEF0
:1028E0001470FAD0E0FCE493A3C0E0E493C0E022CB
:1028F000C0E074F2122564758900C2C59013CBE064
:10290000700E7A007B10900719E0F9123BA180034A
:102910001246DB7F010225C3C0E0C0D0E8C0E0E979
:10292000C0E0E5A8D2AFC2C7751A00A2E7A2E7923D
:10293000AFD0E0F9D0E0F8D0D0D0E032CAC0E0E4C7
:1029400093A3C582CCC582C583CDC583F0A3C582C0
:10295000CCC582C583CDC583DAE5D0E0CA22CAC022
:10296000E0E0A3C582CCC582C583CDC583F0A3C5F5
:1029700082CCC582C583CDC583DAE6D0E0CA22C049
:10298000E0E493A3D39C5010E493A3C39C400AD0EB
:10299000E0D0E0D0E00228E3A3A3A3D0E022C00867
:1029A000C3E096F50808A3E096420808A3E0964223
:1029B0000808A3E09645087001D3D00822700908E2
:1029C0000808226016181818C6C333C608C633C6CE
:1029D00008C633C608C633C6D5E0EA22C09FF59FB5
:1029E000E473D09F22D083D082C09FE493C0E07470
:1029F0000193C0E0740293F59F227404800A74036B
:102A00008006740280027401C0E0F404122A15D01A
:102A1000E0122C67222518F58210AF08F518400C3B
:102A200015198008F51840021519D2AF85198322AF
:102A300000C0D0251810AF08F518500C05198008F3
:102A4000F51850020519D2AFD0D022BB0102E722FF
:102A5000C082C08389828A83BB0003E08002E49342
:102A6000D083D082226016080808C6C313C618C6D1
:102A700013C618C613C618C613C6D5E0EA22251811
:102A8000F8E43519F9222518FAE43519FB2225183E
:102A9000FCE43519FD22C3E0C696F608A3E0C6960D
:102AA000F608A3E0C696F608A3E0C696F622C0E0B4
:102AB000E493A36C7009D0E0D0E0D0E00228E3A357
:102AC000A3D0E022251810AF08F518400C15198086
:102AD00008F51840021519D2AF22C3E09608A3E00A
:102AE0009608A3E09608A3E096A2D265D03322E030
:102AF00066701008A3E066700A08A3E06670040818
:102B0000A3E06622E76670100809E766700A080904
:102B1000E76670040809E76622C3E697F60809E647
:102B200097F60809E697F60809E697F622C3E096B5
:102B3000F008A3E096F008A3E096F008A3E096F072
:102B400022E657F60809E657F60809E657F6080997
:102B5000E657F622E056F608A3E056F608A3E0563C
:102B6000F608A3E056F622E026F008A3E036F008C7
:102B7000A3E036F008A3E036F022E026F608A3E052
:102B800036F608A3E036F608A3E036F622E627F686
:102B90000809E637F60809E637F60809E637F622A7
:102BA000E647F60809E647F60809E647F60809E6A3
:102BB00047F622E056F008A3E056F008A3E056F0EE
:102BC00008A3E056F022700422600D18C6C333C675
:102BD00008C633C6D5E0F41822E4C396F608E49696
:102BE000F608E496F608E496F622C3E7960809E7A5
:102BF000960809E7960809E79622C6F4C608C6F4BF
:102C0000C608C6F4C608C6F4C622600D08C6A2E708
:102C100013C618C613C6D5E0F322C3E09608A3E096
:102C20009608A3E09608A3E0962275D00075813F30
:102C30007518D175190400022496600C08C6C313D8
:102C4000C618C613C6D5E0F422E6F008A3E6F008DD
:102C5000A3E6F008A3E6F022E0F608A3E0F608A356
:102C6000E0F608A3E0F622CAC0E0E6F0A308DAFA2C
:102C7000D0E0FA22EAF0A3EBF0A3ECF0A3EDF0220F
:102C8000E0FAA3E0FBA3E0FCA3E0FD22E0F8A3E070
:102C9000F9A3E0FAA3E0FB22E8F0A3E9F0A3EAF04D
:102CA000A3EBF022E5C754F84401F5C779012225CA
:102CB00018F582E43519F583221229E55EB2031274
:102CC00029E5D4B2031229E540B3031229E55CB328
:102CD000031229E58DB3031229E5CCB3031229E5CC
:102CE000CDB4031229E57CB5031229E509B8031216
:102CF00029E562B9031229E5F5B9031229E5CABA33
:102D0000031229E540BB031229E5A8BC031229E5FB
:102D1000C6BC031229E50080021229E55A8002127E
:102D200029E5C480021229E54D81021229E50982B4
:102D3000021229E55182021229E58C82021229E54C
:102D4000E282021229E54A83021229E5CE830212A9
:102D500029E5E783021229E50C84021229E54A8459
:102D6000021229E59984021229E5C284021229E59A
:102D70001185021229E5BD85021229E58586021218
:102D800029E5EA86021229E5B787021229E5FD87BF
:102D9000021229E51988021229E54B88021229E559
:102DA000F389021229E5CA8A021229E5F68A02127B
:102DB00029E52C8B021229E54D8B021229E55C8B4B
:102DC000021229E5678B021229E51B8C021229E504
:102DD0008E8C021229E5008D021229E5088D02125F
:102DE00029E5838D021229E5DC8D021229E51F8E6B
:102DF000021229E5B190021229E5F791021229E5A4
:102E00008794021229E56F95021229E5A295021214
:102E100029E56496021229E51397021229E55B97CA
:102E2000021229E5BD97021229E5E297021229E56F
:102E3000F397021229E56B98021229E5F398021222
:102E400029E55799021229E53C9A021229E5619A6F
:102E5000021229E5829B021229E5A09B021229E5B4
:102E6000B39B021229E5269C021229E5359C021229
:102E700029E5BD9C021229E50B9D021229E5149D4E
:102E8000021229E5149F021229E568A0021229E521
:102E900078A0021229E594A1021229E50DA20212DE
:102EA00029E543A3021229E585A3021229E5C1A35E
:102EB000021229E595A5021229E5FAA7021229E5D1
:102EC0000EA8021229E518A8021229E522A802126A
:102ED00029E52CA8021229E536A8021229E54FA8F7
:102EE000021229E559A8021229E563A8021229E570
:102EF0006DA8021229E59CA8021229E5C4A80212B5
:102F000029E5CFA8021229E519A9021229E523A96A
:102F1000021229E52EA9021229E552A9021229E579
:102F200076A9021229E5D7A9021229E522AA0212DE
:102F300029E53EAA021229E5A8AA021229E5F4AA67
:102F4000021229E53CAB021229E5B7AB021229E5D2
:102F500051AC021229E515AE021229E583AE021228
:102F600029E5B5AF021229E5DBAF021229E54BB125
:102F7000021229E5FFB4021229E5FFB6021229E583
:102F8000D7B8021229E570B9021229E582BB0212F4
:102F900029E544BC021229E590BC021229E5F6BCE1
:102FA000021229E508BD021229E558BF021229E5DF
:102FB00047C0021229E586C1021229E5D8C10212D2
:102FC00029E57DC2021229E538C4021229E569C546
:102FD000021229E587C5021229E5DCC5021229E59E
:102FE000DAC6021229E502C7021229E565C70212F4
:102FF00029E566C8021229E5D9C8021229E507CADF
:10300000021229E572CA021229E562CB021229E5F1
:10301000C8CD021229E5F6CD021229E5F1CE021241
:1030200029E58FD0021229E5DFD0021229E597D1D8
:10303000021229E54CD2021229E5B0D2021229E58A
:1030400069D3021229E509D4021229E56DD40212CE
:1030500029E5B7D4021229E5F4D4021229E55CD699
:10306000021229E50181011229E54381011229E5B6
:103070003E84011229E59184011229E5D7840112C9
:1030800029E51886011229E57D86011229E5BD860C
:10309000011229E50088011229E5428B011229E578
:1030A0006B8C011229E5AC97011229E54C980112AD
:1030B00029E53F9B011229E5769C011229E5EC9C4C
:1030C000011229E5169E011229E5669F011229E5E4
:1030D0004DA0011229E5B6A2011229E5C4A40112EE
:1030E00029E555A5011229E529A6011229E5B5A66C
:1030F000011229E5BFA6011229E5E7A6011229E57B
:1031000094A7011229E57FA8011229E552A901120D
:1031100029E5DFA9011229E5F5A9011229E559AA36
:10312000011229E582AA011229E5AFAA011229E5B7
:10313000F4AC011229E5CFAD011229E513AE01125D
:1031400029E584AE011229E53DAF011229E56FAFF3
:10315000011229E5B6AF011229E5E9AF011229E50F
:103160004EB0011229E59DB0011229E5A2B001126D
:1031700029E5F6B0011229E540B1011229E53CB27A
:10318000011229E5A1B2011229E5FFB2011229E5D8
:1031900049B6011229E51DB7011229E5AAB80112A5
:1031A00029E584BB011229E537BC011229E55EBE81
:1031B000011229E503BF011229E541BF011229E5EA
:1031C00011C1011229E524C1011229E52DC1011205
:1031D00029E536C1011229E54BC1011229E56AC171
:1031E000011229E59FC3011229E5F2C3011229E565
:1031F000FCC3011229E506C4011229E561C40112CC
:1032000029E5BDC4011229E5D5C5011229E536C657
:10321000011229E585C7011229E5CEC7011229E56A
:10322000A6C8011229E5D1C9011229E587CA0112F0
:1032300029E589CB011229E58BCC011229E570CD56
:10324000011229E587CD011229E5C4CD011229E536
:10325000CECD011229E5D8CD011229E5E3CD011229
:1032600029E501CE011229E543CE011229E5A1CEBF
:10327000011229E5C6CE011229E5E0CE011229E5A9
:103280006DCF011229E5A6CF011229E5F6D0011272
:1032900029E54DD1011229E567D2011229E59DD218
:1032A000011229E539D3011229E5B5D3011229E527
:1032B00025D5011229E540D6011229E506D70112CC
:1032C00029E5B0D7011229E535D8011229E59DD8A5
:1032D000011229E552D9011229E5A4D9011229E5E3
:1032E00019DA011229E5E2DA011229E505DB0112FA
:1032F00029E5C9DB011229E5EDDB011229E50FDC27
:10330000011229E570DC011229E5BBDE011229E575
:1033100096DF011229E540E0011229E581E2011260
:1033200029E5CFE2011229E512E3011229E56AE35A
:10333000011229E5C8E3011229E5F2E3011229E5AA
:1033400016E4011229E547E4011229E571E40112AE
:1033500029E5B8E4011229E516E5011229E572E52F
:10336000011229E573E6011229E5DDE7011229E5DD
:103370001BE8011229E544E8011229E5D5E801120C
:1033800029E51FE9011229E543E9011229E599E937
:10339000011229E5B4E9011229E56FEA011229E5D4
:1033A00099EA011229E5EFEA011229E5F4ED01128B
:1033B00029E527EE011229E5E4EE011229E5BFEF28
:1033C000011229E54FF0011229E590F0011229E5DB
:1033D00083F3051229E5C2F3051229E544BD031262
:1033E00029E5EDBD031229E5CCBE031229E5E7BFAF
:1033F000031229E507C0031229E529C1031229E5B3
:10340000C6C2031229E533C3031229E509C4031216
:1034100029E50FC5031229E574C5031229E5B0C5D6
:10342000031229E509C6031229E542C6031229E55C
:103430008BC6031229E51DC7031229E5BAC703127B
:1034400029E58FC8031229E55CC9031229E5E9C9FA
:10345000031229E50FCA031229E53CCA031229E524
:103460006DCA031229E542CB031229E552CB0312A0
:1034700029E5A5CB031229E5B2CB031229E5BFCB81
:10348000031229E5C8CB031229E52CCC031229E548
:103490008ACC031229E5D5CC031229E5F0CC03121E
:1034A00029E517CD031229E534CD031229E540CDD6
:1034B000031229E5E4CE031229E5FDCE031229E526
:1034C00079CF031229E58CCF031229E59CCF031293
:1034D00029E542D0031229E5B2D1031229E5C5D26C
:1034E000031229E565D3031229E56FD3031229E5F9
:1034F000DDD3031229E5EED3031229E52DD40312FF
:1035000029E55BD4031229E528D5031229E57FD5E7
:10351000031229E5C4D5031229E51AD6031229E5B9
:1035200038D6031229E586D6031229E554D70312AB
:1035300029E5A2D7031229E5E4D7031229E567D8C4
:10354000031229E591D8031229E5C7D8031229E50A
:10355000D6D8031229E534D9031229E5ACD90312D0
:1035600029E5EDD9031229E53CDA031229E567DAEA
:10357000031229E581DA031229E59BDA031229E512
:1035800070DB031229E57ADB031229E5B5DB0312B0
:1035900029E5C5DB031229E5CEDB031229E51FDC93
:1035A000031229E533DC031229E551DD031229E575
:1035B00064DD031229E57BDD031229E590DD0312AA
:1035C00029E52ADE031229E5A9DE031229E54CDFED
:1035D000031229E557DF031229E5A4E0031229E5C8
:1035E000C0E0031229E518E1031229E586E1031280
:1035F00029E5D2E1031229E5ECE1031229E54CE2C9
:10360000031229E5EAE2031229E535E3031229E56D
:1036100098E5031229E530E6031229E5A7E603122F
:1036200029E5EDE8031229E505E9031229E508E992
:10363000031229E514E9031229E528E9031229E513
:1036400030E9031229E567E9031229E55BEA031271
:1036500029E5E5EA031229E567EB031229E5DCEB2E
:10366000031229E5B4EC031229E5D6EC031229E58F
:103670006DED031229E579ED031229E5D6ED03126C
:1036800029E5D9ED031229E506EE031229E51BEE23
:10369000031229E58AEE031229E5D6EF031229E584
:1036A000E9F0031229E574F1031229E587F2031208
:1036B00029E551F3031229E582F3031229E5A8F362
:1036C000031229E5B1F3031229E5E0F3031229E51A
:1036D00090F4031229E540F5031229E5B3F503122E
:1036E00029E565F6031229E5D8F6031229E517F74F
:1036F000031229E560F7031229E595F7031229E57E
:103700003DF0041229E5A8F0041229E5EFF00412B7
:1037100029E565F1041229E5B5F1041229E539F22C
:10372000041229E57DF4041229E5A8F6041229E51E
:1037300085FA041229E502FB041229E53DFB041277
:1037400029E55BFB041229E5BBFB041229E5E3FB39
:10375000041229E513FC041229E544FC041229E5AE
:1037600071FC041229E5CAFC041229E515FD0412B6
:1037700029E5E8D5041229E564D6041229E58AD69C
:10378000041229E5C1D6041229E51AD8041229E544
:1037900036D8041229E57BD8041229E50BD9041286
:1037A00029E563D9041229E538DA041229E516DB84
:1037B000041229E560DB041229E5C1DB041229E5C6
:1037C00045DC041229E56EDC041229E5AFDC0412A5
:1037D00029E55DDE041229E52DDF041229E5F4DF79
:1037E000041229E5C7E0041229E501E1041229E5E4
:1037F00059E1041229E57BE1041229E50FE20412E4
:1038000029E5C2E2041229E546C6051229E5ABC640
:10381000051229E552C7051229E58AC7051229E5CF
:10382000D9C7041229E584C8041229E521CA041263
:1038300029E59DCA041229E5D5CA041229E5C0CD9F
:10384000041229E552CF041229E5BCCF041229E560
:10385000F4D2041229E595D4041229E507EA0512E9
:1038600029E52FEA051229E51BEB051229E5A49E9F
:10387000051229E5279F051229E53E9F051229E536
:10388000B19F051229E517A0051229E540A00512F0
:1038900029E5C5A0051229E567A1051229E5CAA1F8
:1038A000051229E52FA2051229E54FA2051229E5E7
:1038B0007FA2051229E59BA2051229E5CAA20512DD
:1038C00029E5FAA2051229E530A3051229E590A3FE
:1038D000051229E516E3041229E5E6E3041229E5B9
:1038E0000BE4041229E52BE4041229E53FE4041259
:1038F00029E5A7E4041229E5CBE4041229E549E609
:10390000041229E56FE7041229E550E8041229E5BD
:10391000B4E8041229E5E0E8041229E564E9041298
:1039200029E5B5E9041229E5D6E9041229E54EEAAC
:10393000041229E5F2EB041229E555EC041229E5FD
:10394000E5ED041229E5B2EE041229E5EDEE0412CC
:1039500029E512EF041229E532EF041229E558EFA8
:10396000041229E56CEF041229E5D5EF041229E5CC
:1039700029F0041229E536DD051229E540DD05129E
:1039800029E561DD051229E551F1011229E55FF410
:10399000011229E58CF5011229E567F7011229E5E5
:1039A000F1F7011229E5AAF8011229E5D3F801126D
:1039B00029E51DF9011229E5D8F9011229E54BFA8B
:1039C000011229E54EFA011229E551FA011229E501
:1039D0008FA6031229E574FA011229E577FA01127C
:1039E00029E590FA011229E5F4FA011229E5E6FB2E
:1039F000011229E51BFD011229E568FD011229E5E7
:103A00006FFE011229E541FF011229E5CFD602120E
:103A100029E507D7021229E56ADB021229E53CDC19
:103A2000021229E5C3DC021229E5F4DC021229E5C1
:103A300022B2031229E576DD021229E5A4DD021285
:103A400029E5C5DE021229E5F3DE021229E521DFB0
:103A5000021229E557DF021229E504E0021229E5E6
:103A60002AE0021229E589E0021229E503E20212A6
:103A700029E59DE2021229E58EE3021229E56BE4B5
:103A8000021229E5B5E4021229E504E5021229E54E
:103A900070E5021229E5D8E5021229E525E60212B1
:103AA00029E595E6021229E5A6E7021229E59AE83A
:103AB000021229E54BE9021229E580E9021229E503
:103AC000D5E9021229E580EA021229E5AEEA0212DE
:103AD00029E533EC021229E5B8EC021229E5F8ECED
:103AE000021229E537ED021229E550ED021229E50F
:103AF000FFED021229E5B7EE021229E55EEF021290
:103B000029E5F2EF021229E598F0021229E502F107
:103B1000021229E58DF1021229E520F2021229E5AF
:103B20003EF2021229E511F3021229E5CFF3021247
:103B300029E585F4021229E523F5021229E5BB9255
:103B4000051229E5FC92051229E56593051229E580
:103B50008693051229E59F93051229E559940512CC
:103B600029E56294051229E5B394051229E5DC9450
:103B7000051229E5F394051229E55795051229E563
:103B8000E995051229E51A96051229E5769605129A
:103B900029E5DC96051229E51097051229E583979A
:103BA000051229E5C597051229E50598051229E5AD
:103BB0003D98051229E54F98051229E561980512EF
:103BC00029E59298051229E5D298051229E5F2AE69
:103BD000051229E535B0051229E55BB0051229E586
:103BE0006CB0051229E584B2051229E5A3B20512CD
:103BF00029E583DF051229E5B9DF051229E504E08F
:103C0000051229E550E1051229E5ADB3041229E5B5
:103C1000EBB4041229E527B5041229E5ECB6041229
:103C200029E516B7041229E59CB9041229E5DCB987
:103C3000041229E571BB041229E506BC041229E52A
:103C400064BC041229E5F5BC041229E52DBD04125B
:103C500029E56FBD041229E5E9BE041229E572C009
:103C6000041229E5A8C2041229E5D6C2041229E5E6
:103C700002C3041229E50BC3041229E561C304122F
:103C800029E5F1C3041229E5F8C6041229E57CC729
:103C9000041229E586F2051229E59CF2051229E5B0
:103CA000A6F2051229E5F6F2051229E5CABD0512AC
:103CB00029E5E3BD051229E588BE051229E5C8BE40
:103CC000051229E5E1BE051229E515BF051229E512
:103CD00062BF051229E596BF051229E5D8BF051276
:103CE00029E5AEC1051229E519C2051229E584ECC2
:103CF000051229E5D9EC051229E532ED051229E571
:103D000037F1051229E58AF1051229E5CCF10512F2
:103D100029E5DCF1051229E5069A041229E55E9AE7
:103D2000041229E5729B041229E53F9C041229E53F
:103D3000549C041229E59E9C041229E50C9D041252
:103D400029E51F9D041229E5639D041229E5D29DF2
:103D5000041229E52EA0041229E534A1041229E554
:103D60008FA1041229E580A3041229E501A40412FD
:103D700029E53AA4041229E585A4041229E59BA4A7
:103D8000041229E5A8A4041229E5E1A4041229E5F6
:103D9000F3A4041229E5D1A5041229E5DCA5041237
:103DA00029E561A6041229E5B9A6041229E505A7AB
:103DB000041229E53EA8041229E566A8041229E5A3
:103DC000DEAA041229E506AB041229E51FAC041291
:103DD00029E54EAC041229E5C0AC041229E5CCACAF
:103DE000041229E500AD041229E570AD041229E59D
:103DF0004DAE041229E586AE041229E590AE0412F8
:103E000029E593AE041229E59DAE041229E5B9AE69
:103E1000041229E535AF041229E56EAF041229E535
:103E20008AAF041229E5B6AF041229E5F1AF0412F6
:103E300029E50CB0041229E516B0041229E545B0B5
:103E4000041229E55BB0041229E577B0041229E5D4
:103E5000A6B0041229E5C6B0041229E50FB1041278
:103E600029E558B1041229E562B2041229E5037F5D
:103E7000001229E5147F001229E59D7F001229E533
:103E8000FDF7031229E54CF8031229E50AFA03129B
:103E900029E5DDFB031229E51BFC031229E5F1FCF2
:103EA000031229E5F6FD031229E518FE031229E5A0
:103EB00074FE031229E5F5FE031229E5054E0012F2
:103EC00029E5274E001229E5794F001229E5C24F56
:103ED000001229E53B50001229E5B650001229E5F1
:103EE0001F51001229E56651001229E5D851001230
:103EF00029E57952001229E5F852001229E53453D8
:103F0000001229E58857001229E59659001229E583
:103F1000C959001229E50E5A001229E5185B001252
:103F200029E5015E001229E5975E001229E563602C
:103F3000001229E59661001229E5AC62001229E51C
:103F40002063001229E5EC63001229E56064001289
:103F500029E56364001229E51A65001229E55F6608
:103F6000001229E5A368001229E53D6B001229E53E
:103F70001B6C001229E5586D001229E59D70001296
:103F800029E5AD70001229E5E471001229E595726A
:103F9000001229E5E173001229E54F74001229E5AA
:103FA0008275001229E5D775001229E500800412F8
:103FB00029E5A780041229E51981041229E5298140
:103FC000041229E5AB81041229E50282041229E5D5
:103FD000F782041229E51E83041229E5C383041223
:103FE00029E51284041229E57084041229E5CB84A2
:103FF000041229E5A687041229E55F88041229E541
:10400000C488041229E5578A041229E5F78A0412A4
:1040100029E5908B041229E5ED8B041229E5638CC8
:10402000041229E55F8D041229E5528E041229E558
:10403000AB8E041229E5C18E041229E5E28E04122A
:1040400029E5218F041229E5B18F041229E5F490A6
:10405000041229E5B192041229E5FB93041229E523
:104060003595041229E54096041229E5E0960412DC
:1040700029E54F97041229E56C98041229E5008080
:10408000051229E56B80051229E5B380051229E5A3
:104090001A81051229E57681051229E5B1810512FB
:1040A00029E54D82051229E5A782051229E5138429
:1040B000051229E59A84051229E5D384051229E51C
:1040C0000285051229E57C85051229E5C4850512BE
:1040D00029E5EA85051229E54187051229E5468784
:1040E000051229E5BD87051229E52988051229E56C
:1040F0002489051229E5118A051229E5CCA90512A2
:1041000029E509AA051229E5A2AA051229E5ADAB00
:10411000051229E5F5AD051229E571AE051229E56F
:10412000CBD4051229E57CD5051229E544D6051224
:1041300029E599D6051229E51CD7051229E53CE4A5
:10414000051229E525FF031229E536FF031229E5AB
:10415000D6FF031229E5EFFF011229E5EAFF02125B
:1041600029E5BDEF051229E5CDEF051229E5E2EFBE
:10417000051229E573F0051229E5B9EE051229E5C6
:104180003EEF051229E5A4EF051229E5F9FF01121A
:1041900029E521F4051229E531F4051229E534F465
:1041A000051229E537F4051229E5F87F001229E503
:1041B000B3E1051229E5D5E1051229E543E305122E
:1041C00029E5C7E3051229E5F8F3051229E501F40D
:1041D000051229E50AF4051229E518F4051229E566
:1041E000FB98051229E56799051229E52F9A051212
:1041F00029E5289B051229E5159D051229E56F9DE6
:10420000051229E5C29D051229E5D39D051229E570
:10421000E59D051229E5519E051229E5659E0512C9
:1042200029E5709E051229E57E9E051229E5909EDE
:10423000051229E544A4051229E570A4051229E513
:1042400017A7051229E56CA7051229E5A8A70512ED
:1042500029E5BCA7051229E5D5A7051229E5C8A8B7
:10426000051229E5A4A9051229E5B8A9051229E531
:1042700037E7051229E55BE7051229E574E7051222
:1042800029E5B3E7051229E5E6E7051229E516E871
:10429000051229E520E8051229E588E8051229E537
:1042A0008BE8051229E595E8051229E5A2E8051233
:1042B00029E556FD041229E57EFD041229E5BFFD1E
:1042C000041229E5DDFD041229E5F8FD041229E5B3
:1042D00060FE041229E56CFE041229E5CBFE0412EF
:1042E00029E5EFFE041229E5B0FF041229E5BDFF20
:1042F000041229E5CEFF041229E56BFF021229E51D
:1043000083FF021229E5A9FF021229E53BB4051239
:1043100029E584B5051229E58AB5051229E5A1B577
:10432000051229E5C2B5051229E5D8B5051229E51A
:10433000ECB5051229E56BB6051229E5D0B60512D4
:1043400029E558B7051229E5D1B7051229E5AAB81C
:10435000051229E5BAB8051229E5C9B8051229E5FB
:10436000EDF1051229E511F2051229E539F20512E0
:1043700029E561F2051229E579DA051229E5E5DA80
:10438000051229E504DB051229E56ADB051229E59A
:10439000B0D7051229E5C9D7051229E5E0D70512DE
:1043A00029E5E9D7051229E507D8051229E511D82D
:1043B000051229E51BD8051229E52ED8051229E595
:1043C000BBD8051229E52AD9051229E558D90512C5
:1043D00029E5A9D9051229E5F5D9051229E510DA4B
:1043E000051229E51ADA051229E52BDA051229E565
:1043F0006EDA051229E52CF3051229E577F305128B
:1044000029E5E8F5021229E514F6021229E532F64B
:10441000021229E545F6021229E560F6021229E5A5
:10442000BFF6021229E5EDF6021229E5F9FA0212A9
:1044300029E53BFC021229E56DFC021229E5D8FCB6
:10444000021229E55CFE021229E584FE021229E52A
:1044500099FE021229E5A9FE021229E5E9FE0212DF
:1044600029E52BFF021229E53BFF021229E54CEB5F
:10447000051229E55CEB051229E57AEB051229E521
:1044800095EB051229E5BCEB051229E5DDEB0512DC
:1044900029E5F7EB051229E52FEC051229E552EC89
:1044A000051229E583F0051229E5C9F0051229E571
:1044B0000CCE051229E51CCE051229E53ACF0512CE
:1044C00029E56CCF051229E58ECF051229E5B6CF77
:1044D000051229E5CFCF051229E50BD0051229E5F4
:1044E00074D0051229E5B0D0051229E5F7D00512E0
:1044F00029E524D1051229E550D1051229E5AAE5BF
:10450000051229E5E1E5051229E507E7051229E588
:104510000AE7051229E5A6ED051229E518EE0512B0
:1045200029E556EE051229E597EE051229E5B28A2E
:10453000051229E5B88A051229E5FF8A051229E541
:104540000B8D051229E53B8D051229E5A58D051278
:1045500029E5608E051229E5A78E051229E5DA8E78
:10456000051229E5648F051229E57B8F051229E5DF
:10457000888F051229E5928F051229E532910512DF
:1045800029E52492051229E58292051229E586760D
:10459000001229E59C76001229E54E77001229E5E4
:1045A0007878001229E56D79001229E5047A001265
:1045B00029E53F7A001229E5B17A001229E50F7B3F
:1045C000001229E51F7B001229E5467B001229E530
:1045D000987B001229E5077D001229E50C7D001269
:1045E00029E52E7D001229E526C2051229E544C2DF
:1045F000051229E588C2051229E5AEC2051229E592
:10460000D0C2051229E5E8C2051229E500C305124A
:1046100029E518C3051229E5BEC3051229E500C422
:10462000051229E50AC4051229E51FC4051229E56A
:1046300026C5051229E541C5051229E54AC5051219
:1046400029E553C5051229E55CC5051229E566C5AE
:10465000051229E5E3C5051229E5FAB8051229E591
:104660003FBD051229E55BBD051229E560BD0512B8
:1046700029E544CA051229E55ACA051229E5F8CBED
:10468000051229E543CC051229E5ADCC051229E533
:10469000ACCD051229E5DBCD051229E5EDCD0512DE
:1046A00029E5ACE8051229E5A4D1051229E500D2D7
:1046B000051229E540D2051229E542D3051229E564
:1046C0005AD3051229E56FD3051229E59BD30512AC
:1046D00029E5D2D3051229E5E2D3051229E5F8D35D
:1046E000051229E51DD4051229E5A8D4051229E5EE
:1046F000CCF3051229E550A4031229E5EFA3031218
:1047000029E596A3031229E51DA3031229E5F3A2C7
:10471000031229E5E8A0031229E5B8A0031229E550
:104720007CA0031229E568A0031229E5D49F031297
:1047300029E5F29E031229E5249E031229E5D39B65
:10474000031229E5A89B031229E5499B031229E5D9
:10475000BA99031229E54899031229E545990312EC
:1047600029E58D97031229E54497031229E51E9741
:10477000031229E55A96031229E5A494031229E5A8
:10478000D9B1031229E592B1031229E5DCB0031275
:1047900029E550B0031229E541B0031229E52EADF9
:1047A000031229E57BAA031229E54494031229E5A3
:1047B0001594031229E51294031229E5FD930312BF
:1047C00029E542A9031229E5BD93031229E5A49323
:1047D000031229E5AE92031229E56D92031229E531
:1047E00022DD021229E5FA91031229E563A80312DA
:1047F00029E5C791031229E56C91031229E53B9144
:10480000031229E5048E031229E5168D031229E50A
:10481000D08B031229E57E8B031229E5728B0312DC
:1048200029E5D98A031229E5A789031229E5F88623
:10483000031229E59B84031229E54F84031229E51D
:104840003483031229E5C982031229E5F381031297
:1048500029E5AF81031229E50080031229E56B8069
:10486000031229E53280031229E554FA0100000001
:1048700080FBE4738F000100030987000100020937
:10488000240002002A15250002002C152600020033
:104890002E152700020030152800010032152900CE
:1048A000010033158400040034158600010038151A
:1048B0002A00010039152B0001003A152C000100D7
:1048C0003D152D000800EA082E0001003E152F00BE
:1048D00001003F1530000100401531000100411575
:1048E00032000100F20833000100F3083400010037
:1048F000421536000100F408380001004315390064
:1049000001003C1583000200551563000100FF08FB
:1049100064000100E108650001003B156D00010025
:10492000000971000800E208660001005415430008
:1049300001004515440002004615450001004815D8
:1049400046000200491547000800F708480001002A
:104950004B154B0001004C15040001005715A10038
:10496000010059153700010058158800010004099D
:104970003C000100F5083D0001004415490002001B
:104980004D156700010001094D0002004F154E0052
:10499000010051154F00020052153E000100F608BB
:1049A0000000000000000001363601010001020194
:1049B00000010301000104010606050200000701D1
:1049C00000340801000F090401010D0100FF0E0869
:1049D000000017020000190100FF1A0100011B016D
:1049E00000FE1C0100081D0200001F010001200143
:1049F0000001210200002301000F24020000260113
:104A0000000127010008280200FF2A0100072B01EE
:104A100002402C0100002D0100012E0100012F0198
:104A200000FF30010B1C310800003A0100083B0177
:104A3000000F3C0100013D0100FF3E040000420464
:104A40000000460400004A0400004E040000520426
:104A50000000560400005A0400005E20FFFF3600EC
:104A60000100060000000F00000000000000000030
:104A70000000000003FFFF00000403FFFF0000FF31
:104A8000FF0FF4010005C4040320000100000B0027
:104A90000000000000000003010F00000000000003
:104AA0000000000000000000000000000000000006
:104AB00000000000000000000000000000000000F6
:104AC00000000000000000000000000000000000E6
:104AD000000000000000000000000000010371035E
:104AE0000103010301030103010322030203010384
:104AF000100300030003000300030003000300038E
:104B0000420300032403060300030003040312030B
:104B100025032303250323030403040300030003E5
:104B20000003440300030003230300036503210083
:104B300035038103000305030003000300030003A2
:104B40002503230303007100300160001100700091
:104B500031022003500480001000610000001400A6
:104B6000630073007200620043000000130006003F
:104B7000000000000400120000000000000000001F
:104B800004000400370037003C024400000000002D
:104B900000000000650000003500810000000500F5
:104BA00000008300000001017101010101011101F8
:104BB00001013101010101018001100161013B008E
:104BC00014006301730172016201430100011301CA
:104BD00006013D0135000401120100010001000140
:104BE000000104010401330133013C01440132019D
:104BF000360000010001650100013500810100015E
:104C0000050182018301000103027102300160028B
:104C1000110270020102020202028002100261020D
:104C20003A00410063027302720262024302000210
:104C30001302380000020002040212020002000205
:104C40000002000204020402370037003C02440262
:104C500000023900000200026502000235028102F2
:104C600000020502820283020002030471040204AE
:104C7000600411047004020402040104020410041C
:104C800061040004140463047304720462044304A2
:104C900000041304060400040004040412040004C5
:104CA0000004000400045104640000040004000433
:104CB00044040004000400040004650400043504F6
:104CC0008104640005040004830400040000EB3F39
:104CD00013005B3F0100EB3F0200DD3E0300E33EBB
:104CE0000400E93E0500EF3E0600FB3E30001F3F9A
:104CF0003100193F32002B3F3300313F3500373F41
:104D000034003D3F3600433F11004F3F1400553FF4
:104D100015000D3F1F00133FFFFF000001A93006E3
:104D2000DF3008D9300BF7301013300A093102AFE9
:104D30003005CD3007B5300C91300D9D30641B2E01
:104D4000FF000007ECFDFDFDECDCDCCCBCACAC9C5A
:104D50009C8C7C7C6C6C5C5C5C4C4C3C3C2C2C1CC3
:104D60001C03EAF5E5D5D5C5B5A595958585757579
:104D70006565555545453535252515150500160F2D
:104D800000000B150B020002220F3300000E0C0E68
:104D9000020B040B0A0708000F000119161816165B
:104DA0001823030000034A49434E181A2505023010
:104DB0003017181921301B1D1F30303016181920DC
:104DC000231A1C1E3000393D3F373C3C362C442D05
:104DD00002040201010101090200BE040A3C003C78
:104DE000007F00E803000000000E00280C08100CF3
:104DF000030303080900040001FF1E1E0C0505083B
:104E0000040415100AC082C083900816E4F0A3F0D1
:104E10007CD57D047A897B07124525122E21124804
:104E200055122E27026BBE74F312242A74F5122A2F
:104E3000C489098A088B0AE9705F74026508703EAC
:104E40009007A87408F0750C00780C122A06ECF58F
:104E50000C780C122A06EBF50C780C122A06901529
:104E60003412283D901538E0F97CF77D08901555EF
:104E7000126BCF122E4B7407122A30024F39740175
:104E800065086003024F3C9007A87408F07B00AAF5
:104E90000AA90A122E87024F397401650960097444
:104EA0000265096003024F3CEA60067403650870FE
:104EB000409007A87402124F5D122C80122E399078
:104EC00007AEE0A2E34010E9700D90081AE004F08C
:104ED00064047003124F6774036508705C90081BCC
:104EE000E0F8740128F0E8C39405404D124F678044
:104EF00048740165087045740165099007A8702E13
:104F0000740AF07401122CAFE4F07402122CAF7426
:104F100003F004122CAFE4F0A3F0A3F0A3F07408A4
:104F2000122CAFE4F0AA18AB191230BB8025740A1A
:104F3000124F5D122C80122E6FE960179080A01224
:104F4000283D7A017B009007A5E0F9123CC174046A
:104F5000122A30740B122A307F050226B9F0901500
:104F600038E0F990153422901534E4F0A374F8F089
:104F7000A374FFF0A37407F02274F612242AE9FF49
:104F8000EAFE7AD1F9123B7D8A828B83E5824583E2
:104F9000702A7A027B00123B5FEA4B700E7A107B1C
:104FA000009007A5E0F9123BA180148A828B8374DC
:104FB000D1F0EFA3F0EEF9123B6B8003EFA3F00208
:104FC00051D374F712242A8908900702127289FFBC
:104FD000901526E0F47003A3E0F47036900719E012
:104FE000901526F0A3E4F080298E828F83A3A3126C
:104FF000645260168E828F83A3A3A3E0F583888218
:10500000A3126452FAA908123EC58E828F831275CC
:10501000B6FFEE4F70D3901526E0F47003A3E0F4D2
:10502000600A901526E0FAA908123EC51231C39015
:1050300007731257391231BD0273C574F112242A55
:10504000890A8C08750900750B00740F122CAF12B9
:1050500060507411122CAF1257608049AE0E12517D
:1050600007F50CA3E0F50DAE0BEE2EFEE433FFEAE0
:105070002EF582EB126445650C7004A3E0650D709B
:1050800019AE09EE2EFEE433FFEC2EF582ED3FF56E
:1050900083E50CF0A3E50DF00509050EE50EC395BB
:1050A0000840B9050BE50BC3950A5005750E008045
:1050B000EBA909026AE474F412242A890B7D0074B6
:1050C0000C122CAF12605080010DEDC3950B5032C5
:1050D000750A008002050AE50AC39C50ECED25E044
:1050E000FEE433FFEA2EF582EB3F125117F509AECD
:1050F0000A12510765087004A3E0650970D77901A9
:105100008002790002688BEE2EFEE433FFE82EF574
:1051100082E93FF583E022F583E0F508A3E02274FD
:10512000F612242A1251BA7003A3E06D70177508A5
:10513000AC7509077808122A02EEFA123FF17402E0
:10514000122A30801F7508027509807808122A0219
:105150008C088D097808122A021251AD124015747C
:1051600004122A30806D74F612242A1251BA700388
:10517000A3E06D70177508B97509077808122A023F
:10518000EEFA123FF77402122A30801F7508037579
:1051900009807808122A028C088D097808122A02E0
:1051A0001251AD1240157404122A308026125B048D
:1051B000F583E0FD7C801264FE22EAFEEBFF1273B1
:1051C000CA1275C7FCE439FD900773E06C227402C3
:1051D000122A307F020226B974F612242A74FE12B3
:1051E0002AC4EAFEEBFF851882851983E4F0A31236
:1051F0005990126648FBECFA88828983A3A3E0F9F0
:10520000750900750800600574FF697005750882EE
:10521000803D900773E06A7003A3E06B701AAA18D0
:10522000AB1912373FE9F509851882851983126891
:1052300096701C7508838017900902E06004640171
:1052400070057508818008E0640270037508808528
:105250001882851983125760A908EEFAEFFB123FF6
:10526000FDE509601185188285198312689660062C
:10527000126BC9123C010251CE74F212242AEAFECA
:10528000EBFF750A00750B001252EB1231C3EA6591
:10529000087003EB65097012123751E914F50A79A9
:1052A000017AE27B071237578003750B8012643F47
:1052B000F50C780C122A06750CE2750D07780C12A5
:1052C0002A02780A122A067808122A02E50BF50843
:1052D0007808122A06126315126442F97A057B8057
:1052E0001240037407122A3002605E1273CA1275EC
:1052F000C7F508E439F5092274F612242AE9FE7F7D
:105300000080298A828B83125119F8E4C8F9E508D4
:1053100028E439F509EF25E0F8E433F9EC28F582C3
:10532000ED125B0DEA2402FA50010B0FEFC39E4011
:10533000D20251D374E812242A74FB122AC48A16AA
:105340008B17851882851983E4F07403122CAFE45F
:10535000F0A3F004122CAFE4F0A3F0125E86351730
:10536000125962F50B850A82F5831275C3FEE43982
:10537000FF850A82850B83A3A3E0FA850A82850B49
:1053800083A3A3A3E0F9EAF508E439F509E50A24C3
:1053900004F50A5002050BEEFAEFFB12325FE964E6
:1053A000016016EEFAEFFB12325FE9703D90077371
:1053B000E06E7003A3E06F6031126650122A06E4BB
:1053C000F508F5097808122A027808122A069007CB
:1053D000731228417508807808122A0612573F1266
:1053E00040037407122A3002572F12576688106044
:1053F0002B1271C8123BFB7403122CAF1257397475
:1054000003122CAF12689660137403122CAF12575C
:1054100058A910123EF58A0A8B0B800375100012F2
:105420005766880F60271271C8123BFB7401122C5B
:10543000AF1257397401122CAF126896600F7401C5
:10544000122CAF125758A90F123EF58003750F00AA
:10545000900702805D850A82850B83A3A3A3A3A383
:10546000A3A3A3E4F0A3F0AA0AAB0B8514828515CD
:1054700083A3A3125776126452F9123B6B851282F2
:10548000851383E0C0E0851882851983E0F874E213
:1054900028F582E43407F583D0E012689A04F0E539
:1054A00011A2E05007AA12AB13123C0185148285A9
:1054B0001583E0F514A3E0F515E514451570030216
:1054C000569C851482851583A3A312645260DD85E2
:1054D0001482851583A3A3A3A3A3A3A3A3E0A2E09F
:1054E00050CA851482851583A3A3A3A31268968549
:1054F0001482851583A3A3601F126452FA79018573
:105500001482851583A3A3A3A31264571248728A39
:10551000128B13751101800F125776A3A3E0F512B9
:10552000A3E0F513751100E5124513700302549FB3
:10553000851282851383A3E065087004A3E06509E2
:10554000600F74FF6508700474FF650960030254FE
:105550009F851282851383A3A3A3A3A3A3A31228C9
:1055600041851282851383A3A3A3A3A3A3E0FC74A4
:1055700005122CAF126BCFA910123ED77402122A5B
:1055800030E9703C851282851383A3A3A3A3A3A350
:10559000A3A3A3A3122841851282851383A3A3A3E7
:1055A000A3A3A3A3A3A3E0FC7403122CAF126BCF9D
:1055B000A90F123ED77402122A30E9700302549FD9
:1055C000E50F2510C333240AFA7B00123B5F8A0AD9
:1055D0008B0BEA450B700302547D8A828B8374D255
:1055E000F0851682851783A3A31260508A828B836D
:1055F000A3A3E8F0A3E91274CDA3E5101275CFE5DB
:105600000FF0E510603CEA2405FAE4350BFBE50AEF
:10561000240AF8E4350BF98A828B83125E8B7403BB
:10562000122CAF12577B1229FEAC10EC2CFCE43389
:10563000FD8A828B83126BCF123B3B7403122A309C
:10564000800D8A828B83A3A3A3A3A3E4F0A3F0E538
:105650000F7003025455A810E828F8E433F9E50A5E
:1056600028F8E50B39F9E8240AFAE439FB850A82BF
:10567000850B83A3A3A3A3A3A3A3A31257397401E8
:10568000122CAF12577B1229FEAC0FEC2CFCE4332A
:10569000FD123B3B7403122A300254678518828541
:1056A0001983E06027126650122A067508E2750910
:1056B000077808122A027403122CAF126659122AB4
:1056C000069007731228417508008029EEFAEFFB57
:1056D00012325FE9702F126650122A067508E275C1
:1056E00009077808122A027508007808122A06901D
:1056F00007731228417808122A0612573F124003F6
:105700007407122A307403122CAF126896600B745F
:1057100003122CAF126BCF123C017401122CAF128A
:105720006896600B7401122CAF126BCF123C01749F
:1057300005122A307F100226B9EAF0A3EBF022E529
:10574000162402FCE43517FDE5161262A63517F59E
:1057500083E0F97A067B8022125760AA0AAB0B22FB
:10576000E0FCA3E0FD22850A82850B83E0F8A38597
:10577000820A85830B22126457A322E0F50CA3E072
:10578000F50D750E00780C2274F112242A74F412AF
:105790002AC48A088B09ECFEEDFF740B122CAF743F
:1057A00003F0122A861245251231BDEAFCEBFD7486
:1057B00003122A8612451FE9600FEE241312644279
:1057C00064036010E06401600B851882851983749E
:1057D0008402591A8E828F83A3A3A3A3A3A3A3A396
:1057E000E06018F46015EE2413126442640370162E
:1057F000EE24141264426003F4700B85188285193C
:1058000083748202591A127375E064217002A3E056
:1058100060030258F1851882851983748C1259909F
:10582000640360030258DB7401122A8E12602A128C
:1058300047D7E960030258DB123E598A0A8B0BEA0C
:10584000450B700302591B8E0C8F0D750E00780CE2
:105850001229FE7C157D00123B3B7403122A308511
:105860000882850983A3A3E50A2415FCE4350BFD12
:10587000740912295E126FD6C0E0E50A241EF58273
:10588000E4350BF583D0E0125E91C0E0E50A241FF9
:10589000F582E4350BF583D0E0F0E50A2420F582AB
:1058A000E4350BF5837405F0EE240BFE50010FFA7E
:1058B000EFFB1237F97D007C007900EEFAEFFB1266
:1058C0003FBB9080A012283D7A007B109007A5E096
:1058D000F9123CC17404122A308078125958122AE5
:1058E0000612596A1247F57401122A30E9702C80A9
:1058F00014125958122A0612596A1247EF740112EB
:105900002A30E9700D851882851983E4F0123E294A
:1059100080098518828519837488F0126FD6F50A7C
:10592000780A122A067401122A7E880A890B780ADC
:10593000122A02E508240CF582E435091259624462
:1059400080F50B780A122A021263D7123FAF740552
:10595000122A30740C026AE1EE12603DE0F50A781A
:105960000A22F583E0F50AA3E022EE240BFCE43FD3
:10597000FD8E828F83A3A3A3A3A3A3A3A3A3126CCF
:105980000C8E828F83A3A3A3A3A3A3A3A3E0F922D6
:10599000F0127510E022C082C08374F3122AC4850D
:1059A0001882851983E4F004122CAF12573974035E
:1059B000122CAFAA82AB83122D49AA18AB19122D53
:1059C0007F740D122A30026BBE74F612242AEAFE8E
:1059D000EBFF12604A8882898312737DF89007B4C6
:1059E000E058F508A3E059F509E5084509601C7879
:1059F00008122A0290077312284112643FFD7C00AE
:105A00001264FA12400F7404122A300251D374F453
:105A100012242A74FF122AC4EAFEEBFF851882853D
:105A20001983E4F09008F6E06021EE240B12644242
:105A3000640160178E828F83A3A3126050EE241539
:105A4000126442687003A3E0696003025AFF1260A7
:105A50004AE8FAE9FB88828983A3A3A3A3A3A3A3AB
:105A6000A3E0FC88828983A3A3A3A3A3A3A3A31277
:105A70007568EC28F508E439F509EC45096010EC87
:105A80009471E994085008900902E06402700A8554
:105A9000188285198374808038122DBB8A0A8B0B7B
:105AA000A80AA90BE849602188828983A3A3A3A33C
:105AB000E06016C394035011E82412125B0AE82434
:105AC00014125B0A123E2980098518828519837495
:105AD00081F0125B04126657122A067401122A7EA4
:105AE000880889097808122A0275081F75098078C4
:105AF00008122A0212630B123FAF7405122A307487
:105B000001026888EE1273A03F22F582E439F58322
:105B1000E508F0A3E509F02274EA12242A74DB12E6
:105B20002AC48A148B1575120075130012644AF585
:105B30000EAC18AD197A007B00799C122E997A046C
:105B40007900122D91EAF50C851882851983E02AD7
:105B5000F0F8E50EC3984003025D37E0C3950EF5FB
:105B600009C394044003750903E50975F01AA4FA02
:105B7000ABF0123BFB8A128B13EA45137003025DF4
:105B80003A750D00AE12AF13850E08807E125DA22D
:105B9000123B47850A82850B83A3A3A3A3E0702D44
:105BA000850A82850B83126896700C126D19F0EECF
:105BB0002418126D1C8010125DB0F0900564E01482
:105BC000C0E0125D8AD0E0125DDBE48034900564B1
:105BD000E004C0E0125D8AD0E0125DD3C39403EE0E
:105BE0004003025C9E1260397402125DD36401703E
:105BF00003025CABEE2415125DB3F0EE2416125DC9
:105C0000B3F0EE241AFE50010F050DE50DC3950902
:105C10004003025CD6E508C3950C4003025CB485E2
:105C2000080AAA0A7B00122E038A0A8B0B05089029
:105C30000551125DBC124525850A82850B831260D1
:105C400050125D98E8F0A3E9125DED850A82850B9C
:105C500083A3A3A3A3A3A3A3A3A3A3E0C0E0125D74
:105C600080D0E0F07401122CAFE4F0850A82850B3D
:105C7000831260507402122CAF125E8B7401122AD0
:105C800086122D6DE964016003025B8D7404122C91
:105C9000AFAC82AD83125DA8124525025B93125D05
:105CA000B1125DD364036003025BF4EE2415126D40
:105CB0001C025BFAE50CC3950E4005750800801DBB
:105CC000E50EC3950CF5088014125DB0F0EE241AB1
:105CD000FE50010F050DE50DC39509505D740E12C0
:105CE0002A8E85080AAA0A7B007987122E99050850
:105CF0007418122CAF125DBC124525125DA2123B26
:105D000047EE2412F8E43FF9740E122CAF126BCF59
:105D100088828983EAF0A3EB125DDB7403125DEDE8
:105D2000741D122CAFE0C0E0125D80D0E0126B3623
:105D30007097126D198095750900750A00780A121E
:105D40002A067812122A027809122A06E50EF509A7
:105D50007809122A067405122CAFE0FD7C0012624D
:105D60009212404B7405122A30E51245136007AABF
:105D700012AB13123C017425122A307F0E0226B991
:105D8000EE2419F582E43FF58322125D8E22EE2483
:105D900018F582E43FF58322EE2412F582E43FF504
:105DA00083227C087D0079FFEE240AFAE43FFB227F
:105DB000EE2414F582E43FF5837401221260548EC0
:105DC000828F83E8F0A3E9F07C657D05EE1265150E
:105DD0003FFB22127523A3A3A3E022F0EE126D1065
:105DE0007402F0EE2416F582E43FF58322F0EE24EF
:105DF00017F582E43FF5837402F0125D8E74FFF0B4
:105E00002274F612242A74F9122AC48A088B091201
:105E10005E863509127650123B53EAF8EBF9ECFA3C
:105E2000EDFB851882851983122C98EE2404FE5010
:105E3000010F8E828F83E0C0E07404122CAFD0E09B
:105E4000126B0DFA7405122CAF7401F07406122C4B
:105E5000AF7401F090077DF09007860412753AA3A5
:105E600012605090077E125E8BEA900787125E9157
:105E700090077CF0AA18AB19122E3FE96003122E8E
:105E80004574070251D0EA12727C22E8F0A3E9F0CF
:105E900022F01274A7E02274F212242A74FF122A4C
:105EA000C47508007E007F001230EB8A0A8B0B124B
:105EB00030EB8A0C8B0DA80CA90D80080508126028
:105EC0003212604EE84970F4900902E06007640104
:105ED0006003025FA71230EB8A0C8B0DA80CA90D92
:105EE000800612603212604EE849603588828983EC
:105EF000126BCF900551E06A7003A3E06B600C1247
:105F00006032F583126BCFEA4B70D7888289831297
:105F10006050900551E0687003A3E0697003025F70
:105F2000A77A167B00123BFB8A0C8B0DAE0CAF0DD3
:105F3000EE4F60739005511260508E828F83125E17
:105F40008B900546E08E828F83A3A3F0123247E93F
:105F50008E828F83A3A3A3A3A3F090153912751784
:105F6000F07C657D0512602A124525AA18AB1979C7
:105F7000411245F1851882851983E0600890077306
:105F8000126050800478FE79FF8E828F83A3A3A3D2
:105F9000A3A3A3A3125E8B126038E50AF0A3E50B5E
:105FA000F08E0A8F0B0508900787E0F8E508C39884
:105FB00050047A008022E508C398FAC39406400290
:105FC0007A057900800DE50A126044350B1259629A
:105FD000F50B09E9C39840EE7509007809122A0605
:105FE000780A122A02EAF5097809122A0690078728
:105FF000E0F5097809122A06AD087C007A7E7B0755
:1060000090077CE0F91240457405122A309009028D
:10601000E060046401700BEE4F6007EEFAEFFB12D4
:106020003C01122E4574010252E5EE240BFAE43FC6
:10603000FB22E81260443922EE12603D22126044D5
:106040003FF583222414F582E42212727B3FF5830C
:1060500012605422E0F8A3E0F922EEFAEFFB7F068B
:106060000226B974EC12242A74FF122AC48A0A8BFD
:106070000B7E008E0E8E0F125E86350B126450FF63
:10608000AC18AD197A007B00799D122E9985188283
:10609000851983E0F8EFC398400302613EE0C39F97
:1060A000FEC3940B40027E0AEE75F007A4FAABF033
:1060B000123BFB8A088B098A0E8B0FEA450F607C26
:1060C000750C00801A850882850983A3A3A3A3A366
:1060D0007403F0E5082407F50850020509050CE5EE
:1060E0000CC39E5059AC08AD09850C10E5102FFA71
:1060F000E43400FB798B122E99850882850983A3ED
:10610000A3A3A3A3E014600814601314601F80B558
:10611000850882850983A3A3A3A3A3E480B485088B
:1061200082850983A3A3A3A3A3740180A585088204
:10613000850983A3A3A3A3A3740280967E00750898
:10614000007808122A06780E122A02EEF50878085E
:10615000122A06EFF5087808122A067405122CAFE9
:10616000E0FD7C00E50A126515350BFBE50A1262BD
:10617000A6350BF583E0F91240517405122A30E57B
:106180000E450F6007AA0EAB0F123C017401122AD4
:10619000307F0C0226B974EA12242A74FE122AC433
:1061A0008A148B15750A00750B0012644AF508AC49
:1061B00018AD197A007B0079A31247E385080C8596
:1061C0001882851983126050C3E50C98E499507DBC
:1061D000851882851983E0C3950CFEA3E09400FF27
:1061E000C3EE9404EF940040067E037F008004EE2B
:1061F0004F605AEEFAEFFBEA75F015A4FAA8F075B5
:10620000F015EBA428FB123BFB8A0C8B0D8A0A8B42
:106210000BEA450B6037750900750E00850E10C33B
:10622000E5109EE49F502BAC0CAD0D850E12850839
:1062300010E5122510FAE43400FB79A21247E3E5D9
:106240000C2415F50C5002050D050E80CF75098B39
:106250007E00750C00780C122A06780A122A02EECB
:10626000F50C780C122A067808122A067405122CEE
:10627000AFE0FDAC091262921240577405122A3049
:10628000E50A450B6007AA0AAB0B123C0174020237
:106290005D78E5141265153515FBE5141262A63517
:1062A00015F583E0F922240FF582E42274F6122416
:1062B0002A74FF122AC41263021273BDA3A3A3A3FC
:1062C000A3A3A3A3E0F9122E63E98518828519839D
:1062D000F07508007808122A067401122A7E8808D0
:1062E00089097808122A027508357509807808121C
:1062F0002A0212630B123FAF7405122A3074010296
:1063000051D0EAFEEBFF12727B3F22790112631536
:10631000FAE43FFB22EE2402FCE43FFDEE240F22D0
:1063200074F412242A74FA122AC48A088B09EA1215
:106330007274127289FFEEFAEFFB122D4FE96013AF
:106340001231BDEAFCEBFDEEFAEFFB12451FE964EA
:1063500001700A7401122CAFE4F0A38009740112D9
:106360002CAFEEF0A3EF127556A3A3A3A3A3E0F8FE
:10637000A2E650087403122CAF7401F0E8A2E750B3
:10638000087404122CAF7401F07405122CAFE4F001
:1063900004122A86122E8DE9851882851983F07AD7
:1063A000007B001231E1750A00780A122A06740196
:1063B000122A7E880A890B780A122A02750A347515
:1063C0000B80780A122A021263D7123FAF740512AB
:1063D0002A3074060268887901E5082402FCE43555
:1063E00009FDE508240FFAE43509FB2274F61224AE
:1063F0002A74FF122AC4126302126450F9122E5139
:10640000E9851882851983F0EE240B126442702C02
:106410007508007808122A067401122A7E880889F5
:10642000097808122A027508367509807808122A38
:106430000212630B123FAF7405122A300262FDEEA6
:10644000240EF582E43FF583E022EA12727C3515D2
:10645000F583126457E022E0F8A3E0F583888222F6
:106460000229E274F412242A74EF122AC4EAFEEB21
:10647000FF1252EB900773E065087004A3E0650912
:106480007052A818A919880A890B780A122A02756D
:106490000A11750B00780A122A027C007D007A81AD
:1064A0007B00123C857404122A30E97027750A00BB
:1064B000780A122A067401122A7E880A890B780A41
:1064C000122A02AC08AD091264FA124009740312D0
:1064D0002A308021750A11750B80780A122A0278F9
:1064E00008122A0212643FFD7C841264FA124015DD
:1064F0007404122A3074110268881264FE22EE12AB
:1065000065153FFBEE240FF582E43FF583E0F922A9
:10651000FCEFFDE5082402FAE42274F112242A7447
:10652000EB122AC4EAFEEBFFEE2413126442126659
:1065300048FAE4CAFBEC2AF508E43BF50990077336
:10654000E065087004A3E0650960030265F08882D5
:106550008983A3A3E09410500F88828983A3A3E0CA
:10656000851882851983800885188285198374109F
:10657000F0E0C0E07404122CAFD0E01273AEA3A31D
:10658000A982AA83890C8A0D750E00780C1229FE47
:106590007407122CAFE0FC7D007408122CAFAA82A5
:1065A000AB83123B3B7403122A307404122A7E8898
:1065B0000A890B780A122A02750A11750B00780AEB
:1065C000122A027C007D007A817B00123C7F7404D9
:1065D000122A307404122CAFE09007AC6005E0D2B0
:1065E000E48003E0C2E4F0851882851983E4800822
:1065F0008518828519837484F0E0C0E07401122C40
:10660000AFD0E0F07402122CAFE508F07403122C46
:10661000AFE508F0125B04126657122A06740212E4
:106620002A7E880889097808122A027508147509D3
:10663000807808122A02790312630D123FAF7405A5
:10664000122A307415026AE11273D1E0FCA3E02231
:10665000E5161273A03517F583E0F5087808227463
:10666000F412242A74E0122AC48A088B09AC18ADEB
:1066700019123F9D900902E0640270337402122CDB
:10668000AFAE82AF831231BDEEFCEFFD12451FE9C4
:10669000601D1231C38A0A8B0BA80AA90B851882C8
:1066A000851983E0687003A3E069700302688612AD
:1066B00033797402122CAF126BC512328FE9640168
:1066C00070030268867418122A861231CF7402127F
:1066D0002CAFAC82AD837418122A8612451FE96074
:1066E000321231C98A0A8B0BA80AA90B8518828538
:1066F0001983E0687003A3E0696018851882851922
:1067000083126050900547125E8B7A477B05794B68
:106710001245F7900902E06007640160030267C454
:1067200012719AC082C0831231C38A088B09D08348
