:020000040000FA
:100000000212FC022003FFFFFFFFFF02200BFFFF95
:10001000FFFFFF020E5DFFFFFFFFFF02201BFFFF40
:10002000FFFFFF022023FFFFFFFFFF02202BFFFF48
:10003000FFFFFF022033FFFFFFFFFF020EA0FFFFC5
:10004000FFFFFF022043FFFFFFFFFF02204BFFFFE8
:10005000FFFFFF022053FFFFFFFFFF02205BFFFFB8
:10006000FFFFFF022063FFFFFFFFFF02206BFFFF88
:10007000FFFFFF022073FFFFFFFFFF02207BFFFF58
:10008000FFFFFF022083FFFFFFFFFF02208BFFFF28
:10009000FFFF70DFFFFF040000000002000000C847
:1000A0000300030369A5020269A501000000000026
:1000B00004003273000074F8121043900393E06060
:1000C0001590030274FEF0900304744DF0A37405C0
:1000D000F07A011206747F0102116074F712104366
:1000E00074FF1212687E00801F851882851983E0D4
:1000F00064FE70069003877401F085188285198369
:10010000E0F8900384E068F07C017D00AA18AB1948
:10011000120E188B09EA450970030201E98518825D
:10012000851983E064EF70027E07E0C0E0900387EA
:10013000E0F8900385E0FAE82AF8E434001206C7F4
:10014000D0E0F0900387E060A014600E14602A14E1
:10015000603A14605014606680A0900384E4F085D7
:100160001882851983E0900386F0C39480900387FA
:100170004003E4808474028080851882851983E0BE
:10018000900382F090038774030200F9851882853A
:100190001983E0900383F0900386E0601990038751
:1001A00074040200F9900385E004F0F8900386E0FF
:1001B0006860030200FA90038774050200F9900357
:1001C00085E4F0900387F0900384E0F88518828539
:1001D0001983E06860030200FA900382E0644D60D6
:1001E000030200FA12031E8002EEF97401121234A7
:1001F0007F0202116074F712104374FB121268EA56
:10020000FEEBFF75080475090078081212CC740221
:100210001212E57A907B007904120EC17402121258
:1002200034120666121336E0687003A3E069701298
:10023000851882851983E0F47003A3E0F46003025B
:1002400002FE74041212DD1206D38A088B09A80874
:10025000A9097402121336E8F0A3E9F0740412132A
:1002600036E0600879011200B6020317851882850E
:100270001983E0687003A3E0697076851882851998
:1002800083E0F47003A3E0F470197402121336745F
:1002900010F0A37420F08518828519837410F0A3E0
:1002A0007420F075080175090078081212CC7402E8
:1002B0001212E57A247B08120F467402121234756A
:1002C000080478081212CC74021212E57A907B00AE
:1002D0007904120EC1740212123412066612133619
:1002E000E0687003A3E069700479028006790480F5
:1002F0000279031200B68E828F83741E80058E826F
:100300008F83E4F0120666121336E0687003A3E0F0
:1003100069700479018002790074050201ED74EDC1
:1003200012104374F8121268900307E0FA90030663
:10033000E0FB8B08EAF8E4C8F9EB28FEE93408FF93
:10034000751001880C750D068F0974027808121259
:1003500093C39508F8E49509F9740228F50E74031F
:1003600039F50F8E088F09740978081212EDE50827
:10037000F511EE2410F508E43FF509EEF50AEF5407
:1003800001F50B900383E0146054147003020453CE
:100390001470030204CE14601024FE700302058959
:1003A000147003020639020649750D03794E120CCA
:1003B0005890030712065C7402F0A3744012065AA8
:1003C000740812065AF0A3F0751012AA10A90C12A4
:1003D0000674A90D74081212347F0C021160750D99
:1003E00004794E120C58EE450B7005A911120FAC92
:1003F000C3EE9425EF9408503CC3E5089424E50926
:1004000094084031E50E2496F8E50F3420F98882EF
:100410008983E0701BA3AA82AB83E07013900388EA
:100420007401F08882898374A5F08A828B838004AA
:10043000900388E4F075081075090078081212CC52
:100440007C087D03EEFAEFFB120F467402121234A1
:100450000203CB750D05E511C394794006750C01B7
:100460000203CB75124075130078121212CC7C096E
:100470007D037402780A121293AA0AAB0BA9111217
:100480000EC17402121234900307E0A3F090030629
:10049000E0A3F0751043C3EE9425EF9408400302E7
:1004A00003CBC3E5089424E509940850030203CB69
:1004B000900388E070030203CBE50E2497F8E50F64
:1004C0003420F988828983E4F0A3F00203CB750815
:1004D0000475090078081212CC74021212E57A90A1
:1004E0007B007904120EC1740212123474021213CA
:1004F00036E0F8A3E0F9851882851983E068700377
:10050000A3E069851882851983700BE0F47003A35A
:10051000E0F470578009E0F47003A3E0F4700D85F7
:1005200018828519837410F0A37420F012066612E5
:100530001336E8F0A3E9F075080178081212CC74BC
:10054000021212E57A247B08120F4674021212344A
:1005500075080478081212CC74021212E57A907BA6
:10056000007904120EC174021212341206661213BC
:1005700036E0687003A3E0697006750D010203CBD5
:10058000750D02750C070203CB900391E0600764C0
:100590000260030203CBEAFF7A017900120674E0DD
:1005A000600302062D8003120D19120D23E970F766
:1005B000740412133612064E74041213367808129D
:1005C000131A85080C85090D850A0E850B0F9005F9
:1005D000A2780C1212B97404121336780C12130B91
:1005E000E5084509450A450B70CE8EC2E5C554E0C5
:1005F0004FF5C5740412133612064E7404121336E6
:10060000780812131A85080C85090D850A0E850BCA
:100610000F9005A2780C1212B97404121336780CDC
:1006200012130BE5084509450A450B70CE7A01798E
:100630000012067479080203D4EB900393F0700360
:100640000203CB750D090203CB79060203D4E4F053
:10065000A37426F0A3E4F0A3F022F0A3E4F0A3F047
:10066000A3F0A3F0A322851882851983E0F8A3E004
:10067000F974022274F6121043EAFE900305E0D2E8
:10068000E7F0E9A3F0EE900303F08E0A74042AFE6B
:100690007A028004E0620A0AEAF83395E01206C79B
:1006A0008E08C3E89508E99400A2D265D03340E4EF
:1006B000E50AF0740128FC3395E0FD7A027B031211
:1006C0000E487F03021160F9740228F58274033921
:1006D000F5832274E91210437582007583FE1211AE
:1006E000FB8A168B177514007515008A828B83E4BC
:1006F000F0900391E07006D2AAD2AF800464027039
:100700000579001200B6750C00750D20750E007588
:100710000F00900391E0600464027015120D19122D
:1007200000DBE9F87409686003020803790012002D
:10073000B675080075090278081212CC74021212FC
:10074000E5850C08850D09AA08E5095407FB850E07
:100750000A850F0B740B780812124FA908120EC1EC
:1007600074021212347E007F009005AAC0828E109F
:10077000EFF5113395E0F512F513850C08850D0999
:10078000850E0A850F0B780879101212A69005A61F
:1007900078081212B9758305D08278081211DC50DE
:1007A0001D851882851983E5822EF582E5833FF544
:1007B00083E0F9AA14AB151208328A148B150EEED9
:1007C00070010FC3EF940240A09005AE780C121296
:1007D000B99005B2780C1211DC40030207127900BF
:1007E000AA14AB1512083279001208328B15900347
:1007F00091E07004C2AFC2AAEA451570277AA57BC2
:10080000A58021E8700302073174066870030207AF
:100810003174076870030207318516828517837467
:1008200001F080BA7582007583021211FB7F1002FD
:100830001160C008C0097C088A088B09740F780809
:100840001212EDEA25E0FAEB33FBE9A2E75004745B
:10085000014AFAE508A2E0500874216AFA74106BA4
:10086000FBE9C333F91CEC70CFD009D0082274F730
:1008700012104378007900802374942508F582E4EF
:100880003403F583E08A828B83F09004141209F319
:100890004005900414E4F008E87001099004141273
:1008A000095D6007C3E89CE99D40CEE8FAE9FB7F5B
:1008B0000202116074F5121043900498E0FEA3E068
:1008C000FF8F08EEC39508F895E0F9EFC39EE85056
:1008D0000B120ADA701178007900801B247F500116
:1008E00009C39CE99D50EF7A007B008041E004F051
:1008F000D2E908E8700109C3E89CE99D502C8A827E
:100900008B83E0C0E0900499E0FE74182EF582E439
:100910003404F583D0E0120ACA90049AE4F09004FB
:1009200099E0C3947F40C6E480C5E8FAE9FB7F0400
:1009300002116074F7121043C2E990049812095D25
:10094000601874182508F582E43404F583E0F5C1D5
:10095000900498120AF14002E4F00208AFE0F508B2
:10096000A3E065082274F71210437800790090051F
:100970001DE07063A3E0705F75F900C28FC284A2AE
:100980008340FCA28F4004A28350F8E5F9C28FA2F5
:10099000835004D2848040C0E0E0FE749D2EF58236
:1009A000E43404F583D0E0F090051E120AF140D340
:1009B000E4F080CF749D2508F582E43404F583E0EB
:1009C0008A828B83F090051D1209F3400590051D66
:1009D000E4F008E870010990051D12095D6007C385
:1009E000E89CE99D40CEE8497006E4F090051DF0D2
:1009F0000208ABE004120ACEC394802274F81210ED
:100A0000439005A0E0FF8F82A88290059FE0FEEF53
:100A1000C39EE0500DC398F895E0F9120AD97018FA
:100A20008012C398F895E0F9E8247F500109C39C2F
:100A3000E99D4004EC4D70077A007B00020AC58AEC
:100A4000828B83E0F5F9A3AA82AB837801790080D9
:100A500008E004F008E8700109C3E89CE99D50270C
:100A60008A828B83E0C0E09005A0E0FE741F2EF523
:100A700082E43405F583D0E0120ACA9005A0E0C3F1
:100A8000947F40CDE480CCC28FA28340FCC284A27C
:100A90008F4004A28350F890059F120AE4E0F5F914
:100AA000C28F90059FE0FAA3E06A90059F7005123F
:100AB0000AE48005120AF14002E4F0A28350D0D289
:100AC00084E8FAE9FB7F01021160120ACE22F08A63
:100AD000828B83A3AA82AB8322E824FF18E934FF28
:100AE000F9E84922E0FA741F2AF582E43405F58317
:100AF00022E004F0C394802274FB1212687E0090FE
:100B000005CA780812131A9005CA7401F0A3F0A35D
:100B10007469F0A374A5F09005B6780812127E707F
:100B2000030E80159005BA780812127E6008E59DC4
:100B3000541864107003022000120C7EEEA2E050E4
:100B400003020BFBAA18AB191201F5E97003020BA3
:100B5000FB851882851983E0C3943C500CE0F8743F
:100B60003CC398FA95E0FB80047A007B00120D3CB0
:100B7000E97003020BFB900391E06401700C75F8BF
:100B800000C2AB539AF7D2EA805E79071200B680B2
:100B900003120D19120D23E970F77401121336E4D4
:100BA000F0A37426F0A3E4F0A3F0740112133678D6
:100BB0000812131A85080C85090D850A0E850B0F7E
:100BC0009005A2780C1212B97401121336780C1227
:100BD000130BE5084509450A450B70CE758600C222
:100BE000AAC28B539AFBC2E990000174CDF0022097
:100BF00000C2AF75C9AB75C95B80FE750800750989
:100C000000750A00750B00900391E0701BD2AAD208
:100C1000AF79051200B6E07003120D191200DBE97E
:100C2000F8740968700980E9794E120C5880ED74E7
:100C3000016870E2E07017120D199005BE78081275
:100C400012B99005C278081211DC50EBC2AAC2AFEB
:100C500075C9AB75C95B80FEC082C08378109005F2
:100C6000A1E0C399501575B60FE5B4A2E750FAE5B7
:100C7000BBC39940F118E870EDE9F0020D37C0826E
:100C8000C08353BEFBE59DA2E650FA0078F87901D7
:100C900000120AD970FA75C6807480659E70FA4396
:100CA000BE049062707408F0794A120C58900001EA
:100CB00074F5F07403F5D575D489A2A0E4339003DC
:100CC00091F0A2E05029D28453F3F753F3EF53FD90
:100CD000F743FD10538FF753F7DF43FC2043F10236
:100CE00053F5DF75F82043F4F0D2FED2AB802853E1
:100CF000FF3F85FFFF53F1FE43F30C53F2F375867C
:100D00008075C48090049BE4F0A3F075C2D875C5CB
:100D10000B75C402438640801E8003120933A2E98A
:100D200040F922C082C083900498E0F8A3E0686094
:100D300004790180027900D083D0822274F11210EC
:100D40004374FF1212687E00900391E06401706B9F
:100D5000C2849003927401F07508388E098E0A8E51
:100D60000B7C017D00AA18AB19120E188B0DEA45F9
:100D70000D6018851882851983E06410602CE0648A
:100D8000EF70088E088E098E0A8E0B85080C850977
:100D90000D850A0E850B0F9005A278081212B9E591
:100DA0000C450D450E450F70330E900391E0640124
:100DB0007056D284900392E4F08051D2AAD2AF8AC6
:100DC000088B09E4F50AF50B9005C6780C12131A86
:100DD0007808790C120FC379061200B6900391E0DF
:100DE0006003020D61120D191200DBE9F874096845
:100DF000700779061200B680927407686085E86013
:100E00008A74066870A48083C2AFC2AAEEF9740126
:100E10001212347F08021160C082C083900391E0F7
:100E2000700512086E801E900392E06015A28F502C
:100E30000BE5F98A828B83F07A0180027A007B00CD
:100E40008003120965020D37C082C083900391E0D0
:100E500070051208B480031209FC020D37C0E0745B
:100E6000F21210A9900001E064CD700512201380E9
:100E70002AE064F57024E5C1C28BC0E0900415E05F
:100E8000F8749428F582E43403F583D0E0F09004FC
:100E900015120AF14005E4F08001007F01021108FB
:100EA000C0E074F21210A9900001E064CD70051248
:100EB000203B800BE064F57005120933800100804F
:100EC000DA74F51210438908740F5508F50A750B8A
:100ED00000740B780A121293EA2400F8EB3480F9BC
:100EE000E82400E9350BF9E5C7F509A2AFE433F5CD
:100EF0000AC2AFE508C4540FFAE5C754F84AF5C76B
:100F0000740B121336E0FAA3E0FB801C88828983FD
:100F1000E08C828D83F088828983A3A882A9838C48
:100F2000828D83A3AC82AD83EAFEEBFFEE24FF1A31
:100F3000EF34FFFBEE4F70D48509C7E50AA2E092BB
:100F4000AF7F0402116074F7121043ED900389F033
:100F5000ECA3F0A37462F0A37473F0A3E0541FF049
:100F60007409121336E0F508A3E0F509E5083333F8
:100F700054FC90038EF0740678081212EDE5089088
:100F8000038DF090038F7412F0A37442F075D1FEBC
:100F900075D601EA906271F0EBA3F0906270E0D236
:100FA000E1F0E0A2E740FB7F02021160C082C08353
:100FB000E9C333906272F0906270E0D2E0F0D083C7
:100FC000D08222080808EAC0E0EBC0E086F0E7A47F
:100FD000FA180986F0E7A42AFA180986F0E7A42A85
:100FE000FA180986F0E7A42AFA1986F0E7A4FBE5C7
:100FF000F02AFA190886F0E7A42BFBE5F03AFA1973
:101000000886F0E7A42BFBE5F03AFA18180986F0F9
:10101000E7A4C5F02BFBE43AFA1908E7C5F0C6A42B
:1010200026F6E5F03BFBE43AFA1886F0E7A4F6E58D
:10103000F00826F6E43B08F6E43A08F6D0E0FBD0E8
:10104000E0FA222518C582C0E0E51934FFC583C047
:10105000E0E518C3958224F910AF088583198582CD
:10106000188008858319858218D2AFCEF0A3E520B9
:10107000F0A37808E608F0A3DEFAEFF0A3E58124F8
:10108000FBF8E608F0A3E608F0A30808E608F0A3DA
:10109000E608F0A315811581D0E0FED0E0F81581B7
:1010A0001581E8C0E0EEC0E022C0D02518C582C09E
:1010B000E0E51934FFC583C0E0E518C3958224F349
:1010C00010AF088583198582188008858319858269
:1010D00018D2AFC8F0A3E9F0A3EAF0A3EBF0A3792C
:1010E00008E709F0A3D8FAECF0A3EDF0A3EEF0A323
:1010F000EFF0A3D0E0F0A3D0E0F0A3D0E0F0A3E5C0
:1011000020F0A3E5F0F0A322851983851882E0C0C2
:10111000E0A3E0F9A3E0FAA3E0FBA37808E0F60877
:10112000A3DFFAE0FCA3E0FDA3E0FEA3E0FFA3E061
:10113000C0E0A3E0C0E0A3E0F5D0A3E0F520A3E089
:10114000A3F5F010AF088583198582188008858380
:1011500019858218D2AFD082D083D0E0F8D0E032A7
:10116000851983851882E0A3FEE0A3F5207808E0C6
:10117000A3F608DFFAE0A3FFE0A3C0E0E0A3C0E02D
:10118000E0A3C0E0E0A3C0E010AF0885821885832B
:10119000198008858218858319D2AFD083D0822226
:1011A000E490030278A179038002F0A3D8FCD9FA75
:1011B0007AA27B0590008E782979018015E493A3AB
:1011C000AD82AE838A828B83F0A3AA82AB838D82A9
:1011D0008E83D8E9D9E7120AF8121340C008C3E099
:1011E00096F50808A3E096420808A3E0964208088E
:1011F000A3E09645087001D3D00822C5822518C502
:1012000082C583351910AF07F5198582188007F557
:1012100019858218D2AFC583222518F58210AF0830
:10122000F518400C15198008F51840021519D2AFB1
:101230008519832200C0D0251810AF08F518500C6E
:1012400005198008F51850020519D2AFD0D02260D8
:1012500016080808C6C313C618C613C618C613C690
:1012600018C613C6D5E0EA22251810AF08F51840B5
:101270000C15198008F51840021519D2AF22E06646
:10128000701008A3E066700A08A3E066700408A363
:10129000E06622700422600D18C6C333C608C63348
:1012A000C6D5E0F41822E627F60809E637F608095D
:1012B000E637F60809E637F622E026F608A3E03618
:1012C000F608A3E036F608A3E036F62274028000A2
:1012D000C0E0F404121219D0E0121329222518FAE2
:1012E000E43519FB222518FCE43519FD22600C08B1
:1012F000C6C313C618C613C6D5E0F42275D0007550
:10130000813F7518027519030211A0E6F008A3E6E3
:10131000F008A3E6F008A3E6F022E0F608A3E0F662
:1013200008A3E0F608A3E0F622CAC0E0E6F0A308AE
:10133000DAFAD0E0FA222518F582E43519F583228D
:1013400000000080FBFFFFFFFFFFFFFFFFFFFFFF2D
:10135000FFFFFFFFFFFFFFFFFFFFFFFFFFFFFFFF9D
:10136000FFFFFFFFFFFFFFFFFFFFFFFFFFFFFFFF8D
:10137000FFFFFFFFFFFFFFFFFFFFFFFFFFFFFFFF7D
:10138000FFFFFFFFFFFFFFFFFFFFFFFFFFFFFFFF6D
:0A1FF600CA05094338860000000008
:020000040003F7
:01FFF000F020
:020000040000FA
:10200000022C420221EBFFFFFFFFFFFFFFFFFFFF5C
:10201000FFFFFFFFFFFFFFFFFFFFFFFFFFFFFFFFD0
:10202000FFFFFFFFFFFFFFFFFFFFFF02291CFFFF76
:10203000FFFFFFFFFFFFFFFFFFFFFFFFFFFFFFFFB0
:10204000FFFFFF022749FFFFFFFFFFFFFFFFFFFF2B
:10205000FFFFFF022127FFFFFFFFFFFFFFFFFFFF43
:10206000FFFFFFFFFFFFFFFFFFFFFF0228F4FFFF5F
:10207000FFFFFFFFFFFFFFFFFFFFFFFFFFFFFFFF70
:10208000FFFFFF02218701FFFFFFFFFFFFFFFFFFB1
:102090001020102001FF01010503010F10FEFFC0F9
:1020A0004D00000000584D00000000FF000000FF40
:1020B00000010000333A000000008539713BCD3942
:1020C000E73A0000BB3900000000000000000000FB
:1020D0000000000000000000000000000000FF0100
:1020E0000100AA07000000E803FFFF250803E8033A
:1020F00064006400B8010202000800000502070441
:1021000001051E02051E020A0A0103B80B02803EE9
:102110000102FEFFE8030A050001FFFF0A01E09645
:102120005118000206FFFFC0E074F2122568A2AF4A
:10213000E433FED2AFE5A7FFE5A1F5085F541060D8
:102140000612451375A1EFE5085F540860081245B3
:102150001975A1F78024E508A2E092F0EFA2E082D1
:10216000F05017906198E0F8900DE3E0C398A2D288
:1021700065D0335002E8F075A1FE751A00EEA2E0BA
:1021800092AF7F010225C7C0E074F2122568A2AFAA
:10219000E433FED2AF9061A4E0F8759B00E591585E
:1021A000540860087591F71245618023E5915854F1
:1021B0001060087591EF1245678014E591A2E092D6
:1021C000F0E8A2E082F05007E0C2E0F01246BD90D5
:1021D00061A3E0F8E5E9585404600E12469375E9EE
:1021E000FB906193E0A2E640F2808FC0E074F212AF
:1021F0002568A2AFE433FED2AF9061A5E0F8E5BF59
:10220000585404600675BFFB1246D502217AC3E418
:1022100098F8E499F912224F8026C3E49AFAE49BD5
:10222000FBE920E7E912224FE498F8E499F922C388
:10223000E498F8E499F912224FE498F8E499F9C384
:10224000E49AFAE49BFB22EB20E7CFE920E7E0B930
:102250000010BB0008E88AF084F8AAF022E4FBC86A
:10226000FA22EB70227B10C833C8C933C933500738
:10227000C39AC3DBF280069A50012ADBEAC833F422
:10228000C8C933F4C9FA2275F008E4C833C8C933A1
:10229000C933C99AC99B5004C92AC93BD5F0ECFB84
:1022A000C833F4C8E4C9FA2274F512250274FA128C
:1022B0002AC87508047509007808122A21740412C6
:1022C0002AAA7AF87B0779031243ED7402122A34A2
:1022D0009080B07808122C707402122CC778081203
:1022E0002ADE70497508027509007808122A2174DF
:1022F00002122AAA7AF67B0779031243ED740212BE
:102300002A34851882851983E0F47003A3E0F46011
:102310001C851882851983E0F8A3E0F988828983F7
:102320007402F0A3F0A37469F0A374A5F0C2AF75B2
:10233000D69F0200007406122A347F0402278C08FC
:102340000808EAC0E0EBC0E086F0E7A4FA180986C6
:10235000F0E7A42AFA180986F0E7A42AFA180986F1
:10236000F0E7A42AFA1986F0E7A4FBE5F02AFA19A7
:102370000886F0E7A42BFBE5F03AFA190886F0E7A7
:10238000A42BFBE5F03AFA18180986F0E7A4C5F08B
:102390002BFBE43AFA1908E7C5F0C6A426F6E5F0E7
:1023A0003BFBE43AFA1886F0E7A4F6E5F00826F6D7
:1023B000E43B08F6E43A08F6D0E0FBD0E0FA22E489
:1023C000CFC0E0E4CEC0E0E4CDC0E0E4CCC0E07536
:1023D000F020E626F608E633F608E633F608E6339C
:1023E000F6181818EC33FCED33FDEE33FEEF33FF37
:1023F000C3EC9709ED9709EE9709EF971919194062
:102400000FFFEC97FC09ED97FD09EE97FE191906F1
:10241000D5F0BFECF709EDF709EEF709EFF7191959
:1024200019D0E0FCD0E0FDD0E0FED0E0FF2225187E
:10243000C582C0E0E51934FFC583C0E0E518C39547
:102440008224F810AF088583198582188008858357
:1024500019858218D2AFCEF0A3E520F0A37808E664
:1024600008F0A3DEFAEFF0A3E58124FAF8E608F01D
:10247000A3E608F0A3E608F0A30808E608F0A3E640
:1024800008F0A315811581D0E0FED0E0F815811584
:10249000811581E8C0E0EEC0E022122CBCB9000337
:1024A0000224ECE49004D1789B79118002F0A3D847
:1024B000FCD9FA781A9020867A01BA00028007E4E3
:1024C00093A3F608DAF97A6B7B15902094789479C7
:1024D000018015E493A3AD82AE838A828B83F0A33F
:1024E000AA82AB838D828E83D8E9D9E77582EB759A
:1024F00083FD74041229E07582E975834A74001221
:1025000029E02518C582C0E0E51934FFC583C0E085
:10251000E518C3958224F910AF08858319858218C0
:102520008008858319858218D2AFCEF0A3E520F00C
:10253000A37808E608F0A3DEFAEFF0A3E58124FB18
:10254000F8E608F0A3E608F0A30808E608F0A3E61A
:1025500008F0A315811581D0E0FED0E0F8158115B3
:1025600081E8C0E0EEC0E022C0D02518C582C0E0FE
:10257000E51934FFC583C0E0E518C3958224F31044
:10258000AF0885831985821880088583198582188C
:10259000D2AFC8F0A3E9F0A3EAF0A3EBF0A3790867
:1025A000E709F0A3D8FAECF0A3EDF0A3EEF0A3EF67
:1025B000F0A3D0E0F0A3D0E0F0A3D0E0F0A3E520BA
:1025C000F0A3E5F0F0A322851983851882E0C0E02E
:1025D000A3E0F9A3E0FAA3E0FBA37808E0F608A3E0
:1025E000DFFAE0FCA3E0FDA3E0FEA3E0FFA3E0C070
:1025F000E0A3E0C0E0A3E0F5D0A3E0F520A3E0A3D2
:10260000F5F010AF08858319858218800885831935
:10261000858218D2AFD082D083D0E0F8D0E03208E3
:1026200075F0108E218F228582268583258518825C
:10263000851983E0CEA3E0CF852682852583EBC96B
:10264000EAC8EDCBECCAC3E833C8E933C9EA33CAF8
:10265000EB33CBC3EA9EF524EB9FF523B35004ABD9
:1026600023AA24EC33CCED33CDD5F0DAAE21AF2262
:1026700022D083D082ECC0E0EDC0E0E493A3FCE480
:1026800093A3FDED4C600D1227CCEC24FFFCED3440
:10269000FFFD80EFE493A3FCE493A3FDED4C600DFC
:1026A00012289FEC24FFFCED34FFFD80EFD0E0FD0D
:1026B000D0E0FCE493A3C0E0E493C0E0228519835A
:1026C000851882E0A3FEE0A3F5207808E0A3F608D1
:1026D000DFFAE0A3FFE0A3C0E0E0A3C0E0E0A3C016
:1026E000E0E0A3C0E0E0A3C0E010AF088582188559
:1026F00083198008858218858319D2AFD083D08250
:102700000229E6D083D082E9C0E0E493A3C386F037
:10271000C5F095F0F908E493A386F0C5F095F07044
:102720000BE493A3C3994005E9048002A3E475F088
:1027300002A42582F582E5F03583F583D0E0F9E443
:1027400093A3C0E0E493C0E022C0E074F2122568D5
:10275000A2AFE433FED2AFC2C0901463E0700BE5C9
:10276000D1A2E4501D1244718018E5D1A2E35006B5
:1027700075D1F7124447E5D1A2E4500675D1EF12A6
:10278000444DEEA2E092AF7F010225C785198385F3
:102790001882E0A3FEE0A3F5207808E0A3F608DFA6
:1027A000FAE0A3FFE0A3C0E0E0A3C0E0E0A3C0E044
:1027B000E0A3C0E010AF08858218858319800885E2
:1027C0008218858319D2AFD083D08222C0E0C3E4BF
:1027D0009396087401939618400FE4936670080866
:1027E000740193661870007019A3A3C3E49396084C
:1027F0007401939618A3A3400DD0E0D0E0D0E0027E
:1028000026ADA3A3A3A3A3A3D0E022D083D082C5E7
:10281000F0E493A3C5F0C395F0F5F0E493A3C3955A
:10282000F04005E5F0048001E475F002A42582F58E
:1028300082E5F03583F583E493A3C0E0E493C0E040
:10284000227404800474028000CCC0E0EDC0E0E596
:1028500018C39CCCAD1950011D10AF068C188D19F2
:1028600080068C188D19D2AF122962D0E0FDD0E01D
:10287000FC2274028000CCC0E0EDC0E0E518C39CEF
:10288000CCAD1950011D10AF068C188D1980068C27
:10289000188D19D2AF122940D0E0FDD0E0FC22C043
:1028A000E0C0F088F0E4936670080874019366183D
:1028B0007000A8F0A3A3700BD0F0D0E0D0E0D0E07F
:1028C0000226ADA3A3D0F0D0E022D083D082CCC02A
:1028D000E0E493A360061229A21470FAE493A360C3
:1028E00006122AB21470FAD0E0FCE493A3C0E0E42C
:1028F00093C0E022C0E074F2122568758900C2C559
:10290000901463E0700E7A007B1090071EE0F912BD
:102910003D0380031249517F010225C7C0E0C0D0AA
:10292000E8C0E0E9C0E0E5A8D2AFC2C7751A00A2CE
:10293000E7A2E792AFD0E0F9D0E0F8D0D0D0E03213
:10294000CAC0E0E493A3C582CCC582C583CDC5834C
:10295000F0A3C582CCC582C583CDC583DAE5D0E0BE
:10296000CA22CAC0E0E0A3C582CCC582C583CDC55A
:1029700083F0A3C582CCC582C583CDC583DAE6D0FA
:10298000E0CA22C008C3E096F50808A3E096420812
:1029900008A3E096420808A3E09645087001D3D04A
:1029A0000822C0E0E493A3D39C5010E493A3C39CFB
:1029B000400AD0E0D0E0D0E00228E7A3A3A3D0E013
:1029C000227009080808226016181818C6C333C6F2
:1029D00008C633C608C633C608C633C6D5E0EA22E1
:1029E000C09FF59FE473D09F22D083D082C09FE424
:1029F00093C0E0740193C0E0740293F59F22251800
:102A0000F58210AF08F518400C15198008F518402C
:102A1000021519D2AF851983227404800A740380C9
:102A200006740280027401C0E0F4041229FED0E0B2
:102A3000122C7F2200C0D0251810AF08F518500CBA
:102A400005198008F51850020519D2AFD0D022BB65
:102A50000102E722C082C08389828A83BB0003E02F
:102A60008002E493D083D082226016080808C6C38F
:102A700013C618C613C618C613C618C613C6D5E0A3
:102A8000EA22C3E0C696F608A3E0C696F608A3E0DD
:102A9000C696F608A3E0C696F6222518F8E435197E
:102AA000F9222518FAE43519FB222518FCE435191A
:102AB000FD22C0E0E493A36C7009D0E0D0E0D0E048
:102AC0000228E7A3A3D0E022251810AF08F518408C
:102AD0000C15198008F51840021519D2AF22E066CE
:102AE000701008A3E066700A08A3E066700408A3EB
:102AF000E06622C3E09608A3E09608A3E09608A348
:102B0000E096A2D265D03322E76670100809E76626
:102B1000700A0809E76670040809E76622C3E096B0
:102B2000F008A3E096F008A3E096F008A3E096F082
:102B300022C3E697F60809E697F60809E697F6082D
:102B400009E697F622C3E4939608740193960874F5
:102B5000029396087403939622E647F60809E6471F
:102B6000F60809E647F60809E647F622E056F008B7
:102B7000A3E056F008A3E056F008A3E056F022E0E8
:102B800026F008A3E036F008A3E036F008A3E0360C
:102B9000F022E627F60809E637F60809E637F608D0
:102BA00009E637F622E657F60809E657F60809E679
:102BB00057F60809E657F622E056F608A3E056F65F
:102BC00008A3E056F608A3E056F622E026F608A38E
:102BD000E036F608A3E036F608A3E036F6227004E5
:102BE00022600D18C6C333C608C633C6D5E0F41834
:102BF00022E4C396F608E496F608E496F608E4960E
:102C0000F622C6F4C608C6F4C608C6F4C608C6F45A
:102C1000C622600D08C6A2E713C618C613C6D5E0C3
:102C2000F322C3E7960809E7960809E7960809E73B
:102C30009622C3E09608A3E09608A3E09608A3E0D6
:102C4000962275D00075813F7518D1751904000260
:102C5000249A600C08C6C313C618C613C6D5E0F480
:102C600022E6F008A3E6F008A3E6F008A3E6F022C7
:102C7000E0F608A3E0F608A3E0F608A3E0F622CA0F
:102C8000C0E0E6F0A308DAFAD0E0FA22EAF0A3EB1B
:102C9000F0A3ECF0A3EDF022E0FAA3E0FBA3E0FC4C
:102CA000A3E0FD22E0F8A3E0F9A3E0FAA3E0FB2211
:102CB000E8F0A3E9F0A3EAF0A3EBF022E5C754F8AB
:102CC0004401F5C77901222518F582E43519F58309
:102CD000221229E978AC021229E98CAC021229E906
:102CE000A0AC021229E9DCAC021229E90CAD0212F7
:102CF00029E9A5AE021229E961AF021229E919B04A
:102D0000021229E96EB0021229E9D1B0021229E9B2
:102D10000FB1021229E939B1021229E9C5B1021233
:102D200029E91EB2021229E97FB2021229E9BEB4D2
:102D3000021229E992B6021229E971B7021229E9B1
:102D4000AAB8021229E95DBB021229E970BE02127B
:102D500029E97FBE021229E90BBF021229E9C1BF8E
:102D6000021229E908C0021229E951C0021229E918
:102D70008DC0021229E903C1021229E96FC10212B2
:102D800029E98BC1021229E9BCC1021229E9FBC160
:102D9000021229E9FCC2021229E9ABC3021229E995
:102DA0003CC6021229E995C7021229E928C8021275
:102DB00029E9B2C8021229E9D6C8021229E987C94D
:102DC000021229E938CA021229E9B5CB021229E90F
:102DD00040CC021229E97FCC021229E9F5CC02127B
:102DE00029E94ACE021229E9EDCE021229E921CFC2
:102DF000021229E939CF021229E9DCCF021229E9AE
:102E000066D2021229E907D4021229E925D4021256
:102E100029E943D4021229E913D5021229E968D815
:102E2000021229E90080031229E95A80031229E9D4
:102E3000C480031229E94D81031229E90982031292
:102E400029E95182031229E98C82031229E9E282DD
:102E5000031229E94A83031229E9CE83031229E9DF
:102E6000E783031229E90C84031229E92B84031256
:102E700029E96984031229E9B884031229E9E18464
:102E8000031229E93085031229E9DC85031229E9B7
:102E9000A486031229E90987031229E9D6870312B8
:102EA00029E91C88031229E93888031229E96A886C
:102EB000031229E9128A031229E9E98A031229E98E
:102EC000158B031229E94B8B031229E96C8B031232
:102ED00029E97B8B031229E9868B031229E93A8CB5
:102EE000031229E9AD8C031229E91F8D031229E988
:102EF000278D031229E9A28D031229E9FB8D031204
:102F000029E93E8E031229E9D090031229E916928D
:102F1000031229E9A694031229E98E95031229E9DF
:102F2000C195031229E98396031229E93297031206
:102F300029E97A97031229E9DC97031229E9019814
:102F4000031229E91298031229E98A98031229E940
:102F50001299031229E97699031229E95B9A03125F
:102F600029E9809A031229E9A19B031229E9BF9B51
:102F7000031229E9D29B031229E9459C031229E98E
:102F8000549C031229E9DC9C031229E9249D0312B5
:102F900029E9319D031229E93A9D031229E93A9F53
:102FA000031229E98EA0031229E99EA0031229E940
:102FB000BAA1031229E933A2031229E969A3031272
:102FC00029E9ABA3031229E9E7A3031229E9BBA569
:102FD000031229E920A8031229E934A8031229E9D8
:102FE0003EA8031229E948A8031229E952A80312AE
:102FF00029E95CA8031229E975A8031229E97FA829
:10300000031229E989A8031229E993A8031229E9DF
:10301000C2A8031229E9EAA8031229E9F5A80312B4
:1030200029E93FA9031229E949A9031229E954A969
:10303000031229E978A9031229E99CA9031229E9B5
:10304000FDA9031229E948AA031229E964AA031277
:1030500029E9CEAA031229E91AAB031229E962ABC6
:10306000031229E9DDAB031229E977AC031229E940
:103070003BAE031229E9A9AE031229E9DBAF031223
:1030800029E901B0031229E971B1031229E925B533
:10309000031229E925B7031229E9FDB8031229E92A
:1030A00096B9031229E9A8BB031229E96ABC0312E5
:1030B00029E9B6BC031229E91CBD031229E92EBD7A
:1030C000031229E97EBF031229E96DC0031229E921
:1030D000ACC1031229E9FEC1031229E9A3C20312FC
:1030E00029E95EC4031229E98FC5031229E9ADC598
:1030F000031229E902C6031229E900C7031229E9CC
:1031000028C7031229E98BC7031229E98CC80312C7
:1031100029E9FFC8031229E92DCA031229E998CA2F
:10312000031229E988CB031229E9EECD031229E91C
:103130001CCE031229E917CF031229E9B5D00312D7
:1031400029E905D1031229E9BDD1031229E972D277
:10315000031229E9D6D2031229E98FD3031229E9F0
:103160002FD4031229E993D4031229E9DDD40312E1
:1031700029E91AD5031229E982D6031229E91D810A
:10318000011229E95F81011229E95A84011229E912
:10319000AD84011229E9F384011229E93486011270
:1031A00029E99986011229E9D986011229E91C88A1
:1031B000011229E95E8B011229E9878C011229E9A4
:1031C000C897011229E96898011229E95B9B01124D
:1031D00029E9929C011229E9089D011229E9329EF0
:1031E000011229E9829F011229E969A0011229E946
:1031F000D2A2011229E9E0A4011229E971A5011264
:1032000029E945A6011229E9D1A6011229E9DBA67F
:10321000011229E903A7011229E9B0A7011229E93E
:103220009BA8011229E96EA9011229E9FBA9011243
:1032300029E911AA011229E975AA011229E99EAA10
:10324000011229E9CBAA011229E910AD011229E9DD
:10325000EBAD011229E92FAE011229E9A0AE01124E
:1032600029E959AF011229E98BAF011229E9D2AF3F
:10327000011229E905B0011229E96AB0011229E910
:10328000B9B0011229E9BEB0011229E912B1011247
:1032900029E95CB1011229E958B2011229E9BDB24C
:1032A000011229E91BB3011229E965B6011229E9C6
:1032B00039B7011229E9C6B8011229E9A0BB0112E8
:1032C00029E953BC011229E97ABE011229E91FBF7D
:1032D000011229E95DBF011229E92DC1011229E975
:1032E00040C1011229E949C1011229E952C1011263
:1032F00029E967C1011229E986C1011229E9BBC385
:10330000011229E90EC4011229E918C4011229E9A0
:1033100022C4011229E97DC4011229E9D9C401128C
:1033200029E9F1C5011229E952C6011229E9A1C70B
:10333000011229E9EAC7011229E9C2C8011229E9E3
:10334000EDC9011229E9A3CA011229E9A5CB01128D
:1033500029E9A7CC011229E98CCD011229E9A3CDD5
:10336000011229E9E0CD011229E9EACD011229E98A
:10337000F4CD011229E9FFCD011229E91DCE011278
:1033800029E95FCE011229E9BDCE011229E9E2CE79
:10339000011229E9FCCE011229E989CF011229E99C
:1033A000C2CF011229E912D1011229E969D1011212
:1033B00029E983D2011229E9B9D2011229E955D3A9
:1033C000011229E9D1D3011229E941D5011229E9D4
:1033D0005CD6011229E922D7011229E9CCD70112C2
:1033E00029E951D8011229E9B9D8011229E96ED980
:1033F000011229E9C0D9011229E935DA011229E9B6
:10340000FEDA011229E921DB011229E9E5DB0112CB
:1034100029E909DC011229E92BDC011229E98CDCFC
:10342000011229E9D7DE011229E9B2DF011229E9E7
:103430005CE0011229E99DE2011229E9EBE20112A7
:1034400029E92EE3011229E986E3011229E9E4E3DF
:10345000011229E90EE4011229E932E4011229E9F5
:1034600063E4011229E98DE4011229E9D4E401128F
:1034700029E932E5011229E98EE5011229E98FE6F1
:10348000011229E9F9E7011229E937E8011229E9CE
:1034900060E8011229E9F1E8011229E93BE901128A
:1034A00029E95FE9011229E9B5E9011229E9D0E921
:1034B000011229E98BEA011229E9B5EA011229E989
:1034C000F8EA011229E94EEB011229E953EE011243
:1034D00029E986EE011229E943EF011229E91EF0DC
:1034E000011229E9AEF0011229E9EFF0011229E9F0
:1034F00065F3041229E99DF3041229E9BEF30412CD
:1035000029E900F4041229E964F4041229E96EF4AB
:10351000041229E97EF4041229E9B5F4041229E918
:103520005EF8041229E926FA041229E91AFC0412A9
:1035300029E9B8FC041229E93FFD041229E94D806C
:10354000041229E9F680041229E9D581041229E937
:10355000F082041229E91083041229E9328404124A
:1035600029E9CF85041229E93C86041229E912874A
:10357000041229E91888041229E97D88041229E92E
:10358000B988041229E91289041229E94B89041225
:1035900029E99489041229E9268A041229E9C38AAF
:1035A000041229E9988B041229E9658C041229E98F
:1035B000F28C041229E9188D041229E9458D0412B0
:1035C00029E9768D041229E94B8E041229E95B8ED4
:1035D000041229E9AE8E041229E9BB8E041229E9EE
:1035E000C88E041229E9D18E041229E9358F0412FC
:1035F00029E9938F041229E9DE8F041229E9F98F52
:10360000041229E92090041229E93D90041229E9C5
:103610004990041229E9ED91041229E90692041255
:1036200029E98292041229E99592041229E9A592C6
:10363000041229E94B93041229E9BB94041229E9E5
:10364000CE95041229E96E96041229E9789604129F
:1036500029E9E696041229E9F796041229E9369732
:10366000041229E96497041229E93198041229E91E
:103670008898041229E9CD98041229E923990412A3
:1036800029E94199041229E98F99041229E95D9ADF
:10369000041229E9AB9A041229E9ED9A041229E9E6
:1036A000709B041229E99A9B041229E9D09B041209
:1036B00029E9DF9B041229E93D9C041229E9B59C04
:1036C000041229E9F69C041229E9459D041229E90E
:1036D000709D041229E98A9D041229E9A49D04120F
:1036E00029E9799E041229E9839E041229E9BE9EE4
:1036F000041229E9CE9E041229E9D79E041229E971
:10370000289F041229E93C9F041229E95AA00412B7
:1037100029E96DA0041229E984A0041229E999A0DD
:10372000041229E933A1041229E9B2A1041229E9FA
:1037300055A2041229E960A2041229E9ADA30412DA
:1037400029E9C9A3041229E921A4041229E98FA4B3
:10375000041229E9DBA4041229E9F5A4041229E9D9
:1037600055A5041229E9F3A5041229E93EA604127D
:1037700029E9A1A8041229E939A9041229E9B0A963
:10378000041229E9F6AB041229E90EAC041229E966
:1037900011AC041229E91DAC041229E931AC041260
:1037A00029E939AC041229E970AC041229E964ADA5
:1037B000041229E9EEAD041229E970AE041229E9D8
:1037C000E5AE041229E9BDAF041229E9DFAF041206
:1037D00029E976B0041229E982B0041229E9DFB0A0
:1037E000041229E9E2B0041229E90FB1041229E90F
:1037F00024B1041229E993B1041229E9DFB20412B9
:1038000029E9F2B3041229E97DB4041229E990B53B
:10381000041229E95AB6041229E98BB6041229E9DF
:10382000B1B6041229E9BAB6041229E9E9B60412BC
:1038300029E999B7041229E949B8041229E9BCB861
:10384000041229E96EB9041229E9E1B9041229E93F
:1038500020BA041229E969BA041229E99EBA0412AD
:1038600029E91FBD051229E98ABD051229E9D1BD43
:10387000051229E947BE051229E997BE051229E973
:103880001BBF051229E95FC1051229E98AC3051288
:1038900029E967C7051229E9E4C7051229E91FC804
:1038A000051229E93DC8051229E99DC8051229E933
:1038B000C5C8051229E9F5C8051229E926C9051266
:1038C00029E953C9051229E9ACC9051229E9F7C943
:1038D000051229E9CAA2051229E946A3051229E918
:1038E0006CA3051229E9A3A3051229E9FCA405127A
:1038F00029E918A5051229E95DA5051229E9EDA513
:10390000051229E945A6051229E91AA7051229E990
:10391000F8A7051229E942A8051229E9A3A805126A
:1039200029E927A9051229E950A9051229E991A930
:10393000051229E93FAB051229E90FAC051229E967
:10394000D6AC051229E9A9AD051229E9E3AD0512A6
:1039500029E93BAE051229E95DAE051229E9F1AE70
:10396000051229E9A4AF051229E94C8D061229E9AF
:10397000B18D061229E9588E061229E9908E061299
:1039800029E9B0F1011229E95BF2011229E9F8F302
:10399000011229E974F4011229E9ACF4011229E9B0
:1039A00097F7011229E929F9011229E993F901127E
:1039B00029E9CBFC011229E96CFE011229E992AE3A
:1039C000061229E9BAAE061229E9A6AF061229E9BC
:1039D000DCE1051229E95FE2051229E976E2051228
:1039E00029E9E9E2051229E94FE3051229E978E31B
:1039F000051229E9FDE3051229E99FE4051229E9E9
:103A000002E5051229E967E5051229E987E50512AE
:103A100029E9B7E5051229E9D3E5051229E902E606
:103A2000051229E932E6051229E968E6051229E9B5
:103A3000C8E6051229E9F8AF051229E9C8B0051250
:103A400029E9EDB0051229E90DB1051229E921B1E5
:103A5000051229E989B1051229E9ADB1051229E953
:103A60002BB3051229E951B4051229E932B5051223
:103A700029E996B5051229E9C2B5051229E946B624
:103A8000051229E997B6051229E9B8B6051229E900
:103A900030B7051229E9D4B8051229E937B905125A
:103AA00029E9C7BA051229E994BB051229E9CFBB58
:103AB000051229E9F4BB051229E914BC051229E90C
:103AC0003ABC051229E94EBC051229E9B7BC05121A
:103AD00029E90BBD051229E99FA3061229E9A9A32B
:103AE000061229E9CAA3061229E92C94051229E92C
:103AF0003A97051229E96798051229E9429A0512B1
:103B000029E9CC9A051229E9859B051229E9AE9B82
:103B1000051229E9F89B051229E9BDA4021229E939
:103B2000269D051229E9299D051229E92C9D0512DA
:103B300029E92F9D051229E94F9D051229E9529D7A
:103B4000051229E96B9D051229E9CF9D051229E986
:103B5000C19E051229E9F69F051229E943A0051225
:103B600029E94AA1051229E91CA2051229E9F5D67D
:103B7000031229E92DD7031229E964AC021229E9BD
:103B8000BDDC031229E944DD031229E975DD0312C6
:103B900029E9A3DD031229E9F7DD031229E925DE6E
:103BA000031229E946DF031229E974DF031229E928
:103BB000A2DF031229E9D8DF031229E985E0031205
:103BC00029E9ABE0031229E90AE1031229E980E2BD
:103BD000031229E91AE3031229E90BE4031229E984
:103BE000E8E4031229E932E5031229E981E5031229
:103BF00029E9EDE5031229E955E6031229E9A2E6D0
:103C0000031229E912E7031229E923E8031229E93B
:103C100017E9031229E9C8E9031229E9FDE90312AA
:103C200029E952EA031229E9F4EA031229E922EB0D
:103C3000031229E9A7EC031229E92CED031229E963
:103C40006CED031229E9ABED031229E9C4ED03126F
:103C500029E973EE031229E93DEF031229E9E4EFA4
:103C6000031229E978F0031229E91EF1031229E968
:103C700088F1031229E913F2031229E9A6F20312CB
:103C800029E9C4F2031229E997F3031229E955F44B
:103C9000031229E90BF5031229E9A9F5031229E911
:103CA0004079001229E98179001229E9EA790012A4
:103CB00029E90B7A001229E9247A001229E9DE7A2F
:103CC000001229E9E77A001229E9387B001229E974
:103CD000617B001229E9787B001229E9DC7B001264
:103CE00029E96E7C001229E99F7C001229E9FB7CFE
:103CF000001229E9617D001229E9957D001229E968
:103D0000087E001229E94A7E001229E98A7E001203
:103D100029E9C27E001229E9D47E001229E9E67E53
:103D2000001229E9177F001229E9577F001229E9BB
:103D3000807F001229E92AF2051229E96DF30512A4
:103D400029E993F3051229E9A4F3051229E9BCF541
:103D5000051229E9DBF5051229E9ECA5061229E986
:103D600022A6061229E96DA6061229E9B9A70612AC
:103D700029E90080051229E93E81051229E97A81A5
:103D8000051229E93F83051229E96983051229E90A
:103D9000EF85051229E92F86051229E9C487051246
:103DA00029E95988051229E9B788051229E94889BE
:103DB000051229E98089051229E9C289051229E934
:103DC0003C8B051229E9C58C051229E9FB8E0512E9
:103DD00029E9298F051229E9558F051229E95E8FF6
:103DE000051229E9B48F051229E94490051229E941
:103DF0004B93051229E9CF93051229E904B806125D
:103E000029E91AB8061229E924B8061229E974B872
:103E1000061229E9D084061229E9E984061229E963
:103E20008E85061229E9CE85061229E9E785061254
:103E300029E91B86061229E96886061229E99C866B
:103E4000061229E9DE86061229E9B488061229E954
:103E50001F89061229E90FB1061229E964B1061279
:103E600029E9BDB1061229E9B5B6061229E908B754
:103E7000061229E94AB7061229E95AB7061229E9B2
:103E800006BB041229E95EBB041229E9FEBB041239
:103E900029E916BD041229E902BE041229E9CFBEA0
:103EA000041229E9E4BE041229E92EBF041229E90B
:103EB00085BF041229E9F1BF041229E904C00412E4
:103EC00029E95CC0041229E9CBC0041229E962C3C4
:103ED000041229E95EC4041229E9B9C4041229E9CB
:103EE0000DC5041229E929C7041229E979C704126A
:103EF00029E9FAC7041229E9CCC8041229E905C93D
:103F0000041229E924C9041229E96FC9041229E914
:103F100085C9041229E992C9041229E9CBC90412FE
:103F200029E9DDC9041229E9CCCA041229E9D7CA52
:103F3000041229E95CCB041229E9B4CB041229E963
:103F400000CC041229E937CD041229E95FCD04120F
:103F500029E9DBCF041229E903D0041229E915D19C
:103F6000041229E944D1041229E9BCD1041229E937
:103F70007ED2041229E9B2D2041229E922D3041212
:103F800029E9FFD3041229E938D4041229E942D4DB
:103F9000041229E945D4041229E94FD4041229E96D
:103FA0006BD4041229E9E7D4041229E920D50412BC
:103FB00029E93CD5041229E968D5041229E9A3D5D9
:103FC000041229E9BED5041229E9C8D5041229E949
:103FD000F7D5041229E90DD6041229E929D60412CD
:103FE00029E958D6041229E978D6041229E9C1D65C
:103FF000041229E90AD7041229E914D8041229E97C
:1040000048B4061229E959B4061229E9E2B40612A5
:1040100029E9B4DA051229E903DB051229E9C1DC33
:10402000051229E994DE051229E9D2DE051229E9F3
:10403000A8DF051229E9ADE0051229E9CFE0051254
:1040400029E92BE1051229E9ACE1051229E9A5507E
:10405000001229E9C750001229E91952001229E972
:104060006252001229E9DB52001229E9565300126C
:1040700029E9BF53001229E90654001229E97454B2
:10408000001229E91955001229E99F55001229E962
:10409000DB55001229E92F5A001229E93D5C001274
:1040A00029E9705C001229E9AF5C001229E9BC5DC6
:1040B000001229E9A560001229E94F61001229E9DF
:1040C000FA62001229E92D64001229E94365001201
:1040D00029E9B865001229E98466001229E91B67FD
:1040E000001229E92B67001229E9E267001229E989
:1040F0001869001229E95C6B001229E9FF6D0012B2
:1041000029E9DD6E001229E91A70001229E95F73AE
:10411000001229E96F73001229E9A674001229E937
:104120005975001229E98A76001229E9F8760012F9
:1041300029E92F78001229E98478001229E95FD94A
:10414000041229E906DA041229E978DA041229E9C5
:1041500088DA041229E90ADB041229E961DB041276
:1041600029E956DC041229E97DDC041229E922DD63
:10417000041229E971DD041229E9CFDD041229E9CD
:104180002ADE041229E905E1041229E9BEE104123C
:1041900029E923E2041229E9B6E3041229E956E4E5
:1041A000041229E9EFE4041229E94CE5041229E993
:1041B000C2E5041229E9BEE6041229E9B1E70412B6
:1041C00029E90AE8041229E920E8041229E941E86A
:1041D000041229E980E8041229E910E9041229E906
:1041E00053EA041229E910EC041229E95AED0412E9
:1041F00029E994EE041229E99FEF041229E93FF01E
:10420000041229E9AEF0041229E9CBF1041229E9DC
:1042100086D8021229E9EFD8021229E937D9021209
:1042200029E97BD9021229E9EED9021229E948DAF3
:10423000021229E983DA021229E91DDB021229E9B7
:1042400077DB021229E9E3DC021229E95CDD0212C4
:1042500029E986DD021229E99ADE021229E9A8DF9E
:10426000021229E9D0DF021229E9CEE0021229E97F
:10427000DFE0021229E9F5E0021229E9F6E1021273
:1042800029E919E2021229E9E6E2021229E90EE31C
:10429000021229E925E3021229E94BE3021229E976
:1042A00086E3021229E9A6E3021229E9CDE302120C
:1042B00029E9E5E3021229E9C2E4021229E925E528
:1042C000021229E9A8E6021229E937E7021229E9D0
:1042D0005BE7021229E972E7021229E946E80212B5
:1042E00029E9E2E8021229E908E9021229E95DEA6E
:1042F000021229E97BEA021229E9F6EA021229E907
:104300002CEB021229E969EB021229E9F5EB021202
:1043100029E961EC021229E945ED021229E923EFAE
:10432000021229E9F8EF021229E944F0021229E900
:104330007CF1021229E9C9F2021229E93FF40212C2
:1043400029E94DF4021229E947F5021229E9EEF5AF
:10435000021229E937F6021229E94CF6021229E97C
:104360005BF7021229E974F8021229E9D2F8021265
:1043700029E904ED051229E941ED051229E9DAEDF3
:10438000051229E9E5EE051229E92DF1051229E9C1
:10439000A9F1051229E9E294061229E910960612FC
:1043A00029E9D896061229E92D97061229E9B0972E
:1043B000061229E95DFE041229E91CFF021229E90F
:1043C0002DFF021229E9CDFF021229E9E7FF0212AF
:1043D00029E9E8FF011229E93BB5061229E94BB5A5
:1043E000061229E960B5061229E9F1B5061229E994
:1043F00044B3061229E9C9B3061229E92FB40612FB
:1044000029E9EF7F001229E9D67F001229E9E67F2A
:10441000001229E9E97F001229E9EC7F001229E95D
:10442000F87F001229E91CA8061229E93EA8061205
:1044300029E9ACA9061229E930AA061229E9BFFF29
:10444000011229E9C8FF011229E9D1FF011229E966
:10445000DFFF011229E973F9021229E9DFF90212DB
:1044600029E9A7FA021229E9A0FB021229E98DFD28
:10447000021229E9E7FD021229E93AFE021229E9AE
:104480004BFE021229E95DFE021229E9C9FE021261
:1044900029E9DDFE021229E9E8FE021229E9F6FE09
:1044A000021229E908FF021229E97CE7051229E92D
:1044B000A8E7051229E94FEA051229E9A4EA05123D
:1044C00029E9E0EA051229E9F4EA051229E90DEBE8
:1044D000051229E900EC051229E9DCEC051229E9AD
:1044E000F0EC051229E9C2AB061229E9E6AB061287
:1044F00029E9FFAB061229E93EAC061229E971ACA5
:10450000061229E9A1AC061229E9ABAC061229E989
:1045100013AD061229E916AD061229E920AD0612DF
:1045200029E92DAD061229E9F1A0061229E919A100
:10453000061229E95AA1061229E978A1061229E9E9
:1045400093A1061229E9FBA1061229E907A2061286
:1045500029E966A2061229E98AA2061229E94BA3D3
:10456000061229E958A3061229E969A3061229E9C6
:10457000A2B8061229E9BAB8061229E9E0B806126B
:1045800029E973F7051229E9BCF8051229E9C2F8EF
:10459000051229E9D9F8051229E9FAF8051229E9DD
:1045A00010F9051229E924F9051229E9A3F90512E0
:1045B00029E908FA051229E990FA051229E909FB07
:1045C000051229E9E2FB051229E9F2FB051229E9A6
:1045D00001FC051229E96BB7061229E98FB706120B
:1045E00029E9B7B7061229E9DFB7061229E9329E91
:1045F000061229E99E9E061229E9BD9E061229E9A6
:10460000239F061229E9699B061229E9829B06125B
:1046100029E9999B061229E9A29B061229E9C09B68
:10462000061229E9CA9B061229E9D49B061229E938
:10463000E79B061229E9749C061229E9E39C0612FD
:1046400029E9119D061229E9629D061229E9AE9D0C
:10465000061229E9C99D061229E9D39D061229E906
:10466000E49D061229E9279E061229E929B90612B6
:1046700029E974B9061229E96EF6031229E99AF6B6
:10468000031229E9B8F6031229E9CBF6031229E946
:10469000E6F6031229E945F7031229E973F7031235
:1046A00029E97FFB031229E9C1FC031229E9F3FC84
:1046B000031229E95EFD031229E9E2FE031229E94A
:1046C0000AFF031229E91FFF031229E92FFF031232
:1046D00029E96FFF031229E9B1FF031229E9C1FF9C
:1046E000031229E9D7AF061229E9E7AF061229E933
:1046F00005B0061229E920B0061229E947B00612D2
:1047000029E968B0061229E982B0061229E9BAB08F
:10471000061229E9DDB0061229E901B6061229E9D7
:1047200047B6061229E94A91061229E95A9106125A
:1047300029E97892061229E9AA92061229E9CC926F
:10474000061229E9F492061229E90D93061229E9C5
:104750004993061229E9B293061229E9EE9306124B
:1047600029E93594061229E96294061229E98E9402
:10477000061229E933AA061229E96AAA061229E9CA
:1047800092AB061229E995AB061229E931B206125D
:1047900029E9A3B2061229E9E1B2061229E922B3F6
:1047A000061229E9ABD2051229E9B1D2051229E98D
:1047B000F8D2051229E904D5051229E934D50512E4
:1047C00029E99ED5051229E959D6051229E9A0D66D
:1047D000051229E9D3D6051229E95DD7051229E981
:1047E00074D7051229E981D7051229E98BD705125B
:1047F00029E92BD9051229E91DDA051229E97BDA05
:10480000051229E92ECA051229E944CA051229E927
:10481000F6CA051229E920CC051229E915CD0512A1
:1048200029E9ACCD051229E9E7CD051229E959CED0
:10483000051229E9B7CE051229E9C7CE051229E9E3
:10484000EECE051229E940CF051229E9AFD00512B5
:1048500029E9B4D0051229E9D6D0051229E92C8915
:10486000061229E94A89061229E98E89061229E9E0
:10487000B489061229E9D689061229E9EE890612B9
:1048800029E9068A061229E91E8A061229E9C48A3C
:10489000061229E9068B061229E9108B061229E96E
:1048A000258B061229E92C8C061229E9478C061261
:1048B00029E9508C061229E9598C061229E9628CE3
:1048C000061229E96C8C061229E9E98C061229E9FD
:1048D0000080061229E94584061229E9618406123E
:1048E00029E96684061229E932FC051229E948FC07
:1048F000051229E9E6FD051229E931FE051229E92B
:104900009BFE051229E99AFF051229E9C9FF051244
:1049100029E9DBFF051229E937AD061229E942989A
:10492000061229E99E98061229E9DE98061229E95D
:10493000E099061229E9F899061229E90D9A06125A
:1049400029E9399A061229E9709A061229E9809A0A
:10495000061229E9969A061229E9BB9A061229E954
:10496000469B061229E9AA7F001229E989A40212AE
:1049700029E95EA4021229E93AA4021229E95DA3F9
:10498000021229E927A3021229E9E7A2021229E962
:10499000B5A2021229E926A2021229E9D8A0021220
:1049A00029E95EA0021229E99B9F021229E9919E42
:1049B000021229E9489E021229E9229E021229E9DF
:1049C0005E9D021229E9A89B021229E9489B021266
:1049D00029E9199B021229E9169B021229E9DC999F
:1049E000021229E9C898021229E98897021229E9D6
:1049F000BA96021229E93296021229E950AC021243
:104A000029E9BCAB021229E9D4AA021229E94CAA6D
:104A1000021229E999A9021229E948A7021229E9F3
:104A20001DA7021229E95295021229E9B99402122E
:104A300029E91394021229E9D593021229E9BEA6A5
:104A4000021229E93B93021229E9FA92021229E99A
:104A50009D92021229E96A92021229E9EBDB031204
:104A600029E9FE91021229E92FA5021229E9CB9129
:104A7000021229E97091021229E93F91021229E9F3
:104A8000088E021229E91A8D021229E9D48B02122A
:104A900029E9808B021229E9748B021229E9DB8A49
:104AA000021229E9A989021229E9FA86021229E9E2
:104AB0009D84021229E95184021229E936830212E7
:104AC00029E9CB82021229E9F381021229E9AF8197
:104AD000021229E90080021229E96B80021229E9F9
:104AE0003280021229E9B39C0500000080FBE473C8
:104AF0008F0001009B09870001009A092400020031
:104B0000C51525000200C71526000200C91527009B
:104B10000200CB1528000100CD1529000100CE159B
:104B200084000400CF1586000100D3152A0001007F
:104B3000D4152B000100D5152C000100D9152D002E
:104B4000080082092E000100DA152F000100DB1594
:104B500030000100DC1531000100DD1532000100DC
:104B60008A09330001008B0934000100DE1536008C
:104B700001008C0938000100DF1539000100D8154B
:104B800083000200F1156300010097096400010031
:104B9000D61565000100D7156D0001009809710058
:104BA00008007A0966000100F01543000100E115D4
:104BB00044000200E21545000100E4154600020031
:104BC000E515470008008F0948000100E7154B0074
:104BD0000100E81504000100F315A1000100F5151E
:104BE00037000100F415880001009C093C00010019
:104BF0008D093D000100E01549000200E91567003C
:104C0000010099094D000200EB154E000100ED1561
:104C10004F000200EE153E0001008E09000000006A
:104C2000000000013636010100010201000103010C
:104C30000001040106060502000007010034080116
:104C4000000F090401010D0100FF0E08000017020A
:104C50000000190100FF1A0100011B0100FE1C01E8
:104C600000081D0200001F010001200100012102B7
:104C700000002301000F240200002601000127018B
:104C80000008280200FF2A0100072B0102402C0126
:104C900000002D0100012E0100012F0100FF300155
:104CA0000B1C310800003A0100083B01000F3C01D9
:104CB00000013D0100FF3E040000420400004604E4
:104CC00000004A0400004E04000052040000560494
:104CD00000005A0400005E20FFFF360001000600BD
:104CE00000000F00000000000000000000000000B5
:104CF00003FFFF00000403FFFF0000FFFF0FF401AC
:104D00000005C4040320000100000B0000000000A7
:104D100000000003010F0000000000000000000080
:104D20000000000000000000000000000000000083
:104D30000000000000000000000000000000000073
:104D40000000000000000000000000000000000063
:104D500000000000000000000103710301030103D3
:104D600001030103010322030203010310030003F3
:104D700000030003000300030003000342030003D9
:104D80002403060300030003040312032503230383
:104D90002503230304030403000300030003440367
:104DA000000300032303000365032100350381038F
:104DB000000305030003000300030003250323038E
:104DC0000300710030016000110070003102200307
:104DD00050048000100061000000140063007300A4
:104DE0007200620043000000130006000000000093
:104DF0000400120000000000000000000400040095
:104E0000370037003C0244000000000000000000B2
:104E100065000000350081000000050000008300EF
:104E200000000101710101010101110101013101C4
:104E3000010101018001100161013B0014006301C7
:104E400073017201620143010001130106013D017A
:104E500035000401120100010001000100010401FC
:104E60000401330133013C014401320136000001E9
:104E70000001650100013500810100010501820189
:104E8000830100010302710230016002110270020D
:104E90000102020202028002100261023A00410095
:104EA00063027302720262024302000213023800BC
:104EB00000020002040212020002000200020002CC
:104EC00004020402370037003C02440200023900A9
:104ED00000020002650200023502810200020502A2
:104EE00082028302000203047104020460041104BC
:104EF00070040204020401040204100461040004AA
:104F0000140463047304720462044304000413046D
:104F10000604000400040404120400040004000455
:104F2000000451046400000400040004440400046C
:104F300000040004000465040004350481046400D6
:104F4000050400048304000400007D411300ED40CB
:104F500001007D4102006F400300754004007B406A
:104F60000500814006008D403000B1403100AB406B
:104F70003200BD403300C3403500C9403400CF404B
:104F80003600D5401100E1401400E74015009F4075
:104F90001F00A540FFFF000001C33106F93108F3EF
:104FA000310B1132102D310A233202C93105E7319C
:104FB00007CF310CAB310DB731642F2FFF00000745
:104FC000ECFDFDFDECDCDCCCBCACAC9C9C8C7C7CBE
:104FD0006C6C5C5C5C4C4C3C3C2C2C1C1C03EAF563
:104FE000E5D5D5C5B5A59595858575756565555581
:104FF00045453535252515150500160F00000B15FF
:105000000B020002220F3300000E01030507090BFB
:105010000D0F00020406080A0C0D5A696742656507
:10502000416C6C69616E6365303930301718192135
:10503000301B1D1F30303016181920231A1C1E304B
:1050400000034A49434E181A250502000119161893
:105050001616182303000C0E020B040B0A07080097
:105060000F00393D3F373C3C362C442D02040201F1
:105070000101010902E803000000BE040A7F003CB0
:1050800000000000000E00E8033C00100C0A0C03B6
:10509000150900040009FF1E1E0305010C05040488
:1050A0000810080328C082C08390081DE4F0A3F014
:1050B0007CD57D047A8E7B0712479B122F35124ACE
:1050C000D1122F3B026E8074F312242E74F5122A33
:1050D000C889098A088B0AE9705F74026508703E06
:1050E0009007AD7408F0750C00780C122A25ECF5C9
:1050F0000C780C122A25EBF50C780C122A25901549
:10510000CF1228419015D3E0F97C8F7D099015F1DD
:10511000126E91122F5F7407122A340251D9740152
:10512000650860030251DC9007AD7408F07B00AAAB
:105130000AA90A122FA10251D974016509600974E4
:1051400002650960030251DCEA60067403650870B9
:10515000409007AD74021251FD122C98122F4D9001
:1051600007B5E0A2E34010E9700D900821E004F0DB
:105170006404700312520774036508705C9008227F
:10518000E0F8740128F0E8C39405404D12520780FE
:1051900048740165087045740165099007AD702E6B
:1051A000740AF07401122CC7E4F07402122CC77454
:1051B00003F004122CC7E4F0A3F0A3F0A3F07408EA
:1051C000122CC7E4F0AA18AB191231D58025740A45
:1051D0001251FD122C98122F83E960179080A412AF
:1051E00028417A017B009007AAE0F9123E29740455
:1051F000122A34740B122A347F050226BDF0901552
:10520000D3E0F99015CF229015CFE4F0A374F8F015
:10521000A374FFF0A37407F02274F612242EE9FFA2
:10522000EAFE7AD1F9123CDF8A828B83E5824583DC
:10523000702A7A027B00123CC1EA4B700E7A107B16
:10524000009007AAE0F9123D0380148A828B8374D0
:10525000D1F0EFA3F0EEF9123CCD8003EFA3F00202
:10526000546F74F712242E890890070712754DFFAA
:105270009015C0E0F47003A3E0F4703690071EE0D0
:105280009015C0F0A3E4F080298E828F83A3A3122F
:10529000793B60168E828F83A3A3A3E0F583888277
:1052A000A312793BFAA9081240578E828F83127895
:1052B00063FFEE4F70D39015C0E0F47003A3E0F4E9
:1052C000600A9015C0E0FAA9081240571232DD902A
:1052D00007781259E01232D702768574F112242E23
:1052E000890A8C08750900750B00740F122CC712FF
:1052F00061397411122CC7125A078049AE0E12532D
:10530000A7F50CA3E0F50DAE0BEE2EFEE433FFEA9D
:105310002EF582EB1266F2650C7004A3E0650D7049
:1053200019AE09EE2EFEE433FFEC2EF582ED3FF5CB
:1053300083E50CF0A3E50DF00509050EE50EC39518
:105340000840B9050BE50BC3950A5005750E0080A2
:10535000EBA909026D9D74F412242E890B7D007453
:105360000C122CC712613980010DEDC3950B503220
:10537000750A008002050AE50AC39C50ECED25E0A1
:10538000FEE433FFEA2EF582EB3F1253B7F509AE88
:105390000A1253A765087004A3E0650970D7790164
:1053A00080027900026B44EE2EFEE433FFE82EF516
:1053B00082E93FF583E022F583E0F508A3E022745B
:1053C000F612242E12545A7003A3E06D701775085C
:1053D000B37509077808122A21EEFA124183740284
:1053E000122A34801F7508027509807808122A2154
:1053F0008C088D097808122A2112544D1241A77485
:1054000004122A34806974F612242E12545A70033E
:10541000A3E06D70177508C07509077808122A2176
:10542000EEFA1241897402122A34801F750803753E
:1054300009807808122A218C088D097808122A21FF
:1054400012544D1241A77404122A348022125DA80E
:10545000F583E0FD7C801267C6221266FB12787528
:10546000FCE439FD900778E06C227402122A347F44
:10547000020226BD74F612242E74FE122AC8EAFE19
:10548000EBFF851882851983E4F0A3125C3712675D
:1054900012E0FCA3E0FBECFA88828983A3A3E0F985
:1054A000750900750800600574FF6970057508824C
:1054B000803D900778E06A7003A3E06B701AAA1829
:1054C000AB191238A1E9F509851882851983126B89
:1054D0004F701C750883801790099AE0600464017E
:1054E00070057508818008E0640270037508808586
:1054F0001882851983125A07A908EEFAEFFB1241A8
:105500008FE5096011851882851983126B4F60063B
:10551000126E8B123D6902546A74F212242EEAFE56
:10552000EBFF750A00750B0012558B1232DDEA6530
:10553000087003EB650970121238B3E914F50A79A3
:10554000017AE97B071238B98003750B801266EC8B
:10555000F50C780C122A25750CE9750D07780C12DC
:105560002A21780A122A257808122A21E50BF50843
:105570007808122A251265AD1266EFF97A057B804C
:105580001241957407122A340262F51277AE126145
:105590003D88828983127874F508E439F50922740C
:1055A000F612242EE9FE7F0080298A828B83125313
:1055B000B9F8E4C8F9E50828E439F509EF25E0F879
:1055C000E433F9EC28F582ED125DB1EA2402FA50D9
:1055D000010B0FEFC39E40D202546F74E812242EC9
:1055E00074FB122AC88A168B17851882851983E4E2
:1055F000F07403122CC7E4F0A3F004122CC7E4F0FB
:10560000A3F012612A3517125C09F50B850A82F5A1
:1056100083127870FEE439FF850A82850B83A3A389
:10562000E0FA850A82850B83A3A3A3E0F9EAF508D3
:10563000E439F509E50A2404F50A5002050BEEFAEF
:10564000EFFB123379E964016016EEFAEFFB1233D7
:1056500079E9703D900778E06E7003A3E06F6031E8
:10566000126909122A25E4F508F5097808122A2199
:105670007808122A2590077812284575088078083E
:10568000122A251259E61241957407122A3402593A
:10569000D6125A0D8810602B12748A123D6374035F
:1056A000122CC71259E07403122CC7126B4F6013EF
:1056B0007403122CC71259FFA9101240878A0A8B53
:1056C0000B8003751000125A0D880F602712748A20
:1056D000123D637401122CC71259E07401122CC7D9
:1056E000126B4F600F7401122CC71259FFA90F12D1
:1056F00040878003750F00900707805D850A8285CB
:105700000B83A3A3A3A3A3A3A3A3E4F0A3F0AA0AD8
:10571000AB0B851482851583A3A3125A1D12793B06
:10572000F9123CCD851282851383E0C0E085188292
:10573000851983E0F874E928F582E43407F583D00D
:10574000E0126B5304F0E511A2E05007AA12AB136C
:10575000123D69851482851583E0F514A3E0F515E3
:10576000E51445157003025943851482851583A3FA
:10577000A312793B60DD851482851583A3A3A3A3BF
:10578000A3A3A3A3E0A2E050CA851482851583A336
:10579000A3A3A3126B4F851482851583A3A3601F57
:1057A00012793BFA7901851482851583A3A3A3A3FB
:1057B000126DC6124AEE8A128B13751101800F12F8
:1057C0005A1DA3A3E0F512A3E0F513751100E5122D
:1057D00045137003025746851282851383A3E06543
:1057E000087004A3E06509600F74FF650870047415
:1057F000FF65096003025746851282851383A3A3C0
:10580000A3A3A3A3A3122845851282851383A3A370
:10581000A3A3A3A3E0FC7405122CC7126E91A910D8
:105820001240697402122A34E9703C851282851391
:1058300083A3A3A3A3A3A3A3A3A3A3122845851271
:1058400082851383A3A3A3A3A3A3A3A3A3E0FC74B0
:1058500003122CC7126E91A90F1240697402122A0A
:1058600034E97003025746E50F2510C333240AFAC2
:105870007B00123CC18A0A8B0BEA450B700302576E
:10588000248A828B8374D2F0851682851783A3A322
:105890001261398A828B83A3A3E8F0A3E912776BA4
:1058A000A3E51012787CE50FF0E510603CEA2405D2
:1058B000FAE4350BFBE50A240AF8E4350BF98A8291
:1058C0008B831261437403122CC7125A22122A1DB1
:1058D000AC10EC2CFCE433FD8A828B83126E9112A7
:1058E0003C9D7403122A34800D8A828B83A3A3A368
:1058F000A3A3E4F0A3F0E50F70030256FCA810E8A0
:1059000028F8E433F9E50A28F8E50B39F9E8240A20
:10591000FAE439FB850A82850B83A3A3A3A3A3A37F
:10592000A3A31259E07401122CC7125A22122A1D85
:10593000AC0FEC2CFCE433FD123C9D7403122A34B2
:1059400002570E851882851983E0602712690912B3
:105950002A257508E97509077808122A21740312A7
:105960002CC7126912122A2590077812284575084B
:10597000008029EEFAEFFB123379E9702F126909E2
:10598000122A257508E97509077808122A21750871
:10599000007808122A259007781228457808122ADC
:1059A000251259E61241957407122A347403122CF9
:1059B000C7126B4F600B7403122CC7126E91123D0D
:1059C000697401122CC7126B4F600B7401122CC743
:1059D000126E91123D697405122A347F100226BDA1
:1059E000EAF0A3EBF022E5162402FCE43517FDE50E
:1059F0001612653D3517F583E0F97A067B80221291
:105A00005A07AA0AAB0B22E0FCA3E0FD22850A821A
:105A1000850B83E0F8A385820A85830B22126DC66D
:105A2000A322E0F50CA3E0F50D750E00780C2274AE
:105A3000F112242E74F4122AC88A088B09ECFEEDA8
:105A4000FF740B122CC77403F0122AA212479B1288
:105A500032D7EAFCEBFD7403122AA2124795E960E3
:105A60000FEE24131266EF64036010E06401600B14
:105A70008518828519837484025BC18E828F83A30B
:105A8000A3A3A3A3A3A3A3E06018F46015EE2413BB
:105A90001266EF64037016EE24141266EF6003F4CE
:105AA000700B8518828519837482025BC112763966
:105AB000E064217002A3E06003025B988518828590
:105AC0001983748C125C3764036003025B82740177
:105AD000122AAA1262DD124A47E96003025B8212AF
:105AE0003FEB8A0A8B0BEA450B7003025BC28E0CFC
:105AF0008F0D750E00780C122A1D7C157D00123C4E
:105B00009D7403122A34850882850983A3A3E50ABC
:105B10002415FCE4350BFD7409122962127298C039
:105B2000E0E50A241EF582E4350BF583D0E012612E
:105B300049C0E0E50A241FF582E4350BF583D0E087
:105B4000F0E50A2420F582E4350BF5837405F0EEC8
:105B5000240BFE50010FFAEFFB12395B7D007C0035
:105B60007900EEFAEFFB12414D9080A41228417AA1
:105B7000007B109007AAE0F9123E297404122A341F
:105B80008078125BFF122A25125C11124A7174018F
:105B9000122A34E9702C8014125BFF122A25125C41
:105BA00011124A6B7401122A34E9700D851882852E
:105BB0001983E4F0123FBB8009851882851983742C
:105BC00088F0127298F50A780A122A257401122AAE
:105BD0009A880A890B780A122A21E508240CF58292
:105BE000E43509125C094480F50B780A122A211267
:105BF000666F1241417405122A34740C026D9AEEDC
:105C00001262EAE0F50A780A22F583E0F50AA3E0D9
:105C100022EE240BFCE43FFD8E828F83A3A3A3A37B
:105C2000A3A3A3A3A3126ECE8E828F83A3A3A3A349
:105C3000A3A3A3A3E0F922F01277AEE022C082C0B2
:105C40008374F3122AC8851882851983E4F004123C
:105C50002CC71259E07403122CC7AA82AB83122EF0
:105C600057AA18AB19122E93740D122A34026E80A3
:105C700074F612242E1266F7FAA3E0F9EAF89007F8
:105C8000BBE058F508A3E059F509E5084509601C93
:105C90007808122A219007781228451266ECFD7CBC
:105CA000001267C21241A17404122A3402546F74A4
:105CB000F412242E74FF122AC8EAFEEBFF85188224
:105CC000851983E4F090098EE06021EE240B1266C2
:105CD000EF640160178E828F83A3A3126139EE24D3
:105CE000151266EF687003A3E0696003025DA312FA
:105CF000659D126137E8FAE9FB88828983A3A3A333
:105D0000A3A3A3A3A3E0FC88828983A3A3A3A3A343
:105D1000A3A3A3127815EC28F508E439F509EC459E
:105D2000096010EC9471E99408500890099AE064B5
:105D300002700A85188285198374808038122ECFEC
:105D40008A0A8B0BA80AA90BE849602188828983FB
:105D5000A3A3A3A3E06016C394035011E824121276
:105D60005DAEE82414125DAE123FBB800985188237
:105D70008519837481F0125DA8126910122A2574A6
:105D800001122A9A880889097808122A2175081FA1
:105D90007509807808122A211265A3124141740501
:105DA000122A347401026B41EE1276603F22F582B2
:105DB000E439F583E508F0A3E509F02274EA12243A
:105DC0002E74DB122AC88A148B1575120075130005
:105DD000127933F50EAC18AD197A007B00799C125C
:105DE0002FB37A047900122EA5EAF50C8518828566
:105DF0001983E02AF0F8E50EC3984003025FDBE068
:105E0000C3950EF509C394044003750903E50975AC
:105E1000F01AA4FAABF0123D638A128B13EA451311
:105E20007003025FDE750D00AE12AF13850E0880A1
:105E30007E126046123CA9850A82850B83A3A3A328
:105E4000A3E0702D850A82850B83126B4F700C12B4
:105E50006FDBF0EE2418126FDE8010126054F090A9
:105E60000567E014C0E012602ED0E012607FE4808D
:105E700034900567E004C0E012602ED0E012607735
:105E8000C39403EE4003025F421262E674021260A2
:105E90007764017003025F4FEE2415126057F0EE35
:105EA0002416126057F0EE241AFE50010F050DE57E
:105EB0000DC395094003025F7AE508C3950C4003C2
:105EC000025F5885080AAA0A7B00122F178A0A8BDC
:105ED0000B050890055412606012479B850A828565
:105EE0000B8312613912603CE8F0A3E912609185DE
:105EF0000A82850B83A3A3A3A3A3A3A3A3A3A3E0C5
:105F0000C0E0126024D0E0F07401122CC7E4F085E8
:105F10000A82850B831261397402122CC712614305
:105F20007401122AA2122E81E964016003025E311B
:105F30007404122CC7AC82AD8312604C12479B02D2
:105F40005E3712605512607764036003025E98EE5C
:105F50002415126FDE025E9EE50CC3950E4005759A
:105F60000800801DE50EC3950CF5088014126054DE
:105F7000F0EE241AFE50010F050DE50DC3950950F2
:105F80005D740E122AAA85080AAA0A7B0079871274
:105F90002FB305087418122CC712606012479B12A9
:105FA0006046123CA9EE2412F8E43FF9740E122C5C
:105FB000C7126E9188828983EAF0A3EB12607F7426
:105FC00003126091741D122CC7E0C0E0126024D04F
:105FD000E0126DF87097126FDB8095750900750AF5
:105FE00000780A122A257812122A217809122A2505
:105FF000E50EF5097809122A257405122CC7E0FD73
:106000007C001265291241DD7405122A34E512451F
:10601000136007AA12AB13123D697425122A347F4C
:106020000E0226BDEE2419F582E43FF583221260AC
:106030003222EE2418F582E43FF58322EE2412F595
:1060400082E43FF583227C087D0079FFEE240AFA82
:10605000E43FFB22EE2414F582E43FF58374012231
:1060600012613D8E828F83E8F0A3E9F07C687D05A4
:10607000EE1267DD3FFB221277D0A3A3A3E022F04C
:10608000EE126FD27402F0EE2416F582E43FF5832F
:1060900022F0EE2417F582E43FF5837402F01260DB
:1060A0003274FFF02274F612242E74F9122AC88A70
:1060B000088B0912612A35091278FD123CB5EAF8FD
:1060C000EBF9ECFAEDFB851882851983122CB0EE02
:1060D0002404FE50010F8E828F83E0C0E07404120E
:1060E0002CC7D0E0126DCFFA7405122CC77401F0E2
:1060F0007406122CC77401F0900782F090078B048D
:106100001277E7A3126139900783126143EA90077F
:106110008C126149900781F0AA18AB19122F53E92C
:106120006003122F59740702546CEA12612F221275
:10613000670C2212753639F58312613D22E0F8A30F
:10614000E0F922E8F0A3E9F022F0127745E02274AA
:10615000F212242E74FF122AC87508007E007F00F8
:106160001232058A0A8B0B1232058A0C8B0DA80C91
:10617000A90D80050508126133E84970F790099A66
:10618000E060076401600302625A1232058A0C8BD8
:106190000DA80CA90D8003126133E849603688828E
:1061A0008983126E91900554E06A7003A3E06B60DE
:1061B0000D12753639F583126E91EA4B70D98882CB
:1061C0008983126139900554E0687003A3E0697017
:1061D0000302625A7A167B00123D638A0C8B0DAE65
:1061E0000CAF0DEE4F60739005541261398E828FA3
:1061F00083126143900549E08E828F83A3A3F0123E
:106200003361E98E828F83A3A3A3A3A3F09015D457
:106210001277C4F07C687D051262DD12479BAA18D4
:10622000AB197941124867851882851983E06008A7
:10623000900778126139800478FE79FF8E828F830F
:10624000A3A3A3A3A3A3A31261431262E5E50AF0EB
:10625000A3E50BF08E0A8F0B050890078CE0F8E59C
:1062600008C39850047A008022E508C398FAC394C2
:106270000640027A057900800DE50A127537350B64
:10628000125C09F50B09E9C39840EE75090078091D
:10629000122A25780A122A21EAF5097809122A25F4
:1062A00090078CE0F5097809122A25AD087C007A60
:1062B000837B07900781E0F91241D77405122A34D5
:1062C00090099AE060046401700BEE4F6007EEFAEB
:1062D000EFFB123D69122F597401025585EE240B14
:1062E000FAE43FFB22EE1262EA221275373FF58391
:1062F00022EEFAEFFB7F060226BD74EC12242E7408
:10630000FF122AC88A0A8B0B7E008E0E8E0F126136
:106310002A350B127939FFAC18AD197A007B007958
:106320009D122FB3851882851983E0F8EFC398403A
:10633000030263D5E0C39FFEC3940B40027E0AEEC6
:1063400075F007A4FAABF0123D638A088B098A0E38
:106350008B0FEA450F607C750C00801A85088285DA
:106360000983A3A3A3A3A37403F0E5082407F508F6
:1063700050020509050CE50CC39E5059AC08AD0947
:10638000850C10E5102FFAE43400FB798B122FB343
:10639000850882850983A3A3A3A3A3E0146008143E
:1063A000601314601F80B5850882850983A3A3A3A9
:1063B000A3A3E480B4850882850983A3A3A3A3A330
:1063C000740180A5850882850983A3A3A3A3A37470
:1063D0000280967E007508007808122A25780E1231
:1063E0002A21EEF5087808122A25EFF50878081218
:1063F0002A257405122CC7E0FD7C00E50A1267DD32
:10640000350BFBE50A12653D350BF583E0F91241CA
:10641000E37405122A34E50E450F6007AA0EAB0F90
:10642000123D697401122A347F0C0226BD74EA12EF
:10643000242E74FE122AC88A148B15750A00750B57
:1064400000127933F508AC18AD197A007B0079A3F6
:10645000124A5F85080C851882851983126139C339
:10646000E50C98E499507D851882851983E0C395E1
:106470000CFEA3E09400FFC3EE9404EF94004006EA
:106480007E037F008004EE4F605AEEFAEFFBEA7560
:10649000F015A4FAA8F075F015EBA428FB123D63E3
:1064A0008A0C8B0D8A0A8B0BEA450B603775090045
:1064B000750E00850E10C3E5109EE49F502BAC0CAA
:1064C000AD0D850E12850810E5122510FAE4340092
:1064D000FB79A2124A5FE50C2415F50C5002050D5C
:1064E000050E80CF75098B7E00750C00780C122A82
:1064F00025780A122A21EEF50C780C122A25780844
:10650000122A257405122CC7E0FDAC091265291268
:1065100041E97405122A34E50A450B6007AA0AAB63
:106520000B123D69740202601CE5141267DD35151B
:10653000FBE51412653D3515F583E0F922240FF5CE
:1065400082E42274F612242E74FF122AC8EAFEEBAB
:10655000FF12659D12767DA3A3A3A3A3A3A3A3E02B
:10656000F9122F77E9851882851983F0750800786C
:1065700008122A257401122A9A88088909780812B3
:106580002A217508357509807808122A211265A319
:106590001241417405122A34740102546CEE1261E6
:1065A0002F3F2279011265ADFAE43FFB22EE24026F
:1065B000FCE43FFDEE240F2274F412242E74FA1230
:1065C0002AC88A088B09EA12753D12754DFFEEFA4A
:1065D000EFFB122E5DE960131232D7EAFCEBFDEE01
:1065E000FAEFFB124795E96401700A7401122CC797
:1065F000E4F0A380097401122CC7EEF0A3EF127827
:1066000003A3A3A3A3A3E0F8A2E650087403122CEB
:10661000C77401F0E8A2E750087404122CC7740193
:10662000F07405122CC7E4F004122AA2122FA7E975
:10663000851882851983F07A007B001232FB750A77
:1066400000780A122A257401122A9A880A890B787E
:106650000A122A21750A34750B80780A122A21122F
:10666000666F1241417405122A347406026B417937
:1066700001E5082402FCE43509FDE508240FFAE4ED
:106680003509FB2274F612242E74FF122AC81266F2
:10669000F7F509A3E0F508A909122F65E985188225
:1066A000851983F090099AE0700B740165087005F4
:1066B000A9091242A3EE240B1266EF702C75080094
:1066C0007808122A257401122A9A880889097808FC
:1066D000122A217508367509807808122A21126558
:1066E000A31241417405122A34026598EE240EF576
:1066F00082E43FF583E0221266FB22EAFEEBFF1202
:10670000670B3FF583E0126712E022EE2413F58257
:10671000E422F8A3E0F98882898322C082C08390B2
:10672000099AE070031242A9026E8074F412242EBA
