:020000040000FA
:100000000212FC022003FFFFFFFFFF02200BFFFF95
:10001000FFFFFF020E5DFFFFFFFFFF02201BFFFF40
:10002000FFFFFF022023FFFFFFFFFF02202BFFFF48
:10003000FFFFFF022033FFFFFFFFFF020EA0FFFFC5
:10004000FFFFFF022043FFFFFFFFFF02204BFFFFE8
:10005000FFFFFF022053FFFFFFFFFF02205BFFFFB8
:10006000FFFFFF022063FFFFFFFFFF02206BFFFF88
:10007000FFFFFF022073FFFFFFFFFF02207BFFFF58
:10008000FFFFFF022083FFFFFFFFFF02208BFFFF28
:10009000FFFF70DFFFFF040000000002000000C847
:1000A0000300030369A5020269A501000000000026
:1000B00004003273000074F8121043900393E06060
:1000C0001590030274FEF0900304744DF0A37405C0
:1000D000F07A011206747F0102116074F712104366
:1000E00074FF1212687E00801F851882851983E0D4
:1000F00064FE70069003877401F085188285198369
:10010000E0F8900384E068F07C017D00AA18AB1948
:10011000120E188B09EA450970030201E98518825D
:10012000851983E064EF70027E07E0C0E0900387EA
:10013000E0F8900385E0FAE82AF8E434001206C7F4
:10014000D0E0F0900387E060A014600E14602A14E1
:10015000603A14605014606680A0900384E4F085D7
:100160001882851983E0900386F0C39480900387FA
:100170004003E4808474028080851882851983E0BE
:10018000900382F090038774030200F9851882853A
:100190001983E0900383F0900386E0601990038751
:1001A00074040200F9900385E004F0F8900386E0FF
:1001B0006860030200FA90038774050200F9900357
:1001C00085E4F0900387F0900384E0F88518828539
:1001D0001983E06860030200FA900382E0644D60D6
:1001E000030200FA12031E8002EEF97401121234A7
:1001F0007F0202116074F712104374FB121268EA56
:10020000FEEBFF75080475090078081212CC740221
:100210001212E57A907B007904120EC17402121258
:1002200034120666121336E0687003A3E069701298
:10023000851882851983E0F47003A3E0F46003025B
:1002400002FE74041212DD1206D38A088B09A80874
:10025000A9097402121336E8F0A3E9F0740412132A
:1002600036E0600879011200B6020317851882850E
:100270001983E0687003A3E0697076851882851998
:1002800083E0F47003A3E0F470197402121336745F
:1002900010F0A37420F08518828519837410F0A3E0
:1002A0007420F075080175090078081212CC7402E8
:1002B0001212E57A247B08120F467402121234756A
:1002C000080478081212CC74021212E57A907B00AE
:1002D0007904120EC1740212123412066612133619
:1002E000E0687003A3E069700479028006790480F5
:1002F0000279031200B68E828F83741E80058E826F
:100300008F83E4F0120666121336E0687003A3E0F0
:1003100069700479018002790074050201ED74EDC1
:1003200012104374F8121268900307E0FA90030663
:10033000E0FB8B08EAF8E4C8F9EB28FEE93408FF93
:10034000751001880C750D068F0974027808121259
:1003500093C39508F8E49509F9740228F50E74031F
:1003600039F50F8E088F09740978081212EDE50827
:10037000F511EE2410F508E43FF509EEF50AEF5407
:1003800001F50B900383E0146054147003020453CE
:100390001470030204CE14601024FE700302058959
:1003A000147003020639020649750D03794E120CCA
:1003B0005890030712065C7402F0A3744012065AA8
:1003C000740812065AF0A3F0751012AA10A90C12A4
:1003D0000674A90D74081212347F0C021160750D99
:1003E00004794E120C58EE450B7005A911120FAC92
:1003F000C3EE9425EF9408503CC3E5089424E50926
:1004000094084031E50E2496F8E50F3420F98882EF
:100410008983E0701BA3AA82AB83E07013900388EA
:100420007401F08882898374A5F08A828B838004AA
:10043000900388E4F075081075090078081212CC52
:100440007C087D03EEFAEFFB120F467402121234A1
:100450000203CB750D05E511C394794006750C01B7
:100460000203CB75124075130078121212CC7C096E
:100470007D037402780A121293AA0AAB0BA9111217
:100480000EC17402121234900307E0A3F090030629
:10049000E0A3F0751043C3EE9425EF9408400302E7
:1004A00003CBC3E5089424E509940850030203CB69
:1004B000900388E070030203CBE50E2497F8E50F64
:1004C0003420F988828983E4F0A3F00203CB750815
:1004D0000475090078081212CC74021212E57A90A1
:1004E0007B007904120EC1740212123474021213CA
:1004F00036E0F8A3E0F9851882851983E068700377
:10050000A3E069851882851983700BE0F47003A35A
:10051000E0F470578009E0F47003A3E0F4700D85F7
:1005200018828519837410F0A37420F012066612E5
:100530001336E8F0A3E9F075080178081212CC74BC
:10054000021212E57A247B08120F4674021212344A
:1005500075080478081212CC74021212E57A907BA6
:10056000007904120EC174021212341206661213BC
:1005700036E0687003A3E0697006750D010203CBD5
:10058000750D02750C070203CB900391E0600764C0
:100590000260030203CBEAFF7A017900120674E0DD
:1005A000600302062D8003120D19120D23E970F766
:1005B000740412133612064E74041213367808129D
:1005C000131A85080C85090D850A0E850B0F9005F9
:1005D000A2780C1212B97404121336780C12130B91
:1005E000E5084509450A450B70CE8EC2E5C554E0C5
:1005F0004FF5C5740412133612064E7404121336E6
:10060000780812131A85080C85090D850A0E850BCA
:100610000F9005A2780C1212B97404121336780CDC
:1006200012130BE5084509450A450B70CE7A01798E
:100630000012067479080203D4EB900393F0700360
:100640000203CB750D090203CB79060203D4E4F053
:10065000A37426F0A3E4F0A3F022F0A3E4F0A3F047
:10066000A3F0A3F0A322851882851983E0F8A3E004
:10067000F974022274F6121043EAFE900305E0D2E8
:10068000E7F0E9A3F0EE900303F08E0A74042AFE6B
:100690007A028004E0620A0AEAF83395E01206C79B
:1006A0008E08C3E89508E99400A2D265D03340E4EF
:1006B000E50AF0740128FC3395E0FD7A027B031211
:1006C0000E487F03021160F9740228F58274033921
:1006D000F5832274E91210437582007583FE1211AE
:1006E000FB8A168B177514007515008A828B83E4BC
:1006F000F0900391E07006D2AAD2AF800464027039
:100700000579001200B6750C00750D20750E007588
:100710000F00900391E0600464027015120D19122D
:1007200000DBE9F87409686003020803790012002D
:10073000B675080075090278081212CC74021212FC
:10074000E5850C08850D09AA08E5095407FB850E07
:100750000A850F0B740B780812124FA908120EC1EC
:1007600074021212347E007F009005AAC0828E109F
:10077000EFF5113395E0F512F513850C08850D0999
:10078000850E0A850F0B780879101212A69005A61F
:1007900078081212B9758305D08278081211DC50DE
:1007A0001D851882851983E5822EF582E5833FF544
:1007B00083E0F9AA14AB151208328A148B150EEED9
:1007C00070010FC3EF940240A09005AE780C121296
:1007D000B99005B2780C1211DC40030207127900BF
:1007E000AA14AB1512083279001208328B15900347
:1007F00091E07004C2AFC2AAEA451570277AA57BC2
:10080000A58021E8700302073174066870030207AF
:100810003174076870030207318516828517837467
:1008200001F080BA7582007583021211FB7F1002FD
:100830001160C008C0097C088A088B09740F780809
:100840001212EDEA25E0FAEB33FBE9A2E75004745B
:10085000014AFAE508A2E0500874216AFA74106BA4
:10086000FBE9C333F91CEC70CFD009D0082274F730
:1008700012104378007900802374942508F582E4EF
:100880003403F583E08A828B83F09004141209F319
:100890004005900414E4F008E87001099004141273
:1008A000095D6007C3E89CE99D40CEE8FAE9FB7F5B
:1008B0000202116074F5121043900498E0FEA3E068
:1008C000FF8F08EEC39508F895E0F9EFC39EE85056
:1008D0000B120ADA701178007900801B247F500116
:1008E00009C39CE99D50EF7A007B008041E004F051
:1008F000D2E908E8700109C3E89CE99D502C8A827E
:100900008B83E0C0E0900499E0FE74182EF582E439
:100910003404F583D0E0120ACA90049AE4F09004FB
:1009200099E0C3947F40C6E480C5E8FAE9FB7F0400
:1009300002116074F7121043C2E990049812095D25
:10094000601874182508F582E43404F583E0F5C1D5
:10095000900498120AF14002E4F00208AFE0F508B2
:10096000A3E065082274F71210437800790090051F
:100970001DE07063A3E0705F75F900C28FC284A2AE
:100980008340FCA28F4004A28350F8E5F9C28FA2F5
:10099000835004D2848040C0E0E0FE749D2EF58236
:1009A000E43404F583D0E0F090051E120AF140D340
:1009B000E4F080CF749D2508F582E43404F583E0EB
:1009C0008A828B83F090051D1209F3400590051D66
:1009D000E4F008E870010990051D12095D6007C385
:1009E000E89CE99D40CEE8497006E4F090051DF0D2
:1009F0000208ABE004120ACEC394802274F81210ED
:100A0000439005A0E0FF8F82A88290059FE0FEEF53
:100A1000C39EE0500DC398F895E0F9120AD97018FA
:100A20008012C398F895E0F9E8247F500109C39C2F
:100A3000E99D4004EC4D70077A007B00020AC58AEC
:100A4000828B83E0F5F9A3AA82AB837801790080D9
:100A500008E004F008E8700109C3E89CE99D50270C
:100A60008A828B83E0C0E09005A0E0FE741F2EF523
:100A700082E43405F583D0E0120ACA9005A0E0C3F1
:100A8000947F40CDE480CCC28FA28340FCC284A27C
:100A90008F4004A28350F890059F120AE4E0F5F914
:100AA000C28F90059FE0FAA3E06A90059F7005123F
:100AB0000AE48005120AF14002E4F0A28350D0D289
:100AC00084E8FAE9FB7F01021160120ACE22F08A63
:100AD000828B83A3AA82AB8322E824FF18E934FF28
:100AE000F9E84922E0FA741F2AF582E43405F58317
:100AF00022E004F0C394802274FB1212687E0090FE
:100B000005CA780812131A9005CA7401F0A3F0A35D
:100B10007469F0A374A5F09005B6780812127E707F
:100B2000030E80159005BA780812127E6008E59DC4
:100B3000541864107003022000120C7EEEA2E050E4
:100B400003020BFBAA18AB191201F5E97003020BA3
:100B5000FB851882851983E0C3943C500CE0F8743F
:100B60003CC398FA95E0FB80047A007B00120D3CB0
:100B7000E97003020BFB900391E06401700C75F8BF
:100B800000C2AB539AF7D2EA805E79071200B680B2
:100B900003120D19120D23E970F77401121336E4D4
:100BA000F0A37426F0A3E4F0A3F0740112133678D6
:100BB0000812131A85080C85090D850A0E850B0F7E
:100BC0009005A2780C1212B97401121336780C1227
:100BD000130BE5084509450A450B70CE758600C222
:100BE000AAC28B539AFBC2E990000174CDF0022097
:100BF00000C2AF75C9AB75C95B80FE750800750989
:100C000000750A00750B00900391E0701BD2AAD208
:100C1000AF79051200B6E07003120D191200DBE97E
:100C2000F8740968700980E9794E120C5880ED74E7
:100C3000016870E2E07017120D199005BE78081275
:100C400012B99005C278081211DC50EBC2AAC2AFEB
:100C500075C9AB75C95B80FEC082C08378109005F2
:100C6000A1E0C399501575B60FE5B4A2E750FAE5B7
:100C7000BBC39940F118E870EDE9F0020D37C0826E
:100C8000C08353BEFBE59DA2E650FA0078F87901D7
:100C900000120AD970FA75C6807480659E70FA4396
:100CA000BE049062707408F0794A120C58900001EA
:100CB00074F5F07403F5D575D489A2A0E4339003DC
:100CC00091F0A2E05029D28453F3F753F3EF53FD90
:100CD000F743FD10538FF753F7DF43FC2043F10236
:100CE00053F5DF75F82043F4F0D2FED2AB802853E1
:100CF000FF3F85FFFF53F1FE43F30C53F2F375867C
:100D00008075C48090049BE4F0A3F075C2D875C5CB
:100D10000B75C402438640801E8003120933A2E98A
:100D200040F922C082C083900498E0F8A3E0686094
:100D300004790180027900D083D0822274F11210EC
:100D40004374FF1212687E00900391E06401706B9F
:100D5000C2849003927401F07508388E098E0A8E51
:100D60000B7C017D00AA18AB19120E188B0DEA45F9
:100D70000D6018851882851983E06410602CE0648A
:100D8000EF70088E088E098E0A8E0B85080C850977
:100D90000D850A0E850B0F9005A278081212B9E591
:100DA0000C450D450E450F70330E900391E0640124
:100DB0007056D284900392E4F08051D2AAD2AF8AC6
:100DC000088B09E4F50AF50B9005C6780C12131A86
:100DD0007808790C120FC379061200B6900391E0DF
:100DE0006003020D61120D191200DBE9F874096845
:100DF000700779061200B680927407686085E86013
:100E00008A74066870A48083C2AFC2AAEEF9740126
:100E10001212347F08021160C082C083900391E0F7
:100E2000700512086E801E900392E06015A28F502C
:100E30000BE5F98A828B83F07A0180027A007B00CD
:100E40008003120965020D37C082C083900391E0D0
:100E500070051208B480031209FC020D37C0E0745B
:100E6000F21210A9900001E064CD700512201380E9
:100E70002AE064F57024E5C1C28BC0E0900415E05F
:100E8000F8749428F582E43403F583D0E0F09004FC
:100E900015120AF14005E4F08001007F01021108FB
:100EA000C0E074F21210A9900001E064CD70051248
:100EB000203B800BE064F57005120933800100804F
:100EC000DA74F51210438908740F5508F50A750B8A
:100ED00000740B780A121293EA2400F8EB3480F9BC
:100EE000E82400E9350BF9E5C7F509A2AFE433F5CD
:100EF0000AC2AFE508C4540FFAE5C754F84AF5C76B
:100F0000740B121336E0FAA3E0FB801C88828983FD
:100F1000E08C828D83F088828983A3A882A9838C48
:100F2000828D83A3AC82AD83EAFEEBFFEE24FF1A31
:100F3000EF34FFFBEE4F70D48509C7E50AA2E092BB
:100F4000AF7F0402116074F7121043ED900389F033
:100F5000ECA3F0A37462F0A37473F0A3E0541FF049
:100F60007409121336E0F508A3E0F509E5083333F8
:100F700054FC90038EF0740678081212EDE5089088
:100F8000038DF090038F7412F0A37442F075D1FEBC
:100F900075D601EA906271F0EBA3F0906270E0D236
:100FA000E1F0E0A2E740FB7F02021160C082C08353
:100FB000E9C333906272F0906270E0D2E0F0D083C7
:100FC000D08222080808EAC0E0EBC0E086F0E7A47F
:100FD000FA180986F0E7A42AFA180986F0E7A42A85
:100FE000FA180986F0E7A42AFA1986F0E7A4FBE5C7
:100FF000F02AFA190886F0E7A42BFBE5F03AFA1973
:101000000886F0E7A42BFBE5F03AFA18180986F0F9
:10101000E7A4C5F02BFBE43AFA1908E7C5F0C6A42B
:1010200026F6E5F03BFBE43AFA1886F0E7A4F6E58D
:10103000F00826F6E43B08F6E43A08F6D0E0FBD0E8
:10104000E0FA222518C582C0E0E51934FFC583C047
:10105000E0E518C3958224F910AF088583198582CD
:10106000188008858319858218D2AFCEF0A3E520B9
:10107000F0A37808E608F0A3DEFAEFF0A3E58124F8
:10108000FBF8E608F0A3E608F0A30808E608F0A3DA
:10109000E608F0A315811581D0E0FED0E0F81581B7
:1010A0001581E8C0E0EEC0E022C0D02518C582C09E
:1010B000E0E51934FFC583C0E0E518C3958224F349
:1010C00010AF088583198582188008858319858269
:1010D00018D2AFC8F0A3E9F0A3EAF0A3EBF0A3792C
:1010E00008E709F0A3D8FAECF0A3EDF0A3EEF0A323
:1010F000EFF0A3D0E0F0A3D0E0F0A3D0E0F0A3E5C0
:1011000020F0A3E5F0F0A322851983851882E0C0C2
:10111000E0A3E0F9A3E0FAA3E0FBA37808E0F60877
:10112000A3DFFAE0FCA3E0FDA3E0FEA3E0FFA3E061
:10113000C0E0A3E0C0E0A3E0F5D0A3E0F520A3E089
:10114000A3F5F010AF088583198582188008858380
:1011500019858218D2AFD082D083D0E0F8D0E032A7
:10116000851983851882E0A3FEE0A3F5207808E0C6
:10117000A3F608DFFAE0A3FFE0A3C0E0E0A3C0E02D
:10118000E0A3C0E0E0A3C0E010AF0885821885832B
:10119000198008858218858319D2AFD083D0822226
:1011A000E490030278A179038002F0A3D8FCD9FA75
:1011B0007AA27B0590008E782979018015E493A3AB
:1011C000AD82AE838A828B83F0A3AA82AB838D82A9
:1011D0008E83D8E9D9E7120AF8121340C008C3E099
:1011E00096F50808A3E096420808A3E0964208088E
:1011F000A3E09645087001D3D00822C5822518C502
:1012000082C583351910AF07F5198582188007F557
:1012100019858218D2AFC583222518F58210AF0830
:10122000F518400C15198008F51840021519D2AFB1
:101230008519832200C0D0251810AF08F518500C6E
:1012400005198008F51850020519D2AFD0D02260D8
:1012500016080808C6C313C618C613C618C613C690
:1012600018C613C6D5E0EA22251810AF08F51840B5
:101270000C15198008F51840021519D2AF22E06646
:10128000701008A3E066700A08A3E066700408A363
:10129000E06622700422600D18C6C333C608C63348
:1012A000C6D5E0F41822E627F60809E637F608095D
:1012B000E637F60809E637F622E026F608A3E03618
:1012C000F608A3E036F608A3E036F62274028000A2
:1012D000C0E0F404121219D0E0121329222518FAE2
:1012E000E43519FB222518FCE43519FD22600C08B1
:1012F000C6C313C618C613C6D5E0F42275D0007550
:10130000813F7518027519030211A0E6F008A3E6E3
:10131000F008A3E6F008A3E6F022E0F608A3E0F662
:1013200008A3E0F608A3E0F622CAC0E0E6F0A308AE
:10133000DAFAD0E0FA222518F582E43519F583228D
:1013400000000080FBFFFFFFFFFFFFFFFFFFFFFF2D
:10135000FFFFFFFFFFFFFFFFFFFFFFFFFFFFFFFF9D
:10136000FFFFFFFFFFFFFFFFFFFFFFFFFFFFFFFF8D
:10137000FFFFFFFFFFFFFFFFFFFFFFFFFFFFFFFF7D
:10138000FFFFFFFFFFFFFFFFFFFFFFFFFFFFFFFF6D
:0A1FF600CA05094338860000000008
:020000040003F7
:01FFF000F020
:020000040000FA
:10200000022C420221EAFFFFFFFFFFFFFFFFFFFF5D
:10201000FFFFFFFFFFFFFFFFFFFFFFFFFFFFFFFFD0
:10202000FFFFFFFFFFFFFFFFFFFFFF02291CFFFF76
:10203000FFFFFFFFFFFFFFFFFFFFFFFFFFFFFFFFB0
:10204000FFFFFF022749FFFFFFFFFFFFFFFFFFFF2B
:10205000FFFFFF022126FFFFFFFFFFFFFFFFFFFF44
:10206000FFFFFFFFFFFFFFFFFFFFFF0228F4FFFF5F
:10207000FFFFFFFFFFFFFFFFFFFFFFFFFFFFFFFF70
:10208000FFFFFF02218601FFFFFFFFFFFFFFFFFFB2
:102090001020102001FF01010503010F10FEFF10A9
:1020A0004D00000000A84C00000000FF000000FFF1
:1020B00000010000C139000000001339FF3A5B390C
:1020C000753A0000493900000000000000000000DF
:1020D0000000000000000000000000000000FF0100
:1020E0000100A907000000E803FFFF2408E80364DB
:1020F000006400B8010202000800000502070101A7
:10210000051E02051E020A0A0103B80B02803E01E9
:1021100002FEFFE8030A050001FFFF0A01E09651F5
:1021200018000206FFFFC0E074F2122567A2AFE4B8
:1021300033FED2AFE5A7FFE5A1F5085F54106006B6
:1021400012446575A1EFE5085F5408600812446BFE
:1021500075A1F78024E508A2E092F0EFA2E082F0FA
:102160005017906198E0F8900D5BE0C398A2D2659B
:10217000D0335002E8F075A1FE751A00EEA2E0928D
:10218000AF7F010225C6C0E074F2122567A2AFE45A
:1021900033FED2AF9061A4E0F8759B00E5915854EE
:1021A0000860087591F71244B38023E591585410E4
:1021B00060087591EF1244B98014E591A2E092F0A5
:1021C000E8A2E082F05007E0C2E0F012460F906112
:1021D000A3E0F8E5E9585404600E1245E575E9FB03
:1021E000906193E0A2E640F2808FC0E074F2122585
:1021F00067A2AFE433FED2AF9061A5E0F8E5BF5827
:102200005404600675BFFB124627022179C3E49887
:10221000F8E499F912224E8026C3E49AFAE49BFB73
:10222000E920E7E912224EE498F8E499F922C3E4A0
:1022300098F8E499F912224EE498F8E499F9C3E485
:102240009AFAE49BFB22EB20E7CFE920E7E0B90014
:1022500010BB0008E88AF084F8AAF022E4FBC8FA70
:1022600022EB70227B10C833C8C933C9335007C36F
:102270009AC3DBF280069A50012ADBEAC833F4C81D
:10228000C933F4C9FA2275F008E4C833C8C933C9A0
:1022900033C99AC99B5004C92AC93BD5F0ECFBC885
:1022A00033F4C8E4C9FA2274F512250174FA122A2B
:1022B000C87508047509007808122A217404122AC6
:1022C000AA7AF87B07790312433F7402122A3490EA
:1022D00080B07808122C707402122CC77808122A69
:1022E000DE70497508027509007808122A21740207
:1022F000122AAA7AF67B07790312433F7402122A44
:1023000034851882851983E0F47003A3E0F4601C1F
:10231000851882851983E0F8A3E0F988828983749F
:1023200002F0A3F0A37469F0A374A5F0C2AF75D650
:102330009F0200007406122A347F0402278C0808CA
:1023400008EAC0E0EBC0E086F0E7A4FA180986F0DE
:10235000E7A42AFA180986F0E7A42AFA180986F0F1
:10236000E7A42AFA1986F0E7A4FBE5F02AFA19088F
:1023700086F0E7A42BFBE5F03AFA190886F0E7A40B
:102380002BFBE5F03AFA18180986F0E7A4C5F02B04
:10239000FBE43AFA1908E7C5F0C6A426F6E5F03BD7
:1023A000FBE43AFA1886F0E7A4F6E5F00826F6E42E
:1023B0003B08F6E43A08F6D0E0FBD0E0FA22E4CF9E
:1023C000C0E0E4CEC0E0E4CDC0E0E4CCC0E075F015
:1023D00020E626F608E633F608E633F608E633F696
:1023E000181818EC33FCED33FDEE33FEEF33FFC36A
:1023F000EC9709ED9709EE9709EF97191919400F16
:10240000FFEC97FC09ED97FD09EE97FE191906D52B
:10241000F0BFECF709EDF709EEF709EFF719191915
:10242000D0E0FCD0E0FDD0E0FED0E0FF222518C5D2
:1024300082C0E0E51934FFC583C0E0E518C395828A
:1024400024F810AF088583198582188008858319C0
:10245000858218D2AFCEF0A3E520F0A37808E60875
:10246000F0A3DEFAEFF0A3E58124FAF8E608F0A382
:10247000E608F0A3E608F0A30808E608F0A3E608DB
:10248000F0A315811581D0E0FED0E0F8158115810B
:102490001581E8C0E0EEC0E022122CBCB9000302B6
:1024A00024EBE49004D1781379118002F0A3D8FCD6
:1024B000D9FA781A9020867A01BA00028007E4934C
:1024C000A3F608DAF97AE37B1490209478937901E3
:1024D0008015E493A3AD82AE838A828B83F0A3AA96
:1024E00082AB838D828E83D8E9D9E7758228758384
:1024F0008F74061229E075823B75834A7400122995
:10250000E02518C582C0E0E51934FFC583C0E0E5C9
:1025100018C3958224F910AF088583198582188025
:1025200008858319858218D2AFCEF0A3E520F0A3E9
:102530007808E608F0A3DEFAEFF0A3E58124FBF8C3
:10254000E608F0A3E608F0A30808E608F0A3E6080A
:10255000F0A315811581D0E0FED0E0F8158115813A
:10256000E8C0E0EEC0E022C0D02518C582C0E0E59A
:102570001934FFC583C0E0E518C3958224F310AF7A
:10258000088583198582188008858319858218D269
:10259000AFC8F0A3E9F0A3EAF0A3EBF0A37908E752
:1025A00009F0A3D8FAECF0A3EDF0A3EEF0A3EFF05E
:1025B000A3D0E0F0A3D0E0F0A3D0E0F0A3E520F0BA
:1025C000A3E5F0F0A322851983851882E0C0E0A37B
:1025D000E0F9A3E0FAA3E0FBA37808E0F608A3DFA4
:1025E000FAE0FCA3E0FDA3E0FEA3E0FFA3E0C0E06F
:1025F000A3E0C0E0A3E0F5D0A3E0F520A3E0A3F5BD
:10260000F010AF08858319858218800885831985A5
:102610008218D2AFD082D083D0E0F8D0E032E47319
:1026200075F0108E218F228582268583258518825C
:10263000851983E0CEA3E0CF852682852583EBC96B
:10264000EAC8EDCBECCAC3E833C8E933C9EA33CAF8
:10265000EB33CBC3EA9EF524EB9FF523B35004ABD9
:1026600023AA24EC33CCED33CDD5F0DAAE21AF2262
:1026700022D083D082ECC0E0EDC0E0E493A3FCE480
:1026800093A3FDED4C600D1227CCEC24FFFCED3440
:10269000FFFD80EFE493A3FCE493A3FDED4C600DFC
:1026A00012289FEC24FFFCED34FFFD80EFD0E0FD0D
:1026B000D0E0FCE493A3C0E0E493C0E0228519835A
:1026C000851882E0A3FEE0A3F5207808E0A3F608D1
:1026D000DFFAE0A3FFE0A3C0E0E0A3C0E0E0A3C016
:1026E000E0E0A3C0E0E0A3C0E010AF088582188559
:1026F00083198008858218858319D2AFD083D08250
:102700000229E6D083D082E9C0E0E493A3C386F037
:10271000C5F095F0F908E493A386F0C5F095F07044
:102720000BE493A3C3994005E9048002A3E475F088
:1027300002A42582F582E5F03583F583D0E0F9E443
:1027400093A3C0E0E493C0E022C0E074F2122567D6
:10275000A2AFE433FED2AFC2C09013DBE0700BE552
:10276000D1A2E4501D1243C38018E5D1A2E3500664
:1027700075D1F7124399E5D1A2E4500675D1EF1255
:10278000439FEEA2E092AF7F010225C685198385A3
:102790001882E0A3FEE0A3F5207808E0A3F608DFA6
:1027A000FAE0A3FFE0A3C0E0E0A3C0E0E0A3C0E044
:1027B000E0A3C0E010AF08858218858319800885E2
:1027C0008218858319D2AFD083D08222C0E0C3E4BF
:1027D0009396087401939618400FE4936670080866
:1027E000740193661870007019A3A3C3E49396084C
:1027F0007401939618A3A3400DD0E0D0E0D0E0027E
:1028000026ADA3A3A3A3A3A3D0E022D083D082C5E7
:10281000F0E493A3C5F0C395F0F5F0E493A3C3955A
:10282000F04005E5F0048001E475F002A42582F58E
:1028300082E5F03583F583E493A3C0E0E493C0E040
:10284000227404800474028000CCC0E0EDC0E0E596
:1028500018C39CCCAD1950011D10AF068C188D19F2
:1028600080068C188D19D2AF122962D0E0FDD0E01D
:10287000FC2274028000CCC0E0EDC0E0E518C39CEF
:10288000CCAD1950011D10AF068C188D1980068C27
:10289000188D19D2AF122940D0E0FDD0E0FC22C043
:1028A000E0C0F088F0E4936670080874019366183D
:1028B0007000A8F0A3A3700BD0F0D0E0D0E0D0E07F
:1028C0000226ADA3A3D0F0D0E022D083D082CCC02A
:1028D000E0E493A360061229A21470FAE493A360C3
:1028E00006122AB21470FAD0E0FCE493A3C0E0E42C
:1028F00093C0E022C0E074F2122567758900C2C55A
:102900009013DBE0700E7A007B1090071DE0F91247
:102910003C9180031248A37F010225C6C0E0C0D0CD
:10292000E8C0E0E9C0E0E5A8D2AFC2C7751A00A2CE
:10293000E7A2E792AFD0E0F9D0E0F8D0D0D0E03213
:10294000CAC0E0E493A3C582CCC582C583CDC5834C
:10295000F0A3C582CCC582C583CDC583DAE5D0E0BE
:10296000CA22CAC0E0E0A3C582CCC582C583CDC55A
:1029700083F0A3C582CCC582C583CDC583DAE6D0FA
:10298000E0CA22C008C3E096F50808A3E096420812
:1029900008A3E096420808A3E09645087001D3D04A
:1029A0000822C0E0E493A3D39C5010E493A3C39CFB
:1029B000400AD0E0D0E0D0E00228E7A3A3A3D0E013
:1029C000227009080808226016181818C6C333C6F2
:1029D00008C633C608C633C608C633C6D5E0EA22E1
:1029E000C09FF59FE473D09F22D083D082C09FE424
:1029F00093C0E0740193C0E0740293F59F22251800
:102A0000F58210AF08F518400C15198008F518402C
:102A1000021519D2AF851983227404800A740380C9
:102A200006740280027401C0E0F4041229FED0E0B2
:102A3000122C7F2200C0D0251810AF08F518500CBA
:102A400005198008F51850020519D2AFD0D022BB65
:102A50000102E722C082C08389828A83BB0003E02F
:102A60008002E493D083D082226016080808C6C38F
:102A700013C618C613C618C613C618C613C6D5E0A3
:102A8000EA22C3E0C696F608A3E0C696F608A3E0DD
:102A9000C696F608A3E0C696F6222518F8E435197E
:102AA000F9222518FAE43519FB222518FCE435191A
:102AB000FD22C0E0E493A36C7009D0E0D0E0D0E048
:102AC0000228E7A3A3D0E022251810AF08F518408C
:102AD0000C15198008F51840021519D2AF22E066CE
:102AE000701008A3E066700A08A3E066700408A3EB
:102AF000E06622C3E09608A3E09608A3E09608A348
:102B0000E096A2D265D03322E76670100809E76626
:102B1000700A0809E76670040809E76622C3E096B0
:102B2000F008A3E096F008A3E096F008A3E096F082
:102B300022C3E697F60809E697F60809E697F6082D
:102B400009E697F622C3E4939608740193960874F5
:102B5000029396087403939622E647F60809E6471F
:102B6000F60809E647F60809E647F622E056F008B7
:102B7000A3E056F008A3E056F008A3E056F022E0E8
:102B800026F008A3E036F008A3E036F008A3E0360C
:102B9000F022E627F60809E637F60809E637F608D0
:102BA00009E637F622E657F60809E657F60809E679
:102BB00057F60809E657F622E056F608A3E056F65F
:102BC00008A3E056F608A3E056F622E026F608A38E
:102BD000E036F608A3E036F608A3E036F6227004E5
:102BE00022600D18C6C333C608C633C6D5E0F41834
:102BF00022E4C396F608E496F608E496F608E4960E
:102C0000F622C6F4C608C6F4C608C6F4C608C6F45A
:102C1000C622600D08C6A2E713C618C613C6D5E0C3
:102C2000F322C3E7960809E7960809E7960809E73B
:102C30009622C3E09608A3E09608A3E09608A3E0D6
:102C4000962275D00075813F7518D1751904000260
:102C50002499600C08C6C313C618C613C6D5E0F481
:102C600022E6F008A3E6F008A3E6F008A3E6F022C7
:102C7000E0F608A3E0F608A3E0F608A3E0F622CA0F
:102C8000C0E0E6F0A308DAFAD0E0FA22EAF0A3EB1B
:102C9000F0A3ECF0A3EDF022E0FAA3E0FBA3E0FC4C
:102CA000A3E0FD22E0F8A3E0F9A3E0FAA3E0FB2211
:102CB000E8F0A3E9F0A3EAF0A3EBF022E5C754F8AB
:102CC0004401F5C77901222518F582E43519F58309
:102CD000221229E9DDA8031229E907A9031229E92B
:102CE00080A9031229E9D9A9031229E93AAA0312F2
:102CF00029E979AC031229E94DAE031229E92CAF79
:102D0000031229E965B0031229E918B3031229E96E
:102D10002BB6031229E93AB6031229E9C6B6031203
:102D200029E97CB7031229E9C3B7031229E90CB8D2
:102D3000031229E948B8031229E9BEB8031229E9A8
:102D40002AB9031229E946B9031229E977B903120E
:102D500029E9B6B9031229E9B7BA031229E966BB12
:102D6000031229E9F7BD031229E950BF031229E92B
:102D7000E3BF031229E96DC0031229E9D3C003128E
:102D800029E912C1031229E988C1031229E9DDC228
:102D9000031229E980C3031229E998C3031229E920
:102DA0003BC4031229E9C5C6031229E966C8031208
:102DB00029E984C8031229E90080021229E95A800E
:102DC000021229E9C480021229E94D81021229E97F
:102DD0000982021229E95182021229E98C82021227
:102DE00029E9E282021229E94A83021229E9CE8303
:102DF000021229E9E783021229E90C84021229E967
:102E00004A84021229E99984021229E9C284021231
:102E100029E91185021229E9BD85021229E9858671
:102E2000021229E9EA86021229E9B787021229E982
:102E3000FD87021229E91988021229E94B8802123A
:102E400029E9F389021229E9CA8A021229E9F68AD4
:102E5000021229E92C8B021229E94D8B021229E971
:102E60005C8B021229E9678B021229E91B8C021282
:102E700029E98E8C021229E9008D021229E9088DB8
:102E8000021229E9838D021229E9DC8D021229E957
:102E90001F8E021229E9B190021229E9F79102125C
:102EA00029E98794021229E96F95021229E9A2956E
:102EB000021229E96496021229E91397021229E9FC
:102EC0005B97021229E9BD97021229E9E2970212E3
:102ED00029E9F397021229E96B98021229E9F3987C
:102EE000021229E95799021229E93C9A021229E9AA
:102EF000619A021229E9829B021229E9A09B02121F
:102F000029E9B39B021229E9269C021229E9359C82
:102F1000021229E9BD9C021229E9059D021229E944
:102F2000129D021229E91B9D021229E91B9F021220
:102F300029E96FA0021229E97FA0021229E99BA1C9
:102F4000021229E914A2021229E94AA3021229E96C
:102F50008CA3021229E9C8A3021229E99CA5021236
:102F600029E901A8021229E915A8021229E91FA8D6
:102F7000021229E929A8021229E933A8021229E933
:102F80003DA8021229E956A8021229E960A80212F6
:102F900029E96AA8021229E974A8021229E9A3A85A
:102FA000021229E9CBA8021229E9D6A8021229E9BE
:102FB00020A9021229E92AA9021229E935A9021237
:102FC00029E959A9021229E97DA9021229E9DEA9F4
:102FD000021229E929AA021229E945AA021229E9BD
:102FE000AFAA021229E9FBAA021229E943AB021295
:102FF00029E9BEAB021229E958AC021229E91CAE3C
:10300000021229E98AAE021229E9BCAF021229E9AB
:10301000E2AF021229E952B1021229E906B5021201
:1030200029E906B7021229E9DEB8021229E977B9BF
:10303000021229E989BB021229E94BBC021229E9D3
:1030400097BC021229E9FDBC021229E90FBD021248
:1030500029E95FBF021229E94EC0021229E98DC198
:10306000021229E9DFC1021229E984C2021229E908
:103070003FC4021229E970C5021229E98EC5021265
:1030800029E9E3C5021229E9E1C6021229E909C7C3
:10309000021229E96CC7021229E96DC8021229E956
:1030A000E0C8021229E90ECA021229E979CA0212FD
:1030B00029E969CB021229E9CFCD021229E9FDCD18
:1030C000021229E9F8CE021229E996D0021229E962
:1030D000E6D0021229E99ED1021229E953D2021246
:1030E00029E9B7D2021229E970D3021229E910D4D2
:1030F000021229E974D4021229E9BED4021229E984
:10310000FBD4021229E963D6021229E915810112C2
:1031100029E95781011229E95284011229E9A5847C
:10312000011229E9EB84011229E92C86011229E90F
:103130009186011229E9D186011229E91488011228
:1031400029E9568B011229E97F8C011229E9C097E0
:10315000011229E96098011229E9539B011229E91A
:103160008A9C011229E9009D011229E92A9E011277
:1031700029E97A9F011229E961A0011229E9CAA26D
:10318000011229E9D8A4011229E969A5011229E946
:103190003DA6011229E9C9A6011229E9D3A6011207
:1031A00029E9FBA6011229E9A8A7011229E993A898
:1031B000011229E966A9011229E9F3A9011229E9F5
:1031C00009AA011229E96DAA011229E996AA011298
:1031D00029E9C3AA011229E908AD011229E9E3ADE1
:1031E000011229E927AE011229E998AE011229E955
:1031F00051AF011229E983AF011229E9CAAF0112C7
:1032000029E9FDAF011229E962B0011229E9B1B043
:10321000011229E9B6B0011229E90AB1011229E91E
:1032200054B1011229E950B2011229E9B5B20112D3
:1032300029E913B3011229E95DB6011229E931B771
:10324000011229E9BEB8011229E998BB011229E946
:103250004BBC011229E972BE011229E917BF011204
:1032600029E955BF011229E925C1011229E938C10F
:10327000011229E941C1011229E94AC1011229E9D2
:103280005FC1011229E97EC1011229E9B3C301120C
:1032900029E906C4011229E910C4011229E91AC456
:1032A000011229E975C4011229E9D1C4011229E9E1
:1032B000E9C5011229E94AC6011229E999C7011293
:1032C00029E9E2C7011229E9BAC8011229E9E5C9C9
:1032D000011229E99BCA011229E99DCB011229E9B2
:1032E0009FCC011229E984CD011229E99BCD01125D
:1032F00029E9D8CD011229E9E2CD011229E9ECCD65
:10330000011229E9F7CD011229E915CE011229E9A7
:1033100057CE011229E9B5CE011229E9DACE011200
:1033200029E9F4CE011229E981CF011229E9BACFA6
:10333000011229E90AD1011229E961D1011229E911
:103340007BD2011229E9B1D2011229E94DD3011230
:1033500029E9C9D3011229E939D5011229E954D63D
:10336000011229E91AD7011229E9C4D7011229E962
:1033700049D8011229E9B1D8011229E966D9011207
:1033800029E9B8D9011229E92DDA011229E9F6DA79
:10339000011229E919DB011229E9DDDB011229E912
:1033A00001DC011229E923DC011229E984DC011284
:1033B00029E9CFDE011229E9AADF011229E954E047
:1033C000011229E995E2011229E9E3E2011229E952
:1033D00026E3011229E97EE3011229E9DCE3011267
:1033E00029E906E4011229E92AE4011229E95BE44A
:1033F000011229E985E4011229E9CCE4011229E945
:103400002AE5011229E986E5011229E987E6011278
:1034100029E9F1E7011229E92FE8011229E958E821
:10342000011229E9E9E8011229E933E9011229E940
:1034300057E9011229E9ADE9011229E9C8E90112A8
:1034400029E983EA011229E9ADEA011229E9F0EA42
:10345000011229E946EB011229E94BEE011229E993
:103460007EEE011229E93BEF011229E916F0011263
:1034700029E9A6F0011229E9E7F0011229E964A778
:10348000051229E99CA7051229E9BDA7051229E91A
:10349000FFA7051229E963A8051229E96DA80512FD
:1034A00029E97DA8051229E9B4A8051229E95DAC2E
:1034B000051229E925AE051229E919B0051229E9F5
:1034C000B7B0051229E93EB1051229E94D80041271
:1034D00029E9F680041229E9D581041229E9F0824C
:1034E000041229E91083041229E93284041229E91B
:1034F000CF85041229E93C86041229E912870412B7
:1035000029E91888041229E97D88041229E9B98873
:10351000041229E91289041229E94B89041229E9C4
:103520009489041229E9268A041229E9C38A04121B
:1035300029E9988B041229E9658C041229E9F28C97
:10354000041229E9188D041229E9458D041229E98C
:10355000768D041229E94B8E041229E95B8E041240
:1035600029E9AE8E041229E9BB8E041229E9C88E1E
:10357000041229E9D18E041229E9358F041229E9B0
:10358000938F041229E9DE8F041229E9F98F0412BE
:1035900029E92090041229E93D90041229E9499073
:1035A000041229E9ED91041229E90692041229E98D
:1035B0008292041229E99592041229E9A592041233
:1035C00029E94B93041229E9BB94041229E9CE9509
:1035D000041229E96E96041229E97896041229E961
:1035E000E696041229E9F796041229E9369704129F
:1035F00029E96497041229E93198041229E9889885
:10360000041229E9CD98041229E92399041229E921
:103610004199041229E98F99041229E95D9A04124B
:1036200029E9AB9A041229E9ED9A041229E9709B61
:10363000041229E99A9B041229E9D09B041229E972
:10364000DF9B041229E93D9C041229E9B59C041270
:1036500029E9F69C041229E9459D041229E9709D87
:10366000041229E98A9D041229E9A49D041229E97A
:10367000799E041229E9839E041229E9BE9E041250
:1036800029E9CE9E041229E9D79E041229E9289F30
:10369000041229E93C9F041229E95AA0041229E9DD
:1036A0006DA0041229E984A0041229E999A004124A
:1036B00029E933A1041229E9B2A1041229E955A28A
:1036C000041229E960A2041229E9ADA3041229E930
:1036D000C9A3041229E921A4041229E98FA4041220
:1036E00029E9DBA4041229E9F5A4041229E955A566
:1036F000041229E9F3A5041229E93EA6041229E9D6
:10370000A1A8041229E939A9041229E9B0A90412CF
:1037100029E9F6AB041229E90EAC041229E911AC2F
:10372000041229E91DAC041229E931AC041229E97B
:1037300039AC041229E970AC041229E964AD041211
:1037400029E9EEAD041229E970AE041229E9E5AECB
:10375000041229E9BDAF041229E9DFAF041229E9F7
:1037600076B0041229E982B0041229E9DFB004120C
:1037700029E9E2B0041229E90FB1041229E924B1C0
:10378000041229E993B1041229E9DFB2041229E9EC
:10379000F2B3041229E97DB4041229E990B50412A8
:1037A00029E95AB6041229E98BB6041229E9B1B6FF
:1037B000041229E9BAB6041229E9E9B6041229E982
:1037C00099B7041229E949B8041229E9BCB80412CE
:1037D00029E96EB9041229E9E1B9041229E920BAEC
:1037E000041229E969BA041229E99EBA041229E9E6
:1037F000559A051229E9C09A051229E9079B051275
:1038000029E97D9B051229E9CD9B051229E9519CE7
:10381000051229E9959E051229E9C0A0051229E99A
:103820009DA4051229E91AA5051229E955A5051235
:1038300029E973A5051229E9D3A5051229E9FBA5F4
:10384000051229E92BA6051229E95CA6051229E92A
:1038500089A6051229E9E2A6051229E92DA7051274
:1038600029E90080051229E97C80051229E9A28056
:10387000051229E9D980051229E93282051229E9C0
:103880004E82051229E99382051229E92383051244
:1038900029E97B83051229E95084051229E92E853F
:1038A000051229E97885051229E9D985051229E942
:1038B0005D86051229E98686051229E9C786051263
:1038C00029E97588051229E94589051229E90C8A33
:1038D000051229E9DF8A051229E9198B051229E960
:1038E000718B051229E9938B051229E9278C0512A2
:1038F00029E9DA8C051229E91CEE051229E981EE85
:10390000051229E928EF051229E960EF051229E9D6
:10391000A8F1011229E953F2011229E9F0F3011289
:1039200029E96CF4011229E9A4F4011229E98FF7BD
:10393000011229E921F9011229E98BF9011229E97A
:10394000C3FC011229E964FE011229E90C94061254
:1039500029E93494061229E92095061229E97AC644
:10396000051229E9FDC6051229E914C7051229E93E
:1039700087C7051229E9EDC7051229E916C80512FE
:1039800029E99BC8051229E93DC9051229E9A0C901
:10399000051229E905CA051229E925CA051229E9EE
:1039A00055CA051229E971CA051229E9A0CA0512EA
:1039B00029E9D0CA051229E906CB051229E966CB07
:1039C000051229E92E8D051229E9FE8D051229E936
:1039D000238E051229E9438E051229E9578E051217
:1039E00029E9BF8E051229E9E38E051229E96190C4
:1039F000051229E98791051229E96892051229E93A
:103A0000CC92051229E9F892051229E97C93051256
:103A100029E9CD93051229E9EE93051229E9669467
:103A2000051229E90A96051229E96D96051229E978
:103A3000FD97051229E9CA98051229E90599051289
:103A400029E92A99051229E94A99051229E9709963
:103A5000051229E98499051229E9ED99051229E948
:103A6000419A051229E99488061229E99E880612CE
:103A700029E9BF88061229E938E9041229E946EC48
:103A8000041229E973ED041229E94EEF041229E921
:103A9000D8EF041229E991F0041229E9BAF00412CE
:103AA00029E904F1041229E9BFF1041229E932F2EB
:103AB000041229E935F2041229E938F2041229E93D
:103AC00081A4031229E95BF2041229E95EF20412CF
:103AD00029E977F2041229E9DBF2041229E9CDF38E
:103AE000041229E902F5041229E94FF5041229E923
:103AF00056F6041229E928F7041229E9D6D602124B
:103B000029E90ED7021229E9CCDB021229E99EDC51
:103B1000021229E925DD021229E956DD021229E9FE
:103B200084DD021229E99FA8031229E906DE0212A8
:103B300029E927DF021229E955DF021229E983DF8B
:103B4000021229E9B9DF021229E966E0021229E925
:103B50008CE0021229E9EBE0021229E961E202128B
:103B600029E9FBE2021229E9ECE3021229E9C9E49E
:103B7000021229E913E5021229E962E5021229E994
:103B8000CEE5021229E936E6021229E983E602129D
:103B900029E9F3E6021229E904E8021229E9F8E822
:103BA000021229E9A9E9021229E9DEE9021229E94A
:103BB00033EA021229E9D5EA021229E903EB0212DB
:103BC00029E988EC021229E90DED021229E94DEDEF
:103BD000021229E98CED021229E9A5ED021229E968
:103BE00054EE021229E91EEF021229E9C5EF021272
:103BF00029E959F0021229E9FFF0021229E969F1D5
:103C0000021229E9F4F1021229E987F2021229E9E4
:103C1000A5F2021229E978F3021229E936F4021218
:103C200029E9ECF4021229E98AF5021229E967BAB6
:103C3000051229E9A8BA051229E911BB051229E9DB
:103C400032BB051229E94BBB051229E905BC051257
:103C500029E90EBC051229E95FBC051229E988BCD7
:103C6000051229E99FBC051229E903BD051229E9BE
:103C700095BD051229E9C6BD051229E922BE051226
:103C800029E988BE051229E9BCBE051229E92FBF22
:103C9000051229E971BF051229E9B1BF051229E909
:103CA000E9BF051229E9FBBF051229E90DC005127C
:103CB00029E93EC0051229E97EC0051229E9A7C0FD
:103CC000051229E9C8D6051229E90BD8051229E9F8
:103CD00031D8051229E942D8051229E95ADA051224
:103CE00029E979DA051229E9E18A061229E9178B0F
:103CF000061229E9628B061229E9AE8C061229E91F
:103D00000CD5041229E94AD6041229E986D60412F0
:103D100029E94BD8041229E975D8041229E9FBDAFC
:103D2000041229E93BDB041229E9D0DC041229E959
:103D300065DD041229E9C3DD041229E954DE041209
:103D400029E98CDE041229E9CEDE041229E948E0D3
:103D5000041229E9D1E1041229E907E4041229E94E
:103D600035E4041229E961E4041229E96AE4041241
:103D700029E9C0E4041229E950E5041229E957E8C9
:103D8000041229E9DBE8041229E9499E061229E90F
:103D90005F9E061229E9699E061229E9B99E06125C
:103DA00029E9A0E5051229E9B9E5051229E95EE648
:103DB000051229E99EE6051229E9B7E6051229E967
:103DC000EBE6051229E938E7051229E96CE7051247
:103DD00029E9AEE7051229E984E9051229E9EFE9A5
:103DE000051229E98996061229E9DE96061229E9C3
:103DF0003797061229E9FA9C061229E94D9D061209
:103E000029E98F9D061229E99F9D061229E9BDC85F
:103E1000031229E915C9031229E9B5C9031229E9D1
:103E2000CDCA031229E9B9CB031229E986CC0312C2
:103E300029E99BCC031229E9E5CC031229E93CCD01
:103E4000031229E9A8CD031229E9BBCD031229E900
:103E500013CE031229E982CE031229E91DD10312E0
:103E600029E919D2031229E974D2031229E9BAD235
:103E7000031229E9D8D4031229E928D5031229E924
:103E8000A9D5031229E97BD6031229E9B4D6031276
:103E900029E9D3D6031229E91ED7031229E934D719
:103EA000031229E941D7031229E97AD7031229E934
:103EB0008CD7031229E962D8031229E96DD80312BD
:103EC00029E9F2D8031229E94AD9031229E996D936
:103ED000031229E9CDDA031229E9F5DA031229E9F7
:103EE00071DD031229E999DD031229E9ABDE031222
:103EF00029E9DADE031229E952DF031229E914E085
:103F0000031229E948E0031229E9B8E0031229E97C
:103F100095E1031229E9CEE1031229E9D8E1031260
:103F200029E9DBE1031229E9E5E1031229E901E2CC
:103F3000031229E97DE2031229E9B6E2031229E915
:103F4000D2E2031229E9FEE2031229E939E303125E
:103F500029E954E3031229E95EE3031229E98DE319
:103F6000031229E9A3E3031229E9BFE3031229E9B4
:103F7000EEE3031229E90EE4031229E957E40312E0
:103F800029E9A0E4031229E9AAE5031229E9C29963
:103F9000061229E9D399061229E95C9A061229E941
:103FA0009178001229E9E078001229E99E7A00123E
:103FB00029E9717C001229E9AF7C001229E9857D8D
:103FC000001229E98A7E001229E9AC7E001229E953
:103FD000087F001229E9897F001229E9F64F0012B3
:103FE00029E91850001229E96A51001229E9B35150
:103FF000001229E92C52001229E9A752001229E9DE
:104000001053001229E95753001229E9C553001231
:1040100029E96A54001229E9F054001229E92C55C3
:10402000001229E98059001229E98E5B001229E962
:10403000C15B001229E9005C001229E90D5D001244
:1040400029E9F65F001229E9A060001229E94B6214
:10405000001229E97E63001229E99464001229E91B
:104060000965001229E9D565001229E96C6600127C
:1040700029E97C66001229E93367001229E9696899
:10408000001229E9AD6A001229E9506D001229E9F0
:104090002E6E001229E96B6F001229E9B07200122E
:1040A00029E9C072001229E9F773001229E9AA74FC
:1040B000001229E9DB75001229E94976001229E985
:1040C0008077001229E9D577001229E906BB04128E
:1040D00029E9ADBB041229E91FBC041229E92FBC50
:1040E000041229E9B1BC041229E908BD041229E926
:1040F000FDBD041229E924BE041229E9C9BE041237
:1041000029E918BF041229E976BF041229E9D1BFB1
:10411000041229E9ACC2041229E965C3041229E991
:10412000CAC3041229E95DC5041229E9FDC50412B8
:1041300029E996C6041229E9F3C6041229E969C7D8
:10414000041229E965C8041229E958C9041229E9A9
:10415000B1C9041229E9C7C9041229E9E8C904123E
:1041600029E927CA041229E9B7CA041229E9FACBB6
:10417000041229E9B7CD041229E901CF041229E973
:104180003BD0041229E946D1041229E9E6D10412F0
:1041900029E955D2041229E972D3041229E9F5E676
:1041A000031229E960E7031229E9A8E7031229E9C4
:1041B0000FE8031229E96BE8031229E9A6E80312C4
:1041C00029E942E9031229E99CE9031229E908EBEC
:1041D000031229E981EB031229E9B8EC031229E95A
:1041E000E0EC031229E9BEED031229E9CFED031239
:1041F00029E9E5ED031229E9D7EE031229E9FAEEE0
:10420000031229E9C2EF031229E9EAEF031229E9AF
:1042100001F0031229E91BF0031229E947F0031208
:1042200029E967F0031229E98DF0031229E9A4F0C6
:10423000031229E979F1031229E9D3F1031229E9DB
:10424000ABF2031229E927F3031229E93EF3031223
:1042500029E9B8F3031229E900F4031229E926F445
:10426000031229E983F5031229E988F5031229E9E4
:10427000C5F5031229E93CF6031229E9A8F6031251
:1042800029E9A3F7031229E97DF8031229E9C9F8FE
:10429000031229E9E1F9031229E9DBFA031229E9FA
:1042A0007DFB031229E9C6FB031229E9DBFB03129C
:1042B00029E9EDFC031229E98EFD031229E9ECFD41
:1042C000031229E9A2D1051229E9DFD1051229E952
:1042D00078D2051229E983D3051229E9CBD5051235
:1042E00029E947D6051229E97AF9051229E9A8FA38
:1042F000051229E970FB051229E9C5FB051229E918
:1043000048FC051229E99A8F061229E9B59A061286
:1043100029E9C69A061229E9669B061229E9D2FF05
:10432000021229E9E57F001229E9809B061229E99A
:10433000909B061229E9A59B061229E9369C0612D4
:1043400029E9BE98061229E94399061229E9A99993
:10435000061229E9F9FF011229E9E0FF011229E912
:10436000F0FF011229E9F3FF011229E9F6FF01121A
:1043700029E9F87F001229E9118D061229E9338D08
:10438000061229E9A18E061229E9258F061229E9CC
:10439000B7FF011229E9C0FF011229E9C9FF011283
:1043A00029E9D7FF011229E9D1C0051229E93DC148
:1043B000051229E905C2051229E9FEC2051229E9FB
:1043C000EBC4051229E945C5051229E998C505126E
:1043D00029E9A9C5051229E9BBC5051229E927C69E
:1043E000051229E93BC6051229E946C6051229E945
:1043F00054C6051229E966C6051229E91ACC051228
:1044000029E946CC051229E9EDCE051229E942CF6A
:10441000051229E97ECF051229E992CF051229E973
:10442000ABCF051229E99ED0051229E97AD10512F0
:1044300029E98ED1051229E99792061229E9BB9242
:10444000061229E9D492061229E91393061229E9E2
:104450004693061229E97693061229E980930612FB
:1044600029E9E893061229E9EB93061229E9F59365
:10447000061229E90294061229E9E685061229E9BD
:104480000E86061229E94F86061229E96D86061264
:1044900029E98886061229E9F086061229E9FC86B0
:1044A000061229E95B87061229E97F87061229E9A6
:1044B0004088061229E94D88061229E95E8806120D
:1044C00029E9E79E061229E9FF9E061229E9259FA0
:1044D000061229E911DC051229E95ADD051229E93C
:1044E00060DD051229E977DD051229E998DD05125D
:1044F00029E9AEDD051229E9C2DD051229E941DE0F
:10450000051229E9A6DE051229E92EDF051229E99F
:10451000A7DF051229E980E0051229E990E00512DC
:1045200029E99FE0051229E9B09D061229E9D49DE9
:10453000061229E9FC9D061229E9249E061229E9A2
:104540002783061229E99383061229E9B28306120A
:1045500029E91884061229E9DAFC051229E9F3FC95
:10456000051229E90AFD051229E913FD051229E9B9
:1045700031FD051229E93BFD051229E945FD05122A
:1045800029E958FD051229E9E5FD051229E954FE3E
:10459000051229E982FE051229E9D3FE051229E94F
:1045A0001FFF051229E93AFF051229E944FF051208
:1045B00029E955FF051229E998FF051229E96E9F9F
:1045C000061229E9B99F061229E94FF6021229E9D4
:1045D0007BF6021229E999F6021229E9ACF60212D9
:1045E00029E9C7F6021229E926F7021229E954F748
:1045F000021229E960FB021229E9A2FC021229E950
:10460000D4FC021229E93FFD021229E9C3FE02127D
:1046100029E9EBFE021229E900FF021229E910FF45
:10462000021229E950FF021229E992FF021229E938
:10463000A2FF021229E95195061229E96195061295
:1046400029E97F95061229E99A95061229E9C1956B
:10465000061229E9E295061229E9FC95061229E9D4
:104660003496061229E95796061229E9469C061245
:1046700029E98C9C061229E9E2F5051229E9F2F5EF
:10468000051229E910F7051229E942F7051229E96F
:1046900064F7051229E98CF7051229E9A5F7051237
:1046A00029E9E1F7051229E94AF8051229E986F80E
:1046B000051229E9CDF8051229E9FAF8051229E9C8
:1046C00026F9051229E90891061229E93F910612F7
:1046D00029E96792061229E96A92061229E9AB973D
:1046E000061229E91D98061229E95B98061229E9A4
:1046F0009C98061229E9D6F7041229E9DCF704127E
:1047000029E923F8041229E92FFA041229E95FFAAA
:10471000041229E9C9FA041229E984FB041229E9DF
:10472000CBFB041229E9FEFB041229E988FC0412E0
:1047300029E99FFC041229E9ACFC041229E9B6FC22
:10474000041229E956FE041229E948FF041229E956
:10475000A6FF041229E9EAB1051229E900B20512FF
:1047600029E9B2B2051229E9DCB3051229E9D1B46D
:10477000051229E968B5051229E9A3B5051229E949
:1047800015B6051229E973B6051229E983B6051293
:1047900029E9AAB6051229E9FCB6051229E96BB880
:1047A000051229E970B8051229E992B8051229E91C
:1047B000FCE9051229E91AEA051229E95EEA05125F
:1047C00029E984EA051229E9A6EA051229E9BEEADF
:1047D000051229E9D6EA051229E9EEEA051229E9C6
:1047E00094EB051229E9D6EB051229E9E0EB051255
:1047F00029E9F5EB051229E9FCEC051229E917ED89
:10480000051229E920ED051229E929ED051229E90A
:1048100032ED051229E93CED051229E9B9ED051241
:1048200029E9D0E0051229E915E5051229E931E564
:10483000051229E936E5051229E91AF2051229E9D6
:1048400030F2051229E9CEF3051229E919F405120F
:1048500029E983F4051229E982F5051229E9B1F560
:10486000051229E9C3F5051229E98DFE031229E98C
:104870000080061229E95C80061229E99C80061254
:1048800029E99E81061229E9B681061229E9CB8120
:10489000061229E9F781061229E92E82061229E972
:1048A0003E82061229E95482061229E9798206120B
:1048B00029E90483061229E9B97F001229E9EDA349
:1048C000031229E907A3031229E97FA2031229E9A8
:1048D000CCA1031229E97B9F031229E9509F0312FF
:1048E00029E9F19E031229E9629D031229E9F09C4E
:1048F000031229E9D79C031229E99A9C031229E99A
:104900008C9C031229E9219C031229E9E69B0312DE
:1049100029E9579B031229E9099A031229E98F997A
:10492000031229E9CC98031229E9C297031229E955
:104930007997031229E95397031229E98F960312F5
:1049400029E9D994031229E97994031229E94AA89B
:10495000031229E992A7031229E9D6A6031229E92D
:104960003DA5031229E90DA5031229E9D1A40312DB
:1049700029E9BDA4031229E94A94031229E94794BD
:10498000031229E93294031229E9EF93031229E96A
:10499000A9A4031229E9D693031229E9DE9203128E
:1049A00029E99D92031229E96A92031229E9D8DDC7
:1049B000021229E9FE91031229E995A4031229E9BB
:1049C000CB91031229E97091031229E93F91031257
:1049D00029E9088E031229E91A8D031229E9D48BDB
:1049E000031229E9808B031229E9748B031229E948
:1049F000DB8A031229E9A989031229E9FA8603123D
:104A000029E99D84031229E95184031229E9368397
:104A1000031229E9CB82031229E9F381031229E960
:104A2000AF81031229E90080031229E96B80031288
:104A300029E93280031229E93BF20400000080FBDF
:104A40008F000100130987000100120924000200F1
:104A50003C15250002003E152600020040152700E7
:104A600002004215280001004415290001004515E7
:104A7000840004004615860001004A152A00010042
:104A80004B152B0001004C152C00010050152D007A
:104A90000800FA082E00010051152F0001005215E0
:104AA000300001005315310001005415320001009F
:104AB00002093300010003093400010055153600D6
:104AC00001000409380001005615390001004F1596
:104AD000830002006815630001000F0964000100F3
:104AE0004D15650001004E156D00010010097100A3
:104AF0000800F20866000100671543000100581520
:104B0000440002005915450001005B1546000200F3
:104B10005C15470008000709480001005E154B00BE
:104B200001005F15040001006A15A10001006C1569
:104B3000370001006B158800010014093C000100DA
:104B400005093D0001005715490002006015670086
:104B5000010011094D00020062154E0001006415AC
:104B60004F00020065153E0001000609000000002C
:104B700000000001363601010001020100010301BD
:104B800000010401060605020000070100340801C7
:104B9000000F090401010D0100FF0E0800001702BB
:104BA0000000190100FF1A0100011B0100FE1C0199
:104BB00000081D0200001F01000120010001210268
:104BC00000002301000F240200002601000127013C
:104BD0000008280200FF2A0100072B0102402C01D7
:104BE00000002D0100012E0100012F0100FF300106
:104BF0000B1C310800003A0100083B01000F3C018A
:104C000000013D0100FF3E04000042040000460494
:104C100000004A0400004E04000052040000560444
:104C200000005A0400005E20FFFF3600010006006D
:104C300000000F0000000000000000000000000065
:104C400003FFFF00000403FFFF0000FFFF0FF4015C
:104C50000005C4040320000100000B000000000058
:104C600000000003010F0000000000000000000031
:104C70000000000000000000000000000000000034
:104C80000000000000000000000000000000000024
:104C90000000000000000000000000000000000014
:104CA0000000000000000000010371030103010384
:104CB00001030103010322030203010310030003A4
:104CC000000300030003000300030003420300038A
:104CD0002403060300030003040312032503230334
:104CE0002503230304030403000300030003440318
:104CF0000003000323030003650321003503810340
:104D0000000305030003000300030003250323033E
:104D100003007100300160001100700031022003B7
:104D20005004800010006100000014006300730054
:104D30007200620043000000130006000000000043
:104D40000400120000000000000000000400040045
:104D5000370037003C024400000000000000000063
:104D600065000000350081000000050000008300A0
:104D70000000010171010101010111010101310175
:104D8000010101018001100161013B001400630178
:104D900073017201620143010001130106013D012B
:104DA00035000401120100010001000100010401AD
:104DB0000401330133013C0144013201360000019A
:104DC000000165010001350081010001050182013A
:104DD00083010001030271023001600211027002BE
:104DE0000102020202028002100261023A00410046
:104DF000630273027202620243020002130238006D
:104E0000000200020402120200020002000200027C
:104E100004020402370037003C0244020002390059
:104E20000002000265020002350281020002050252
:104E3000820283020002030471040204600411046C
:104E4000700402040204010402041004610400045A
:104E5000140463047304720462044304000413041E
:104E60000604000400040404120400040004000406
:104E7000000451046400000400040004440400041D
:104E80000004000400046504000435048104640087
:104E9000050400048304000400000B4113007B4060
:104EA00001000B410200FD3F0300034004000940E4
:104EB00005000F4006001B4030003F4031003940E4
:104EC00032004B40330051403500574034005D40C4
:104ED0003600634011006F401400754015002D40EE
:104EE0001F003340FFFF0000015131068731088168
:104EF000310B9F3110BB300AB1310257310575318A
:104F0000075D310C39310D453164BD2EFF000007BE
:104F1000ECFDFDFDECDCDCCCBCACAC9C9C8C7C7C6E
:104F20006C6C5C5C5C4C4C3C3C2C2C1C1C03EAF513
:104F3000E5D5D5C5B5A59595858575756565555531
:104F400045453535252515150500160F00000B15AF
:104F50000B020002220F3300000E01030507090BAC
:104F60000D0F00020406080A0C0D5A6967426565B8
:104F7000416C6C69616E63653039303017181921E6
:104F8000301B1D1F30303016181920231A1C1E30FC
:104F900000034A49434E181A250502000119161844
:104FA0001616182303000C0E020B040B0A07080048
:104FB0000F00393D3F373C3C362C442D02040201A2
:104FC0000101010902E803000000BE040A7F003C61
:104FD00000000000000E00E8033C0008100C0A0C62
:104FE00003150900040009FF1E1E0305010C05043A
:104FF000040810080328C082C08390081CE4F0A3B2
:10500000F07CD57D047A8D7B071246ED122EC312FB
:105010004A23122EC9026DD174F312242D74F51295
:105020002AC889098A088B0AE9705F7402650870CA
:105030003E9007AC7408F0750C00780C122A25EC31
:10504000F50C780C122A25EBF50C780C122A259019
:10505000154612284190154AE0F97C077D09901504
:1050600068126DE2122EED7407122A3402512A746E
:10507000016508600302512D9007AC7408F07B00B5
:10508000AA0AA90A122F2F02512A74016509600980
:1050900074026509600302512DEA60067403650815
:1050A00070409007AC740212514E122C98122EDBF5
:1050B0009007B4E0A2E34010E9700D900820E004EE
:1050C000F06404700312515874036508705C900812
:1050D00021E0F8740128F0E8C39405404D125158BE
:1050E0008048740165087045740165099007AC70CB
:1050F0002E740AF07401122CC7E4F07402122CC74B
:105100007403F004122CC7E4F0A3F0A3F0A3F0742E
:1051100008122CC7E4F0AA18AB1912316380257469
:105120000A12514E122C98122F11E960179080AC80
:105130001228417A017B009007A9E0F9123DB7746B
:1051400004122A34740B122A347F050226BDF09013
:10515000154AE0F990154622901546E4F0A374F83C
:10516000F0A374FFF0A37407F02274F612242DE963
:10517000FFEAFE7AD1F9123C6D8A828B83E5824583
:1051800083702A7A027B00123C4FEA4B700E7A1031
:105190007B009007A9E0F9123C9180148A828B83EE
:1051A00074D1F0EFA3F0EEF9123C5B8003EFA3F0B3
:1051B0000253C074F712242D890890070612749EBA
:1051C000FF901538E0F47003A3E0F4703690071DEB
:1051D000E0901538F0A3E4F080298E828F83A3A39A
:1051E00012788C60168E828F83A3A3A3E0F5838848
:1051F00082A312788CFAA908123FE58E828F83125F
:1052000077B4FFEE4F70D3901538E0F47003A3E04D
:10521000F4600A901538E0FAA908123FE512326BE3
:105220009007771259311232650275D674F1122443
:105230002D890A8C08750900750B00740F122CC794
:1052400012608A7411122CC71259588049AE0E127E
:1052500052F8F50CA3E0F50DAE0BEE2EFEE433FF95
:10526000EA2EF582EB126643650C7004A3E0650D2F
:105270007019AE09EE2EFEE433FFEC2EF582ED3F01
:10528000F583E50CF0A3E50DF00509050EE50EC369
:10529000950840B9050BE50BC3950A5005750E003E
:1052A00080EBA909026CEE74F412242D890B7D00A9
:1052B000740C122CC712608A80010DEDC3950B503F
:1052C00032750A008002050AE50AC39C50ECED2500
:1052D000E0FEE433FFEA2EF582EB3F125308F509B6
:1052E000AE0A1252F865087004A3E0650970D77918
:1052F0000180027900026A95EE2EFEE433FFE82E6B
:10530000F582E93FF583E022F583E0F508A3E0228A
:1053100074F612242D1253AB7003A3E06D70177551
:1053200008B27509077808122A21EEFA12411174A1
:1053300002122A34801F7508027509807808122A23
:10534000218C088D097808122A2112539E124135AA
:105350007404122A34806974F612242D1253AB702F
:1053600003A3E06D70177508BF7509077808122A46
:1053700021EEFA1241177402122A34801F750803B5
:105380007509807808122A218C088D097808122A5C
:105390002112539E1241357404122A348022125C69
:1053A000F9F583E0FD7C801267172212664C1277B4
:1053B000C6FCE439FD900777E06C227402122A34AF
:1053C0007F020226BD74F612242D74FE122AC8EA4A
:1053D000FEEBFF851882851983E4F0A3125B881227
:1053E0006663E0FCA3E0FBECFA88828983A3A3E078
:1053F000F9750900750800600574FF697005750886
:1054000082803D900777E06A7003A3E06B701AAA70
:1054100018AB1912382FE9F50985188285198312FE
:105420006AA0701C7508838017900912E0600464FC
:105430000170057508818008E064027003750880BA
:10544000851882851983125958A908EEFAEFFB12C4
:10545000411DE5096011851882851983126AA060D3
:1054600006126DDC123CF70253BB74F212242DEAD3
:10547000FEEBFF750A00750B001254DC12326BEA6A
:1054800065087003EB65097012123841E914F50ADA
:1054900079017AE87B071238478003750B80126622
:1054A0003DF50C780C122A25750CE8750D07780C63
:1054B000122A21780A122A257808122A21E50BF5EA
:1054C000087808122A251264FE126640F97A057BD4
:1054D000801241237407122A340262461276FF12A8
:1054E000608E888289831277C5F508E439F5092230
:1054F00074F612242DE9FE7F0080298A828B8312A4
:10550000530AF8E4C8F9E50828E439F509EF25E07D
:10551000F8E433F9EC28F582ED125D02EA2402FA90
:1055200050010B0FEFC39E40D20253C074E8122407
:105530002D74FB122AC88A168B1785188285198349
:10554000E4F07403122CC7E4F0A3F004122CC7E4B7
:10555000F0A3F012607B3517125B5AF50B850A82B7
:10556000F5831277C1FEE439FF850A82850B83A398
:10557000A3E0FA850A82850B83A3A3A3E0F9EAF5E9
:1055800008E439F509E50A2404F50A5002050BEE92
:10559000FAEFFB123307E964016016EEFAEFFB1233
:1055A0003307E9703D900777E06E7003A3E06F600A
:1055B0003112685A122A25E4F508F5097808122AEA
:1055C000217808122A2590077712284575088078D7
:1055D00008122A251259371241237407122A34025D
:1055E000592712595E8810602B1273DB123CF1743C
:1055F00003122CC71259317403122CC7126AA0600F
:10560000137403122CC7125950A9101240158A0A9C
:105610008B0B800375100012595E880F6027127380
:10562000DB123CF17401122CC71259317401122C97
:10563000C7126AA0600F7401122CC7125950A90F2B
:105640001240158003750F00900706805D850A8261
:10565000850B83A3A3A3A3A3A3A3A3E4F0A3F0AA0E
:105660000AAB0B851482851583A3A312596E127899
:105670008CF9123C5B851282851383E0C0E08518AB
:1056800082851983E0F874E828F582E43407F5830D
:10569000D0E0126AA404F0E511A2E05007AA12AB10
:1056A00013123CF7851482851583E0F514A3E0F509
:1056B00015E51445157003025894851482851583E9
:1056C000A3A312788C60DD851482851583A3A3A320
:1056D000A3A3A3A3A3E0A2E050CA851482851583E7
:1056E000A3A3A3A3126AA0851482851583A3A36034
:1056F0001F12788CFA7901851482851583A3A3A3E0
:10570000A3126D1712261E8A128B13751101800FBA
:1057100012596EA3A3E0F512A3E0F513751100E58D
:105720001245137003025697851282851383A3E0F6
:1057300065087004A3E06509600F74FF65087004D4
:1057400074FF65096003025697851282851383A34F
:10575000A3A3A3A3A3A3122845851282851383A321
:10576000A3A3A3A3A3E0FC7405122CC7126DE2A9A6
:1057700010123FF77402122A34E9703C85128285B8
:105780001383A3A3A3A3A3A3A3A3A3A31228458521
:105790001282851383A3A3A3A3A3A3A3A3A3E0FCC3
:1057A0007403122CC7126DE2A90F123FF774021294
:1057B0002A34E97003025697E50F2510C333240AF3
:1057C000FA7B00123C4F8A0A8B0BEA450B700302EE
:1057D00056758A828B8374D2F0851682851783A3CF
:1057E000A312608A8A828B83A3A3E8F0A3E91276CE
:1057F000BCA3E5101277CDE50FF0E510603CEA247C
:1058000005FAE4350BFBE50A240AF8E4350BF98ABE
:10581000828B831260947403122CC7125973122A5C
:105820001DAC10EC2CFCE433FD8A828B83126DE2FC
:10583000123C2B7403122A34800D8A828B83A3A31B
:10584000A3A3A3E4F0A3F0E50F700302564DA81044
:10585000E828F8E433F9E50A28F8E50B39F9E824F3
:105860000AFAE439FB850A82850B83A3A3A3A3A3C9
:10587000A3A3A31259317401122CC7125973122A0F
:105880001DAC0FEC2CFCE433FD123C2B7403122AEC
:105890003402565F851882851983E0602712685AA2
:1058A000122A257508E87509077808122A21740359
:1058B000122CC7126863122A2590077712284575A3
:1058C00008008029EEFAEFFB123307E9702F126807
:1058D0005A122A257508E87509077808122A2175D1
:1058E00008007808122A25900777122845780812B0
:1058F0002A251259371241237407122A34740312CD
:105900002CC7126AA0600B7403122CC7126DE2122E
:105910003CF77401122CC7126AA0600B7401122CA0
:10592000C7126DE2123CF77405122A347F1002266A
:10593000BDEAF0A3EBF022E5162402FCE43517FDE6
:10594000E51612648E3517F583E0F97A067B80221E
:10595000125958AA0AAB0B22E0FCA3E0FD22850AEB
:1059600082850B83E0F8A385820A85830B22126D62
:1059700017A322E0F50CA3E0F50D750E00780C22BC
:1059800074F112242D74F4122AC88A088B09ECFED3
:10599000EDFF740B122CC77403F0122AA21246ED0D
:1059A000123265EAFCEBFD7403122AA21246E7E903
:1059B000600FEE241312664064036010E06401601F
:1059C0000B8518828519837484025B128E828F8303
:1059D000A3A3A3A3A3A3A3A3E06018F46015EE24DC
:1059E0001312664064037016EE24141266406003BE
:1059F000F4700B8518828519837482025B1212750C
:105A00008AE064217002A3E06003025AE9851882EB
:105A1000851983748C125B8864036003025AD37403
:105A200001122AAA12622E12499FE96003025AD378
:105A3000123F798A0A8B0BEA450B7003025B138EC7
:105A40000C8F0D750E00780C122A1D7C157D00122E
:105A50003C2B7403122A34850882850983A3A3E5AD
:105A60000A2415FCE4350BFD74091229621271E950
:105A7000C0E0E50A241EF582E4350BF583D0E01280
:105A8000609AC0E0E50A241FF582E4350BF583D067
:105A9000E0F0E50A2420F582E4350BF5837405F087
:105AA000EE240BFE50010FFAEFFB1238E97D007C6B
:105AB000007900EEFAEFFB1240DB9080AC12284137
:105AC0007A007B109007A9E0F9123DB77404122AFE
:105AD000348078125B50122A25125B621249C3741B
:105AE00001122A34E9702C8014125B50122A2512FC
:105AF0005B621249BD7401122A34E9700D85188267
:105B0000851983E4F0123F4980098518828519833D
:105B10007488F01271E9F50A780A122A25740112C4
:105B20002A9A880A890B780A122A21E508240CF59A
:105B300082E43509125B5A4480F50B780A122A2157
:105B40001265C01240CF7405122A34740C026CEB3B
:105B5000EE12623BE0F50A780A22F583E0F50AA32B
:105B6000E022EE240BFCE43FFD8E828F83A3A3A3EF
:105B7000A3A3A3A3A3A3126E1F8E828F83A3A3A3A9
:105B8000A3A3A3A3A3E0F922F01276FFE022C08230
:105B9000C08374F3122AC8851882851983E4F0043F
:105BA000122CC71259317403122CC7AA82AB83126C
:105BB0002DEBAA18AB19122E21740D122A34026D86
:105BC000D174F612242D126648FAA3E0F9EAF8908F
:105BD00007BAE058F508A3E059F509E5084509605A
:105BE0001C7808122A2190077712284512663DFD7D
:105BF0007C0012671312412F7404122A340253C01E
:105C000074F412242D74FF122AC8EAFEEBFF8518E3
:105C100082851983E4F0900906E06021EE240B12DE
:105C20006640640160178E828F83A3A312608AEEA0
:105C30002415126640687003A3E0696003025CF4F7
:105C40001264EE126088E8FAE9FB88828983A3A3D4
:105C5000A3A3A3A3A3A3E0FC88828983A3A3A3A3F4
:105C6000A3A3A3A3127766EC28F508E439F509ECA1
:105C700045096010EC9471E994085008900912E00D
:105C80006402700A85188285198374808038122E08
:105C90005D8A0A8B0BA80AA90BE8496021888289D2
:105CA00083A3A3A3A3E06016C394035011E82412B6
:105CB000125CFFE82414125CFF123F49800985182A
:105CC000828519837481F0125CF9126861122A25A9
:105CD0007401122A9A880889097808122A217508FD
:105CE0001F7509807808122A211264F41240CF74BB
:105CF00005122A347401026A92EE1275B13F22F540
:105D000082E439F583E508F0A3E509F02274EA128C
:105D1000242D74DB122AC88A148B15751200751392
:105D200000127884F50EAC18AD197A007B00799CCE
:105D3000122F417A047900122E33EAF50C8518826D
:105D4000851983E02AF0F8E50EC3984003025F2C22
:105D5000E0C3950EF509C394044003750903E509F2
:105D600075F01AA4FAABF0123CF18A128B13EA45D3
:105D7000137003025F2F750D00AE12AF13850E086E
:105D8000807E125F97123C37850A82850B83A3A31E
:105D9000A3A3E0702D850A82850B83126AA0700C84
:105DA000126F2CF0EE2418126F2F8010125FA5F0E6
:105DB000900566E014C0E0125F7FD0E0125FD0E48F
:105DC0008034900566E004C0E0125F7FD0E0125F8F
:105DD000C8C39403EE4003025E931262377402124A
:105DE0005FC864017003025EA0EE2415125FA8F084
:105DF000EE2416125FA8F0EE241AFE50010F050DD6
:105E0000E50DC395094003025ECBE508C3950C4040
:105E100003025EA985080AAA0A7B00122EA58A0A37
:105E20008B0B0508900553125FB11246ED850A826F
:105E3000850B8312608A125F8DE8F0A3E9125FE29E
:105E4000850A82850B83A3A3A3A3A3A3A3A3A3A3D0
:105E5000E0C0E0125F75D0E0F07401122CC7E4F0EE
:105E6000850A82850B8312608A7402122CC7126025
:105E7000947401122AA2122E0FE964016003025DDC
:105E8000827404122CC7AC82AD83125F9D1246ED62
:105E9000025D88125FA6125FC864036003025DE9B9
:105EA000EE2415126F2F025DEFE50CC3950E400531
:105EB000750800801DE50EC3950CF5088014125F6F
:105EC000A5F0EE241AFE50010F050DE50DC395094E
:105ED000505D740E122AAA85080AAA0A7B007987E7
:105EE000122F4105087418122CC7125FB11246ED2B
:105EF000125F97123C37EE2412F8E43FF9740E1249
:105F00002CC7126DE288828983EAF0A3EB125FD07E
:105F10007403125FE2741D122CC7E0C0E0125F75BB
:105F2000D0E0126D497097126F2C8095750900753D
:105F30000A00780A122A257812122A217809122AD0
:105F400025E50EF5097809122A257405122CC7E0FB
:105F5000FD7C0012647A12416B7405122A34E5123A
:105F600045136007AA12AB13123CF77425122A34AA
:105F70007F0E0226BDEE2419F582E43FF58322123E
:105F80005F8322EE2418F582E43FF58322EE24128B
:105F9000F582E43FF583227C087D0079FFEE240A38
:105FA000FAE43FFB22EE2414F582E43FF58374010A
:105FB0002212608E8E828F83E8F0A3E9F07C677DE9
:105FC00005EE12672E3FFB22127721A3A3A3E02246
:105FD000F0EE126F237402F0EE2416F582E43FF522
:105FE0008322F0EE2417F582E43FF5837402F01269
:105FF0005F8374FFF02274F612242D74F9122AC8FC
:106000008A088B0912607B350912784E123C43EAEC
:10601000F8EBF9ECFAEDFB851882851983122CB0A8
:10602000EE2404FE50010F8E828F83E0C0E07404E2
:10603000122CC7D0E0126D20FA7405122CC774011F
:10604000F07406122CC77401F0900781F090078A53
:1060500004127738A312608A900782126094EA9043
:10606000078B12609A900780F0AA18AB19122EE1E4
:10607000E96003122EE774070253BDEA1260802222
:1060800012665D2212748739F58312608E22E0F861
:10609000A3E0F922E8F0A3E9F022F0127696E022DC
:1060A00074F212242D74FF122AC87508007E007F36
:1060B000001231938A0A8B0B1231938A0C8B0DA834
:1060C0000CA90D80050508126084E84970F7900955
:1060D00012E06007640160030261AB1231938A0C25
:1060E0008B0DA80CA90D8003126084E849603688E6
:1060F000828983126DE2900553E06A7003A3E06B1E
:10610000600D12748739F583126DE2EA4B70D988FD
:1061100082898312608A900553E0687003A3E06966
:1061200070030261AB7A167B00123CF18A0C8B0D76
:10613000AE0CAF0DEE4F607390055312608A8E82E5
:106140008F83126094900548E08E828F83A3A3F022
:106150001232EFE98E828F83A3A3A3A3A3F090153D
:106160004B127715F07C677D0512622E1246EDAA60
:1061700018AB1979411247B9851882851983E060F7
:106180000890077712608A800478FE79FF8E828FEC
:1061900083A3A3A3A3A3A3A3126094126236E50A68
:1061A000F0A3E50BF08E0A8F0B050890078BE0F843
:1061B000E508C39850047A008022E508C398FAC322
:1061C000940640027A057900800DE50A127488353C
:1061D0000B125B5AF50B09E9C39840EE750900787C
:1061E00009122A25780A122A21EAF5097809122AC1
:1061F0002590078BE0F5097809122A25AD087C0067
:106200007A827B07900780E0F91241657405122AB3
:1062100034900912E060046401700BEE4F6007EEE9
:10622000FAEFFB123CF7122EE774010254D6EE246B
:106230000BFAE43FFB22EE12623B221274883FF518
:106240008322EEFAEFFB7F060226BD74EC12242DAA
:1062500074FF122AC88A0A8B0B7E008E0E8E0F12D4
:10626000607B350B12788AFFAC18AD197A007B0081
:10627000799D122F41851882851983E0F8EFC39824
:106280004003026326E0C39FFEC3940B40027E0AD4
:10629000EE75F007A4FAABF0123CF18A088B098A7C
:1062A0000E8B0FEA450F607C750C00801A85088202
:1062B000850983A3A3A3A3A37403F0E5082407F52A
:1062C0000850020509050CE50CC39E5059AC08ADF9
:1062D00009850C10E5102FFAE43400FB798B122F9E
:1062E00041850882850983A3A3A3A3A3E0146008C2
:1062F00014601314601F80B5850882850983A3A3E9
:10630000A3A3A3E480B4850882850983A3A3A3A3E0
:10631000A3740180A5850882850983A3A3A3A3A3F1
:10632000740280967E007508007808122A25780E7F
:10633000122A21EEF5087808122A25EFF5087808C8
:10634000122A257405122CC7E0FD7C00E50A1267AD
:106350002E350BFBE50A12648E350BF583E0F9123E
:1063600041717405122A34E50E450F6007AA0EAB81
:106370000F123CF77401122A347F0C0226BD74EA16
:1063800012242D74FE122AC88A148B15750A007502
:106390000B00127884F508AC18AD197A007B0079EF
:1063A000A31249B185080C85188285198312608A69
:1063B000C3E50C98E499507D851882851983E0C364
:1063C000950CFEA3E09400FFC3EE9404EF9400400C
:1063D000067E037F008004EE4F605AEEFAEFFBEA80
:1063E00075F015A4FAA8F075F015EBA428FB123C83
:1063F000F18A0C8B0D8A0A8B0BEA450B6037750905
:1064000000750E00850E10C3E5109EE49F502BAC66
:106410000CAD0D850E12850810E5122510FAE43436
:1064200000FB79A21249B1E50C2415F50C500205C8
:106430000D050E80CF75098B7E00750C00780C124F
:106440002A25780A122A21EEF50C780C122A2578D2
:1064500008122A257405122CC7E0FDAC0912647AD3
:106460001241777405122A34E50A450B6007AA0A1F
:10647000AB0B123CF77402025F6DE51412672E3508
:1064800015FBE51412648E3515F583E0F922240F0F
:10649000F582E42274F612242D74FF122AC8EAFE53
:1064A000EBFF1264EE1275CEA3A3A3A3A3A3A3A331
:1064B000E0F9122F05E9851882851983F075080027
:1064C0007808122A257401122A9A880889097808FE
:1064D000122A217508357509807808122A2112645C
:1064E000F41240CF7405122A3474010253BDEE1227
:1064F00060803F2279011264FEFAE43FFB22EE2421
:1065000002FCE43FFDEE240F2274F412242D74FAF1
:10651000122AC88A088B09EA12748E12749EFFEE42
:10652000FAEFFB122DF1E96013123265EAFCEBFD84
:10653000EEFAEFFB1246E7E96401700A7401122CCF
:10654000C7E4F0A380097401122CC7EEF0A3EF1288
:106550007754A3A3A3A3A3E0F8A2E6500874031200
:106560002CC77401F0E8A2E750087404122CC77419
:1065700001F07405122CC7E4F004122AA2122F3580
:10658000E9851882851983F07A007B0012328975BB
:106590000A00780A122A257401122A9A880A890B9D
:1065A000780A122A21750A34750B80780A122A217A
:1065B0001265C01240CF7405122A347406026A9222
:1065C0007901E5082402FCE43509FDE508240FFA09
:1065D000E43509FB2274F612242D74FF122AC81226
:1065E0006648F509A3E0F508A909122EF3E9851814
:1065F00082851983F0900912E0700B7401650870B0
:1066000005A90912421FEE240B126640702C750872
:10661000007808122A257401122A9A8808890978B4
:1066200008122A217508367509807808122A211265
:1066300064F41240CF7405122A340264E9EE240E89
:10664000F582E43FF583E02212664C22EAFEEBFF7E
:1066500012665C3FF583E0126663E022EE2413F5D8
:1066600082E422F8A3E0F98882898322C082C08371
:10667000900912E07003124225026DD174F41224C5
:106680002D74EF122AC8EAFEEBFF1254DC90077754
:10669000E065087004A3E065097052A818A919887C
:1066A0000A890B780A122A21750A11750B00780ADB
:1066B000122A217C007D007A817B00123D7B7404CC
:1066C000122A34E97027750A00780A122A25740103
:1066D000122A9A880A890B780A122A21AC08AD0975
:1066E0001267131241297403122A348021750A118A
:1066F000750B80780A122A217808122A2112663D29
:10670000FD7C841267131241357404122A3474110B
:10671000026A9212671722EE12672E3FFBEE240FD9
:10672000F582E43FF583E0F922FCEFFDE508240261
